:020000040000FA
:060000000217D8020A8875
:03001300020B4499
:03002B0002156952
:03003300020CD2EA
:03003B00020B991C
:030053000209BDE2
:03005B000212DBB3
:030063000212FC8A
:03006B00020C780C
:03007B00020CA9CB
:10008300020A1C010020FD00020196050000000188
:100093004A1D5C1D0000621D681D000000006E1DEE
:1000A300861D8C1D921D000000000000000001024F
:1000B3000408102040800801FF0D01010401FEFF28
:1000C3000000000000000006FFFFFFFFFFFFFF012D
:1000D30001010400C61A000000E8030000FFFF3E10
:1000E3001BE803000064006400B801A0BB0D00A07E
:1000F300BB0D00020200F8FF0705021E0401051EE6
:1001030002051E020A0A01010808010310270280E2
:100113003E0102FEFFE8030A050001FFFF010A1486
:1001230001E0C503423F1A51123FF304B53F0000FB
:10013300803E010105030101FF0F10FEFFA53E00F4
:10014300000000173D00000000FF000000FF00C09A
:1001530082C083E9FA5407F8743728F582E4341E21
:10016300F583E0F879006022EAC4540F5403600871
:1001730014600914600D8012E5808002E5905870C8
:10018300078007E5A0586002790102027BC082C0A4
:1001930083120280400478008003120338E8F4FCE1
:1001A300EB600814601214601C802BEA6005E842BF
:1001B300808023EC5280801EEA6005E8429080161E
:1001C300EC52908011E8C39420500BEA6005E8429A
:1001D300A08003EC52A002027BC082C08312028083
:1001E300400478008003120338E8F4FCE87003024B
:1001F300027BEB600814602C146050807BEC52F39C
:1002030074016A601274026A601574046A7003E808
:10021300428FE842FD806153F7DFEC528F80F34356
:10022300F72080F6EC52F474016A601274026A607B
:100233001574046A7003E842F6E842FE803A53F705
:10024300BFEC52F680F343F74080F6E8C3942050A6
:1002530027EC52F574016A601274026A6015740423
:100263006A7003E842F7E842FF800D53F77FEC52D0
:10027300F780F343F78080F6D083D08222E9C45419
:100283000F5403FB743F59C394302274F8120ECEFB
:10029300E9C4540F5403FE743F59C39430400478A7
:1002A300008003120338E8F4FBE86077EE6008147B
:1002B300602B14604E806CEB52F352FD74016A6044
:1002C3000F74026A600F74046A7058E8428F805397
:1002D30053F7DF800343F720EB528F8046EB52F452
:1002E30052FE74016A600F74026A600F74046A70CC
:1002F30032E842F6802D53F7BF800343F740EB52B9
:10030300F68020E8C39420501AEB44E0FB52F552E8
:10031300FF74016A601274026A601574046A7003E0
:10032300E842F77F0102125C53F77FEB52F780F349
:1003330043F78080F6E95407FC74372CF582E434E4
:100343001EF583E0F822C082C08312028040047845
:10035300008003120338E8F4FCE86038EB6008140B
:10036300601214601C802DEA6005E842FD8025ECD4
:1003730052FD8020EA6005E842FE8018EC52FE80C0
:1003830013E8C39420500DEA6005E842FF8005742A
:10039300E04C52FF02027BC082C083120280400401
:1003A30078008003120338E8F4FCE8603FEB600850
:1003B3001460151460228034EA6005E842808003EB
:1003C300EC5280E842FD8024EA6005E84290800315
:1003D300EC5290E842FE8014E8C39420500EEA6089
:1003E30005E842A08003EC52A0E842FF02027B74BE
:1003F3003F59C394305042E9C4540F540360071467
:100403006013146020227801E8F4FBEA602414608E
:100413001814601922740F59C3940450047802808D
:10042300E7780480E3780880DFE8428C22E58C5883
:100433006004EB528C22E8428C221217E8601D12F2
:1004430017F77005191919801A121679701F1216E9
:1004530051C37003E6673319191940071818182296
:1004630008080874FFF618F618F618F62212165143
:10047300601712189D702192F01218A67019501768
:1004830020F014080808090909E7F61819E7F6180F
:1004930019E7F61819E7F6221218A660E6E869705C
:1004A3001F0808E62480F608E436F618547FB47F64
:1004B3000CE654806007F6E418F618F622181822A2
:1004C300E9C6CC08C6CD08C6CE08C6CFC0E0E8C092
:1004D300E0EAC0E0EBC0E009E9F809E7FA09E7FB65
:1004E300E6F918E6F8C3EC98ED99EE9AEBC2E7F556
:1004F300F0EFC2E795F0500E600CEBCFFBEACEFABB
:10050300E9CDF9E8CCF8EAA2E7D2E7FAEB33FB133B
:10051300F5F0EEA2E7D2E7FEEF33FFC5F013A2E753
:1005230030E601B313C5F0C3C0E0C0F07F00C39B46
:10053300FB605E9418600F401D14601AD0E023F92D
:10054300D0E0F802061E8AF0E9486003D2F0E4AF77
:10055300F0FAF9F8803BEB30E40D89F0EA6003D25E
:10056300F0E4AFF0F9CAF8EB30E30D88F0EF600286
:10057300D2F0AFF0E4CAC9F8EB54076014FBC3EA46
:1005830013FAE913F9E813F8EF135002D2E0FFDB93
:10059300EDD0E0C0E030E739C3E49FFFF5F0EC981D
:1005A300FC42F0ED99FD42F0EE9AFE42F0D0E0F904
:1005B300D0E0F8E5F0607AE923F9EE20E742D802CB
:1005C3008067C3EF33FFEC33FCED33FDEE33FE8086
:1005D300EAEC28FCED39FDEE3AFED0E023F9D0E059
:1005E300F84002801BC3EE13FEED13FDEC13FCEF8A
:1005F300135002D2E0FF08B800067F7F74FF802EFD
:10060300EF3350178CF020F00260100CBC000C0D7F
:10061300BD00080EBE000408E860DFE933E813FFFD
:10062300EE2313FE4F4D4C8008E95480FFE4FEFD9A
:10063300FCEE33EF33F47004FCFD7E80D0E0FBD09E
:10064300E0FAD0E0F8D0E0CFC618CEC618CDC61871
:10065300CCC6F9221217E87004181818221217F7DB
:10066300700D74FFF61819F61819F61819F622E723
:10067300548066F61218A6700F12189D70F014F6C7
:1006830008F608F608F680D112189D700CF608F6E5
:1006930008768008E6447F80EC121654700C12161C
:1006A3007C60BFE65480F6E480BB12167C700519AB
:1006B300191980A5E869700C763F18768018F6182A
:1006C300F6E8F922E6CDC0E018ECC0E0E633CD331E
:1006D300CDD313F6E719FCE7191933CC33C3947F51
:1006E300400ECD9D502408E65480F6E418F6800FA2
:1006F300F4043D14501408E6447FF6187680E41899
:10070300F618F6D0E0FCD0E0FD22CCD313CCFD18D4
:10071300E4C6CBC0E018E4C6CAC0E00808ED08C6CA
:1007230033E613F618E433C675F003C3CA97CA0950
:10073300CB97CB199C40047D08802EBD0003020893
:100743000016B6FF050606081618C3CA33CACB330C
:10075300CB33CA27CA09CB37CB193CC37D08803EAC
:10076300187D0820E75CC633C6CA33CACB33CB3304
:10077300DDF1D5F0EB30E77BCA97CA09CB974ACBBB
:10078300199C406F4B7025E620E0218066187D0898
:10079300C3CA97CA09CB97CB199CD3C633C6CA33EE
:1007A300CACB33CB3350C9DDE7D5F0E1D3E4C6364A
:1007B300C608C636C608C636C608C636C6181818CA
:1007C3008031C3CA97CA09CB97CB199CB34097C64C
:1007D30033C6CA33CACB33CB33DD34D5F02EC6A2EE
:1007E300E0C640C8CA27CA09CB37194A70BECB3CFA
:1007F300B480B90808E63308E633601F181818D028
:10080300E0FAD0E0FBD0E0FCD0E0FD22187D08CA7E
:1008130027CA09CB37CB193CD3808013F618E4B62B
:100823007F11F618B6FF0EF618C60470D2080876C4
:100833008080CAF618F618F680C5001217E8604FD4
:100843001217F76012E7548066F6121679701112C8
:10085300189D703B090909F4F618F618F618F622E4
:1008630012165170151218A608080860EAE6447FAC
:10087300F618768018E4F618F6221218A6601612F7
:10088300189D7012E4F608F608F608E65480F60997
:10089300090918181822EAC0E0EBC0E0ECC0E0ED4B
:1008A300C0E0E687F0A4FBACF008E687F0A42CFCDC
:1008B300E435F0FA1809E687F0A42C4B60027401C2
:1008C300CA35F0FCE433FB09E687F0D2F7A42CCB5E
:1008D30035F0FC1908E687F0A42BCC35F0FBE433A4
:1008E300FD0819E687F0D2E7A42C4ACB35F0CD34C6
:1008F30000FC09E687F0D2E7A42DCC35F0FDE43304
:10090300FA0918E687F0D2F7A42CCD35F0CA3400E3
:10091300FC08E687F0D2E7D2F7A42ACC35F07A7E3A
:1009230020E70B0ACB33CBCD33CDCC33CC33CB3316
:1009330050147004ED30E00ED2F1E4CD3DCDCC3C4B
:10094300CC3B5005DA05C2F1EB547FC63308E633DE
:1009530092F0FBE73309E733C39A502D2B70190C40
:100963000D4C4D70151806E608C333700D20F10ABF
:10097300A2F013F6E418800B4024E4F630F002767C
:100983008018F618F618F68024D33B14501074FF21
:10099300A2F013F6187680E418F618F6800FA2F08A
:1009A30013F618E63303F618ECF618EDF6D0E0FD6F
:1009B300D0E0FCD0E0FBD0E0FA22C0E074F1120FEB
:1009C30034A2AFE433F509D2AF85A708AFA1EF5541
:1009D30008FE74105E6006121A2675A1EF74085E95
:1009E3006008121A2C75A1F78024EFA2E092F0E5BB
:1009F30008A2E082F05017906198E0F8900504E0B7
:100A0300C398A2D265D0335002E8F075A1FEE50980
:100A1300A2E092AF7F02020F93C0E074F2120F3490
:100A2300A2AFE433FED2AF9061A4E0F8759B00E57A
:100A33009158540860087591F7121A748023E59150
:100A430058541060087591EF121A7A8014E591A238
:100A5300E092F0E8A2E082F05007E0C2E0F0121B5F
:100A6300D69061A3E0F8E5E9585404600E121BAC7C
:100A730075E9FB906193E0A2E640F2EEA2E092AF4B
:100A83007F01020F93C0E074F2120F34A2AFE4337C
:100A9300FED2AF9061A5E0F8E5BF58540460067537
:100AA300BFFB121BEE80D4C3E498F8E499F9120A51
:100AB300EB8026C3E49AFAE49BFBE920E7E9120AF8
:100AC300EBE498F8E499F922C3E498F8E499F9126D
:100AD3000AEBE498F8E499F9C3E49AFAE49BFB225D
:100AE300EB20E7CFE920E7E0B90010BB0008E88A74
:100AF300F084F8AAF022E4FBC8FA22EB70227B1000
:100B0300C833C8C933C9335007C39AC3DBF280065D
:100B13009A50012ADBEAC833F4C8C933F4C9FA226C
:100B230075F008E4C833C8C933C933C99AC99B509F
:100B330004C92AC93BD5F0ECFBC833F4C8E4C9FAAD
:100B430022C0E0C0D0E8C0E0E9C0E0C082C083A812
:100B5300C1E8C0E09004B1E0F8743028F582E434D1
:100B630004F583D0E0F09004B0E0F8A3E0687006E9
:100B7300E5959004B3F09004B1E004F0C394804091
:100B830002E4F0A374C6F0D083D082D0E0F9D0E0C1
:100B9300F8D0D0D0E032C0E0C0D0E8C0E0E9C0E097
:100BA300C082C0839004F4E0F8A3E0687008539A0D
:100BB300FBA374018022C2E99004F4E0F8740128D5
:100BC300F074B428F582E43404F583E0F5C19004AD
:100BD300F4E0C394404002E4F080AC120C2930F0FE
:100BE30039120C6E8034120C2920F01430E72B7468
:100BF300FFFCFBFA747F8022E4FCFBFA7480801A0A
:100C0300B48008BC00F2BB00EF800F50EBF9E4C3E3
:100C13009AFAE49BFBE49CFCE499C6CC18C6CB1877
:100C2300C6CA18C6F922E4C9C608CAC608CBC6D3C1
:100C3300330308CCC63392F0C3947F402E941840FC
:100C430019C9B90704CACBCC225025C309CA33CA70
:100C5300CB33CBCC33CC33D9F422F4600DC9CCC322
:100C630013CB13CBCA13CAD9F6CC22E4FCFBFA226A
:100C730014FCFBFA22C0E074F2120F34A2AFE43387
:100C8300FED2AF9006AAE05589600FE589FA790094
:100C9300121EAC9006AAE0F45289C2C5EEA2E092FD
:100CA300AF7F01020F93C0E074F2120F34A2AFE4DE
:100CB30033FED2AF9006ABE0558A600FE58AFA792E
:100CC30001121EAC9006ABE0F4528AC2EB80CDC099
:100CD300E074F2120F34A2AFE433FED2AF9006AC4D
:100CE300E0558B600FE58BFA7902121EAC9006ACCF
:100CF300E0F4528BC2E880A4080808EAC0E0EBC025
:100D0300E086F0E7A4FA180986F0E7A42AFA18099E
:100D130086F0E7A42AFA180986F0E7A42AFA1986C6
:100D2300F0E7A4FBE5F02AFA190886F0E7A42BFB09
:100D3300E5F03AFA190886F0E7A42BFBE5F03AFA56
:100D430018180986F0E7A4C5F02BFBE43AFA190852
:100D5300E7C5F0C6A426F6E5F03BFBE43AFA1886AD
:100D6300F0E7A4F6E5F00826F6E43B08F6E43A08D3
:100D7300F6D0E0FBD0E0FA22080808E630E71112CB
:100D830016B5120D93080808C64480C61818182211
:100D9300181818E9799EC608CAC608CBC608CCC677
:100DA300C370207996CACBCC7019798ECBCC7013D3
:100DB3007986CC700EF9802ACA33CACB33CBCC33B5
:100DC300CC331930E7F2CCCBCA3350147004EA3079
:100DD300E00DE4CA3ACACB3BCBCC3CCC500209C3AE
:100DE300E913C6CC182313C6CB18C6CA18C6F922F2
:100DF300E4CFC0E0E4CEC0E0E4CDC0E0E4CCC0E0AA
:100E030075F020E626F608E633F608E633F608E63C
:100E130033F6181818EC33FCED33FDEE33FEEF33E5
:100E2300FFC3EC9709ED9709EE9709EF9719191985
:100E3300400FFFEC97FC09ED97FD09EE97FE19199A
:100E430006D5F0BFECF709EDF709EEF709EFF7194F
:100E53001919D0E0FCD0E0FDD0E0FED0E0FF222560
:100E630018C582C0E0E51934FFC583C0E0E518C3A7
:100E7300958224F810AF0885831985821880088528
:100E83008319858218D2AFCEF0A3E520F0A37808AA
:100E9300E608F0A3DEFAEFF0A3E58124FAF8E6080A
:100EA300F0A3E608F0A3E608F0A30808E608F0A319
:100EB300E608F0A315811581D0E0FED0E0F8158196
:100EC30015811581E8C0E0EEC0E0222518C582C077
:100ED300E0E51934FFC583C0E0E518C3958224F922
:100EE30010AF088583198582188008858319858248
:100EF30018D2AFCEF0A3E520F0A37808E608F0A35C
:100F0300DEFAEFF0A3E58124FBF8E608F0A3E60898
:100F1300F0A30808E608F0A3E608F0A315811581FD
:100F2300D0E0FED0E0F815811581E8C0E0EEC0E026
:100F330022C0D02518C582C0E0E51934FFC583C09F
:100F4300E0E518C3958224F310AF088583198582E1
:100F5300188008858319858218D2AFC8F0A3E9F0F9
:100F6300A3EAF0A3EBF0A37908E709F0A3D8FAEC1E
:100F7300F0A3EDF0A3EEF0A3EFF0A3D0E0F0A3D045
:100F8300E0F0A3D0E0F0A3E520F0A3E5F0F0A32286
:100F9300851983851882E0C0E0A3E0F9A3E0FAA3F2
:100FA300E0FBA37808E0F608A3DFFAE0FCA3E0FD8A
:100FB300A3E0FEA3E0FFA3E0C0E0A3E0C0E0A3E062
:100FC300F5D0A3E0F520A3E0A3F5F010AF088583E7
:100FD300198582188008858319858218D2AFD0823B
:100FE300D083D0E0F8D0E0321216B8181818120DDA
:100FF300F3121787191919221217871919190808D3
:1010030008E618181820E7E0120DF31216B818189E
:101013001822090909E719191920E7DC080808E665
:1010230018181820E703020DF31216B8181818122F
:101033000DF31216B8181818121787191919221256
:101043001888B90003021081E49003D97834791B1E
:101053008002F0A3D8FCD9FA7A0C7B1E9000867824
:10106300CD79018015E493A3AD82AE838A828B830D
:10107300F0A3AA82AB838D828E83D8E9D9E77582E8
:10108300497583BB74071214E0758216758339742E
:10109300001214E01E75F0108E1A8F1B85821F85B7
:1010A300831E851882851983E0CEA3E0CF851F8236
:1010B300851E83EBC9EAC8EDCBECCAC3E833C8E9A4
:1010C30033C9EA33CAEB33CBC3EA9EF51DEB9FF575
:1010D3001CB35004AB1CAA1DEC33CCED33CDD5F0BF
:1010E300DAAE1AAF1B221217E8601C1217F760174B
:1010F3001218A6700712189D7001D322C0D01218BF
:101103009D7006D0D0B322C32233D0D0501430E028
:10111300F6C3E7960809E7960809E7960809E796EC
:10112300B32220E0D5E6970809E6970809E6970871
:1011330009E697B3221217E8601B1217F76016121D
:1011430018A6700712189D600CB322C0D012189D08
:101153007005D0D022C32233D0D0501330E0EBC37C
:10116300E7960809E7960809E7960809E796222013
:10117300E0E4E6970809E6970809E6970809E69781
:1011830022D083D082ECC0E0EDC0E0E493A3FCE482
:1011930093A3FDED4C600D12129CEC24FFFCED3487
:1011A300FFFD80EFE493A3FCE493A3FDED4C600DFE
:1011B3001213A3EC24FFFCED34FFFD80EFD0E0FD20
:1011C300D0E0FCE493A3C0E0E493C0E022D083D05A
:1011D30082E9C0E0E493A3C386F0C5F095F0F90873
:1011E300E493A386F0C5F095F0700BE493A3C39941
:1011F3004005E9048002A3E475F002A42582F58288
:10120300E5F03583F583D0E0F9E493A3C0E0E493FC
:10121300C0E022851983851882E0A3FEE0A3F520B0
:101223007808E0A3F608DFFAE0A3FFE0A3C0E0E05C
:10123300A3C0E0E0A3C0E0E0A3C0E0E0A3C0E010EF
:10124300AF088582188583198008858218858319DC
:10125300D2AFD083D0820214E6851983851882E049
:10126300A3FEE0A3F5207808E0A3F608DFFAE0A3E5
:10127300FFE0A3C0E0E0A3C0E0E0A3C0E0E0A3C0C0
:10128300E010AF0885821885831980088582188548
:101293008319D2AFD083D08222C0E0C3E4939608EF
:1012A3007401939618400FE49366700808740193D1
:1012B300661870007019A3A3C3E49396087401938E
:1012C3009618A3A3400DD0E0D0E0D0E00211C0A354
:1012D300A3A3A3A3A3D0E022C0E074F2120F34C2ED
:1012E300D9901E53E0C39400A2D265D0334005E0E9
:1012F300F91222367F01020F93C0E074F2120F3409
:10130300C2DC901E55E0F9C39400A2D265D03340ED
:101313000312223680DE7404800474028000CCC081
:10132300E0EDC0E0E518C39CCCAD1950011D10AF32
:10133300068C188D1980068C188D19D2AF12146281
:10134300D0E0FDD0E0FC2274028000CCC0E0EDC010
:10135300E0E518C39CCCAD1950011D10AF068C18E5
:101363008D1980068C188D19D2AF12141ED0E0FD92
:10137300D0E0FC221217E860251217F7602012183C
:10138300A6700302189D080808E76670101819E78D
:1013930066700A1819E76670041819E76622F422C2
:1013A300C0E0C0F088F0E4936670080874019366A7
:1013B300187000A8F0A3A3700BD0F0D0E0D0E0D059
:1013C300E00211C0A3A3D0F0D0E022D083D082CC1E
:1013D300C0E0E493A360061214831470FAE493A3A9
:1013E30060061215E61470FAD0E0FCE493A3C0E0A3
:1013F300E493C0E022C008C3E096F50808A3E09692
:10140300420808A3E096420808A3E0964208A2D245
:1014130065D033E5087001D3D00822CAC0E0E49355
:10142300A3C582CCC582C583CDC583F0A3C582CCB9
:10143300C582C583CDC583DAE5D0E0CA22A2E7928F
:10144300D65002F40430F70663F0FF05F0B340030F
:1014530084800384F40430D60563F0FF05F022CAC8
:10146300C0E0E0A3C582CCC582C583CDC583F0A30C
:10147300C582CCC582C583CDC583DAE6D0E0CA2256
:10148300C0E0E493A3D39C5010E493A3C39C400A0D
:10149300D0E0D0E0D0E00213EBA3A3A3D0E022700E
:1014A30009080808226016181818C6C333C608C6E8
:1014B30033C608C633C608C633C6D5E0EA22C00819
:1014C300C3E096F50808A3E096420808A3E0964215
:1014D3000808A3E09645087001D3D00822C09FF501
:1014E3009FE473D09F22D083D082C09FE493C0E057
:1014F300740193C0E0740293F59F227404800A740C
:10150300038006740280027401C0E0F404121534EF
:10151300D0E01218332200C0D0251810AF08F518F8
:10152300500C05198008F51850020519D2AFD0D018
:10153300222518F58210AF08F518400C15198008FC
:10154300F51840021519D2AF85198322BB0102E7B2
:1015530022C082C08389828A83BB0003E08002E4C5
:1015630093D083D08222C0E0C0D0E8C0E0A8A8D244
:10157300AFC2C7E8A2E792AFD0E0F8D0D0D0E03254
:101583006017080808C6A2E713C618C613C618C60C
:1015930013C618C613C6D5E0E9226016080808C6A4
:1015A300C313C618C613C618C613C618C613C6D5A2
:1015B300E0EA22C3E0C696F608A3E0C696F608A3BF
:1015C300E0C696F608A3E0C696F6222518F8E43599
:1015D30019F9222518FAE43519FB222518FCE435FC
:1015E30019FD22C0E0E493A36C7009D0E0D0E0D0F1
:1015F300E00213EBA3A3D0E022251810AF08F518DF
:10160300400C15198008F51840021519D2AF22E7CE
:101613006670100809E766700A0809E7667004082F
:1016230009E76622C3E09608A3E09608A3E09608BC
:10163300A3E096A2D265D03322E066701008A3E03F
:1016430066700A08A3E066700408A3E0662219190D
:1016530019E70947097009E727097005E733F422F9
:101663000922C3E096F008A3E096F008A3E096F001
:1016730008A3E096F022181818E60846087009E651
:1016830026087005E633F4220822C3E4939608740F
:101693000193960874029396087403939622C3E603
:1016A30097F60809E697F60809E697F60809E69714
:1016B300F622181818E4C396F608E496F608E4969A
:1016C300F608E496F622E493F608740193F6087498
:1016D3000293F608740393F622E667F60809E667B1
:1016E300F60809E667F60809E667F622E056F60803
:1016F300A3E056F608A3E056F608A3E056F622E662
:1017030057F60809E657F60809E657F60809E657B3
:10171300F622E627F60809E637F60809E637F6085B
:1017230009E637F622E026F608A3E036F608A3E03A
:1017330036F608A3E036F622E026F008A3E036F0FA
:1017430008A3E036F008A3E036F022E647F60809DE
:10175300E647F60809E647F60809E647F622700465
:1017630022600D18C6C333C608C633C6D5E0F418C5
:1017730022E056F008A3E056F008A3E056F008A3D1
:10178300E056F022E4C397F709E497F709E497F7E3
:1017930009E497F722600D08C6A2E713C618C6131B
:1017A300C6D5E0F322C6F4C608C6F4C608C6F4C616
:1017B30008C6F4C622C3E09608A3E09608A3E09601
:1017C30008A3E09622C3E7960809E7960809E79677
:1017D3000809E7962275D00075813F7518D97519E8
:1017E3000300021042E6084608C3134608336002AA
:1017F300E633F422E7094709C3134709336002E7D5
:1018030033F422600C08C6C313C618C613C6D5E04A
:10181300F422E6F008A3E6F008A3E6F008A3E6F056
:1018230022E0F608A3E0F608A3E0F608A3E0F62218
:10183300CAC0E0E6F0A308DAFAD0E0FA22E0FCA39B
:10184300E0FDA3E0FEA3E0FF22EAF0A3EBF0A3ECAC
:10185300F0A3EDF022E0FAA3E0FBA3E0FCA3E0FD9C
:1018630022E8F0A3E9F0A3EAF0A3EBF022ECF0A363
:10187300EDF0A3EEF0A3EFF022E0F8A3E0F9A3E08C
:10188300FAA3E0FB22E5C754F84401F5C779012226
:101893002518F582E43519F58322E72719471947F7
:1018A300194722E62618461846184622C2AF75D6AF
:1018B3009F020000221214E9FBBA071214E989D827
:1018C300071214E999D8071214E93699071214E993
:1018D3009999071214E9E899071214E9159A07125E
:1018E30014E96B9A071214E9C6FF021214E95FB2F6
:1018F300071214E9A9B2071214E93FB3071214E956
:10190300C5B3071214E9F6B3071214E90EB40712AC
:1019130014E982B4071214E998B4071214E9ABB4BA
:10192300071214E9B5B4071214E961B3051214E9F7
:10193300ADB8051214E9DFB8051214E90BB90512A5
:1019430014E9B3B9051214E9A9BC051214E95CDE64
:10195300051214E9C1DE051214E971DF051214E959
:101963003EE0051214E994E1051214E97EE2051242
:1019730014E985E3051214E965E5051214E998E510
:10198300051214E902E6051214E929E6051214E921
:101993008FE7051214E913E8051214E927E8051285
:1019A30014E99DE8051214E91093061214E9B6959B
:1019B300061214E91E97061214E9A599061214E9F2
:1019C30097F3061214E9C3F3061214E934F6061268
:1019D30014E974F6061214E9B4F6061214E9C8F60B
:1019E300061214E9E1F6061214E9D2F7061214E915
:1019F30077F8061214E98BF8061214E9E8C6071201
:101A030014E90CC7071214E925C7071214E957C7CD
:101A1300071214E987C7071214E9B4C7071214E9B8
:101A230016C8071214E925C8071214E92FC80712AC
:101A330014E93CC8071214E934AD071214E954AD94
:101A4300071214E993AD071214E9AEAD071214E9B6
:101A5300CDAD071214E933AE071214E93CAE0712F9
:101A630014E999AE071214E9BDAE071214E97EAF6B
:101A7300071214E98BAF071214E99CAF071214E99C
:101A8300E8D6071214E900D7071214E92CD7071276
:101A930014E99C7B001214E9F07C001214E9FE7C2B
:101AA300001214E9117D001214E9267D001214E9D5
:101AB3003B7D001214E94E7D001214E9C27D001231
:101AC30014E9277E001214E9C97E001214E98D7F00
:101AD300001214E99D7F001214E9AC7F001214E98F
:101AE300ADD3071214E9D1D3071214E9F9D30712BE
:101AF30014E921D4071214E9CAD5071214E926B749
:101B0300071214E94DB7071214E96BB7071214E96A
:101B1300DEB7071214E955A7071214E96EA70712D7
:101B230014E97AA7071214E98EA7071214E9ACA7E0
:101B3300071214E9B6A7071214E9C0A7071214E99C
:101B4300D3A7071214E95DA8071214E9D2A8071254
:101B530014E906A9071214E954A9071214E9A1A963
:101B6300071214E9BCA9071214E9C6A9071214E95C
:101B7300ECA9071214E951AA071214E947FF01124D
:101B830014E969FF011214E9E57F001214E992894F
:101B9300061214E9BC89061214E9D989061214E95C
:101BA300EC89061214E9028A061214E9608A061205
:101BB30014E9988A061214E9908E061214E9D58F57
:101BC300061214E90890061214E96B90061214E940
:101BD300E491061214E90C92061214E921920612FA
:101BE30014E93192061214E97592061214E9D0929F
:101BF300061214E9E092061214E978CD071214E9EB
:101C030092CD071214E9BACD071214E9D3CD071206
:101C130014E9F7CD071214E915CE071214E92CCEF7
:101C2300071214E95ACE071214E975CE071214E904
:101C330073D7071214E9C4A0071214E9D4A007123A
:101C430014E9D9A1071214E90BA2071214E931A26E
:101C5300071214E954A2071214E96BA2071214E93C
:101C6300A5A2071214E90AA3071214E94CA3071249
:101C730014E98BA3071214E9BCA3071214E9F3A315
:101C8300071214E902B5061214E9D8B5061214E9CD
:101C930003B6061214E920B6061214E91BB706129E
:101CA30014E95DB7061214E9CBB7061214E91DB89F
:101CB300061214E98CB8061214E9C3B9061214E922
:101CC300C0BA061214E90C8D071214E9618D0712CC
:101CD30014E9E18D071214E9F48D071214E91B8E40
:101CE300071214E9BE8E071214E99F8F071214E935
:101CF30045A5061214E970A5061214E93BA60612BF
:101D030014E982A6061214E913A7061214E98CAA91
:101D1300061214E944AC061214E936C8041214E995
:101D230076C8041214E975CA041214E99BCA041292
:101D330014E995CD041214E9D1CE041214E93BD26F
:101D4300041214E9A5D2041214E93FD3041214E9CE
:101D530092D3041214E9FAD3041214E94AD40412F4
:101D630014E97CD4041214E97FD4041214E98FD447
:101D7300041214E9A1D4041214E9ECD4041214E9F2
:101D8300A9D6041214E916D7041214E969D7041268
:101D930014E905D8041214E991D8041214E995DA68
:101DA300041214E934DC041214E9FBDD041214E90F
:101DB300DFDE041214E993E0041214E9E8CA0712FF
:101DC30014E902CB071214E944CB071214E977CBC9
:101DD300071214E991CB071214E9AACB071214E9ED
:101DE300DDCB071214E9FFCB071214E920CE06124C
:101DF30014E951CE061214E9A5CE061214E975CFE3
:101E0300061214E9A7CF061214E9D4CF061214E977
:101E130025D0061214E94FD0061214E973D0061226
:101E230014E999D0061214E91BD1061214E9A5D1BD
:101E3300061214E9D6D1061214E91CD2061214E9CB
:101E43003AD2061214E95ED2061214E97ED20612C1
:101E530014E9B4D2061214E913D3061214E935D3E4
:101E6300061214E994D3061214E9A3D3061214E953
:101E7300DCD3061214E9829C061214E9BC9C0612F8
:101E830014E9FB9D061214E9279F061214E91EA507
:101E9300061214E931E4061214E938E5061214E9CE
:101EA30079E5061214E9E8E5061214E9C8CF07122A
:101EB30014E939D0071214E99ED0071214E9B7E8E0
:101EC300051214E9D6E9051214E9E4EA051214E946
:101ED3002BEC051214E985EC051214E9CAEC051282
:101EE30014E9D8EC051214E908ED051214E99EED86
:101EF300051214E9FAEE051214E906F0051214E9C5
:101F03009EF1051214E9EBF2051214E9A7FC051280
:101F130014E902FD051214E93BFD051214E923FF40
:101F2300051214E97AEE061214E9BFEE061214E95B
:101F3300F5EE061214E91CF0061214E9C1F10612BB
:101F430014E92EF2061214E979F3061214E9F6F2F3
:101F5300051214E907F4051214E97DF4051214E9D6
:101F630076F5051214E9C2F5051214E93DF90512D7
:101F730014E91DFA051214E972FA051214E9C7FAF5
:101F8300051214E9A7FB051214E920C4071214E98A
:101F93005DC4071214E98CC4071214E9A0C4071224
:101FA30014E95A84071214E96C85071214E94F8661
:101FB300071214E97086071214E93987071214E926
:101FC300DB87071214E90C88071214E98C880712BF
:101FD30014E9BEBB061214E920BC061214E9B4BC12
:101FE300061214E943BE061214E984C1061214E969
:101FF3009AC1061214E984C5071214E9A4C507128D
:1020030014E9B8C6071214E9BBC6071214E932CCA7
:10201300071214E968CC071214E982CC071214E9F9
:10202300C4CC071214E9D4CC071214E96ECD0712FD
:1020330014E907AE061214E911AE061214E94BAE09
:10204300061214E9B4AE061214E9D1AE061214E96D
:1020530073AF061214E97CAF061214E9C1AF06127E
:1020630014E9EAAF061214E9F7AF061214E968B0EF
:10207300061214E9F3B0061214E941B1061214E989
:102083007FB1061214E9E4B1061214E907B206128D
:1020930014E97EB2061214E9D5B2061214E910B39C
:1020A300061214E945B3061214E957B3061214E9EC
:1020B30069B3061214E988B3061214E991B3061240
:1020C30014E94CB4061214E998B4061214E9D6B410
:1020D300061214E946C8071214E986C9071214E95F
:1020E3005AD8071214E94BA4071214E98FA4071254
:1020F30014E9D7A4071214E9BDA6071214E94CA7E3
:10210300071214E9DBD4071214E90080051214E95D
:102113002481051214E95E81051214E9088305126E
:1021230014E93283051214E9A785051214E9E7853A
:10213300051214E97D87051214E91A88051214E9BA
:102143006C88051214E90F89051214E947890512F1
:1021530014E98989051214E9F88A051214E9468CF1
:10216300051214E9778E051214E9A58E051214E9F8
:10217300CC8E051214E9D58E051214E9258F0512AC
:1021830014E9B78F051214E9E692051214E969936D
:10219300051214E9DDFF041214E9F3FF041214E934
:1021A3003691071214E94C91071214E9F0910712C2
:1021B30014E92F92071214E94C92071214E97D9245
:1021C300071214E9CA92071214E9FD92071214E9DF
:1021D3003893071214E92D95071214E95CC206120D
:1021E30014E902C4061214E943C5061214E95BC5D7
:1021F300061214E9B488071214E9EB89071214E9EB
:102203004A8B071214E944F7021214E96BF802121D
:1022130014E96AF9021214E9C0FA021214E9E5FB9F
:10222300021214E9BFFC021214E92CBD071214E9CF
:10223300DABD071214E9B693051214E97B9405126B
:1022430014E98694051214E93795051214E9969555
:10225300051214E98D97051214E9FD97051214E987
:10226300069A051214E93F9A051214E9E29C051235
:1022730014E90A9D051214E98C9D051214E9079EC1
:10228300051214E9919F051214E91BA0051214E924
:1022930099A0051214E965A5051214E98DD9061252
:1022A30014E9B4D9061214E90FDC061214E936DC7A
:1022B300061214E98BDC061214E9BDDD061214E9DB
:1022C30039DE061214E9CAAF071214E9E2AF0712A6
:1022D30014E92DB1071214E934B1071214E95DB101
:1022E300071214E9D4D1071214E933D2071214E9FF
:1022F30071D2071214E9B2D2071214E901DF0612F0
:1023030014E927DF061214E967E0061214E95CE119
:10231300061214E983E1061214E91CE2061214E919
:1023230070E2061214E98BE3061214E93FC80612A1
:1023330014E9E1C8061214E901CA061214E953CBE1
:10234300061214E907CD061214E95CBE051214E95E
:10235300B0BE051214E9DABF051214E906C105126D
:1023630014E9F4C1051214E990C4051214E947C62F
:10237300051214E992C6051214E9A0C8051214E95E
:102383002B9D071214E97E9D071214E9019E071283
:1023930014E98DA0071214E997C9071214E911CAA9
:1023A300071214E92CCA071214E907BF071214E92C
:1023B3001CC0071214E984C0071214E9DBC007121A
:1023C30014E926C1071214E976C1071214E991C171
:1023D300071214E992C2071214E9EDC2071214E9B5
:1023E300E9C3071214E9C8B4071214E931B5071297
:1023F30014E9A7B5071214E9CFB5071214E953D5A9
:10240300071214E99DD5071214E9EBD3061214E958
:1024130048D4061214E920D5061214E98FD5061202
:1024230014E9B3D5061214E99AD6061214E9FAD6BA
:10243300061214E9ABD7061214E922D8061214E9DE
:10244300F9D7071214E90CD8071214E9A8CE07121A
:1024530014E9B7CE071214E917CF071214E91DD8F0
:10246300071214E923D8071214E929D8071214E92B
:102473000080041214E90C80041214E96E80041223
:1024830014E97880041214E90B81041214E94781DA
:10249300041214E90382041214E91682041214E9E3
:1024A3006682041214E9F582041214E92B830412E0
:1024B30014E9AD83041214E95C85041214E930872E
:1024C300041214E91688041214E96889041214E941
:1024D300BE8B041214E9278D041214E9C48D04126F
:1024E30014E96C92041214E95A93041214E9F89350
:1024F300041214E92494041214E9C094041214E994
:10250300D594041214E9F994041214E95F950412A2
:1025130014E97C95041214E9A695041214E923978F
:10252300041214E94497041214E9CA97041214E933
:102533007098041214E9B798041214E92A99041242
:1025430014E9B699041214E91A9A041214E97A9A4E
:10255300041214E9109B041214E98B9B041214E96E
:10256300BE9B041214E9209C041214E9829D0412F8
:1025730014E9F29D041214E9A19E041214E9F79FD1
:10258300041214E98FA0041214E9FBA0041214E945
:102593003EA3041214E9CAA4041214E9F5A4041214
:1025A30014E9DBA6041214E971A8041214E97AA948
:1025B300041214E987A5051214E93EA6051214E9CD
:1025C30045A7051214E9C3A7051214E905A90512C5
:1025D30014E926A9051214E9DEA9051214E989AA4A
:1025E300051214E969AE051214E985B0051214E960
:1025F300ECB1051214E92FD7071214E9BDD6031263
:1026030014E918D7031214E9A2D7031214E913D952
:10261300031214E9EBD9031214E9D4DA031214E90F
:10262300EBDA031214E93DDB031214E9A1DB031215
:1026330014E9E2DB031214E9F5DB031214E94BDCC2
:10264300031214E9A4DC031214E9BCDC031214E939
:1026530049DF031214E9DEDF031214E908E0031271
:1026630014E951E0031214E941E2031214E9ABE265
:10267300031214E97FE3031214E9C2E3031214E91A
:10268300DCE3031214E923E4031214E945E403121F
:1026930014E9EFE4031214E9E7E5031214E941E650
:1026A300031214E992E6031214E92AE8031214E967
:1026B300A2EA031214E920EB031214E94DEB03120F
:1026C30014E9C0EB031214E9E3EB031214E95DEC24
:1026D300031214E928ED031214E965ED031214E95A
:1026E300C7ED031214E988EE031214E98BEE03120B
:1026F30014E995EE031214E99FEE031214E9B2EE06
:10270300031214E924EF031214E94DEF031214E941
:1027130060EF031214E98CEF031214E9B3EF031211
:1027230014E9D7EF031214E912F0031214E984F049
:10273300031214E9ACF0031214E9EDF0031214E9E7
:1027430022F1031214E942F1031214E97FF1031297
:1027530014E9B6F1031214E9B6F2031214E9E9F32A
:10276300031214E9FFF3031214E990D6071214E9D4
:10277300A8D6071214E9F9FF011214E951F704125C
:1027830014E9A0F7041214E940F9041214E9FBFA5E
:10279300041214E93DFB041214E926FC041214E9A3
:1027A30030FD041214E952FD041214E99CFD0412D5
:1027B30014E91DFE041214E92ED8021214E951D8AB
:1027C300021214E944D9021214E98DD9021214E950
:1027D300E5D9021214E9D4D2071214E98FDA0212EE
:1027E30014E905DB021214E991DB021214E906DC99
:1027F300021214E949DC021214E929E0021214E975
:1028030078E2021214E9ABE2021214E922E30212A3
:1028130014E953E6021214E9C8E6021214E953E874
:10282300021214E960E9021214E976EA021214E9C9
:10283300ECEA021214E9B3EB021214E91CEC0212E3
:1028430014E91FEC021214E9FCEC021214E938EE4D
:10285300021214E9F3EF021214E99FF1021214E9D0
:1028630091F2021214E921F3021214E975F402122F
:1028730014E9BFBA071214E9EEF5021214E98BF654
:10288300021214E9DAE1041214E97AE2041214E9F7
:10289300E4E2041214E98BE3041214E9EAE30412F8
:1028A30014E996E4041214E93FE7041214E965E815
:1028B300041214E9E9E8041214E9C6EA041214E95B
:1028C3006BEB041214E90EEC041214E96DEC041220
:1028D30014E926ED041214E9A5EE041214E962F0DA
:1028E300041214E9E3F1041214E93DF3041214E9A8
:1028F3004DF4041214E9F3F4041214E912F6041269
:1029030014E9B5AD041214E92DAE041214E975AE41
:10291300041214E9B9AE041214E902AF041214E963
:102923004CAF041214E981AF041214E9FFAF04128F
:1029330014E959B0041214E9B2B1041214E931B222
:10294300041214E948B3041214E96AB3041214E933
:1029530076B4041214E987B4041214E99FB4041280
:1029630014E9BFB5041214E9DCB5041214E9AFB6D7
:10297300041214E9D3B6041214E9EAB6041214E9F2
:102983000BB7041214E92DB7041214E91FB804128B
:1029930014E977B8041214E9EDB9041214E94BBA37
:1029A300041214E96ABA041214E99CBB041214E970
:1029B30019BC041214E986BC041214E9C6BC04123F
:1029C30014E928BD041214E9D8BD041214E9AABFFE
:1029D300041214E995C0041214E98FC1041214E916
:1029E30095C2041214E9B1C3041214E9BFC304125B
:1029F30014E998C4041214E938C5041214E97CC517
:102A0300041214E991C5041214E9A2C6041214E9CC
:102A130045C7041214E99DC7041214E95CAA0712FE
:102A230014E995AB071214E952AC071214E9B6ACDA
:102A3300071214E93A95071214E95895071214E995
:102A43009C95071214E9C295071214E9E895071239
:102A530014E90096071214E91896071214E9309640
:102A6300071214E99396071214E9D596071214E98D
:102A7300F797071214E90098071214E90998071247
:102A830014E91298071214E91C98071214E93D98E7
:102A9300071214E90080071214E9E083071214E90E
:102AA300EE83071214E9F383071214E9B9BB071283
:102AB30014E92FD6071214E9C3FF031214E951FED8
:102AC300041214E93CD8071214E90080021214E935
:102AD3005780021214E9C380021214E94F810212D3
:102AE30014E90582021214E94D82021214E9668286
:102AF300021214E98982021214E9AB82021214E968
:102B0300E982021214E93883021214E96383021280
:102B130014E9C183021214E96884021214E91085CE
:102B2300021214E98C85021214E95986021214E97F
:102B3300A086021214E9EC86021214E974870212C9
:102B430014E9AD87021214E90388021214E91F88FD
:102B5300021214E94E88021214E95A8A021214E985
:102B6300888B021214E9B48B021214E9E88B021267
:102B730014E9098C021214E9188C021214E9238C4B
:102B8300021214E9D28C021214E9428D021214E9E2
:102B9300CD8D021214E9D58D021214E9428E021270
:102BA30014E97E8E021214E9448F021214E917907D
:102BB300021214E96C90021214E90B91021214E947
:102BC3006591021214E9AA91021214E943940212C4
:102BD30014E98695021214E97098021214E95499C3
:102BE300021214E9389A021214E9499A021214E9FA
:102BF300BB9A021214E9529B021214E9B79B021208
:102C030014E9A79C021214E9CC9C021214E9EA9C71
:102C1300021214E9069D021214E9799D021214E9C5
:102C2300889D021214E9109E021214E90D9F0212EC
:102C330014E91A9F021214E9239F021214E905A151
:102C4300021214E927A2021214E937A2021214E9AC
:102C530065A3021214E9E4A3021214E9FFA4021209
:102C630014E93BA5021214E915A7021214E9D2AA2A
:102C7300021214E9E6AA021214E9F0AA021214E9F4
:102C8300FAAA021214E904AB021214E91DAB0212F0
:102C930014E927AB021214E994AB021214E99FABB7
:102CA300021214E9C7AB021214E9D2AB021214E9FF
:102CB30037AC021214E942AC021214E966AC0212F8
:102CC30014E98AAC021214E9FCAC021214E945AD12
:102CD300021214E961AD021214E9D2AD021214E931
:102CE3001EAE021214E967AE021214E9A5AE021277
:102CF30014E926AF021214E9CDAF021214E99CB114
:102D0300021214E901B2021214E92FB3021214E9F8
:102D130055B3021214E99DB4021214E9D7B7021293
:102D230014E9D5B9021214E9A0BB021214E939BCA3
:102D3300021214E93ABE021214E9EFBE021214E9B8
:102D430028BF021214E98EBF021214E998BF0212BF
:102D530014E9C1C1021214E900C3021214E957C3F2
:102D6300021214E902C4021214E9B2C5021214E9F0
:102D7300FFC6021214E91FC7021214E974C7021234
:102D830014E975C8021214E99DC8021214E9FCC8BB
:102D9300021214E9F4C9021214E96BCA021214E90B
:102DA3007ECB021214E9ECCB021214E9EBCC021233
:102DB30014E945CF021214E96ECF021214E9D4D0FC
:102DC300021214E956D2021214E9ADD2021214E926
:102DD3005BD3021214E900D4021214E959D402128B
:102DE30014E917D5021214E9A9D5021214E908D679
:102DF300021214E94AD6021214E97BD6021214E92C
:102E0300D2D7021214E90080031214E932800312AC
:102E130014E96B80031214E92982031214E9FF8277
:102E2300031214E95E83031214E97484031214E990
:102E3300C084031214E94E87031214E9288A03128B
:102E430014E96F8B031214E9078C031214E9138C32
:102E5300031214E95C8C031214E99E8D031214E926
:102E6300948E031214E9BE8E031214E9148F031215
:102E730014E96D8F031214E9E08F031214E916921B
:102E8300031214E99893031214E98394031214E9C7
:102E9300CD95031214E90598031214E9029B03125A
:102EA30014E9119B031214E9A59B031214E9509C26
:102EB300031214E9939C031214E9DC9C031214E932
:102EC3002C9D031214E9909D031214E9029E031230
:102ED30014E91E9E031214E94D9E031214E98C9EFD
:102EE300031214E9879F031214E936A0031214E9AD
:102EF300B3A2031214E9E5A3031214E9BDA4031258
:102F030014E93FA5031214E974A9031214E9A3A950
:102F1300031214E9FEA9031214E931AA031214E9F6
:102F2300A9AA031214E9DCAA031214E93DAB0312A4
:102F330014E98DAB031214E95AAC031214E913AD6F
:102F4300031214E9D7AD031214E951B0031214E9C3
:102F5300B3B1031214E904B3031214E928B403123E
:102F630014E92BB4031214E95AB4031214E952B648
:102F7300031214E911B7031214E940B7031214E959
:102F83005EB8031214E926B9031214E9E4BA031272
:102F930014E916BB031214E958BB031214E957BC16
:102FA300031214E9CABC031214E9F3BE031214E9B1
:102FB30052BF031214E9A6BF031214E9D5C10312C9
:102FC30014E9B8C2031214E974C3031214E988C3E1
:102FD300031214E99CC3031214E9C9C3031214E9CD
:102FE300F9C3031214E9B4C5031214E9C6C60312E4
:102FF30014E91BC7031214E964C7031214E98BC74E
:10300300031214E953C8031214E9F9C8031214E9AB
:103013007FCA031214E9C6CA031214E938CB031298
:1030230014E98DCC031214E936CD031214E96ACDE9
:10303300031214E982CD031214E925CE031214E915
:10304300A1D0031214E949D2031214E967D203127F
:1030530014E985D2031214E951D3031214E99FD65C
:10306300031214E93485011214E96C85011214E981
:103073006C8A011214E9B28A011214E9E88B011275
:1030830014E94D8C011214E9C28D011214E9CC909C
:10309300011214E9F591011214E9089C011214E9D3
:1030A300989C011214E9829F011214E98FA0011266
:1030B30014E9F2A0011214E93AA2011214E9A8A436
:1030C300011214E93AA6011214E9C7A6011214E980
:1030D300E6A7011214E973A8011214E97DA80112ED
:1030E30014E9A5A8011214E945A9011214E930AAAB
:1030F300011214E9FDAA011214E91AAB011214E931
:1031030043AB011214E970AB011214E9B7AD01121C
:1031130014E986AE011214E9C5AE011214E947AFF2
:10312300011214E9E8AF011214E91AB0011214E90B
:1031330061B0011214E994B0011214E9D8B001127C
:1031430014E927B1011214E92CB1011214E988B171
:10315300011214E9CCB1011214E9A6B2011214E967
:103163000BB3011214E971B3011214E9ECB30112A8
:1031730014E954B7011214E957B8011214E9D5B987
:10318300011214E9EBBC011214E98DBD011214E91B
:10319300D6BF011214E991C0011214E9D0C0011283
:1031A30014E9A8C2011214E9C5C2011214E9CEC27E
:1031B300011214E9D7C2011214E9E2C2011214E99F
:1031C30001C3011214E9A5C4011214E902C50112D5
:1031D30014E90CC5011214E916C5011214E975C5E9
:1031E300011214E9BFC5011214E9C0C6011214E9A2
:1031F30017C7011214E928C8011214E971C8011292
:1032030014E92BC9011214E942CA011214E917CBBC
:10321300011214E95ECC011214E962CD011214E922
:103223005BCE011214E973CE011214E9AACE011286
:1032330014E9B4CE011214E9BECE011214E9C9CEC9
:10324300011214E9E7CE011214E92FCF011214E998
:103253008DCF011214E9B4CF011214E9C6CF0112C4
:1032630014E97BD0011214E9B4D0011214E9D6D1C8
:10327300011214E929D2011214E90FD3011214E93E
:1032830036D3011214E9A6D3011214E922D4011290
:1032930014E97ED5011214E9A5D6011214E967D702
:1032A300011214E935D8011214E9F3D8011214E913
:1032B300DBD9011214E985DA011214E9EDDA0112FE
:1032C30014E9A2DB011214E9FEDB011214E956DC56
:1032D300011214E91CDD011214E93FDD011214E9A6
:1032E300FADD011214E91CDE011214E97DDE01127C
:1032F30014E9ADE0011214E9A6E1011214E952E266
:10330300011214E973E4011214E9BCE4011214E993
:1033130007E5011214E963E5011214E9C1E501129D
:1033230014E9E5E5011214E909E6011214E93EE6A0
:10333300011214E966E6011214E9ABE6011214E97D
:10334300FFE6011214E958E7011214E952E80112E9
:1033530014E9F0E9011214E935EA011214E95EEA0D
:10336300011214E9E7EA011214E95AEB011214E914
:1033730068EB011214E98CEB011214E9E2EB011280
:1033830014E9FDEB011214E9B8EC011214E9E4ECC1
:10339300011214E927ED011214E98AED011214E96F
:1033A30098EF011214E9C4EF011214E97FF001123E
:1033B30014E963F1011214E9F7F1011214E9DCD302
:1033C300051214E914D4051214E935D4051214E9CD
:1033D30077D4051214E9DBD4051214E9E5D40512F8
:1033E30014E9F5D4051214E92CD5051214E9D5D83E
:1033F300051214E99DDA051214E981DC051214E9BA
:1034030023DD051214E9ADDD051214E9A141001213
:1034130014E94A42001214E92943001214E935441D
:10342300001214E95544001214E97745001214E917
:103433002747001214E99447001214E96548001263
:1034430014E96B49001214E9E349001214E91E4A16
:10345300001214E9774A001214E9B24A001214E97F
:10346300FB4A001214E98F4B001214E9254C001299
:1034730014E9FA4C001214E9CD4D001214E95B4E25
:10348300001214E9814E001214E9AE4E001214E941
:10349300DF4E001214E9AC4F001214E9BC4F0012C6
:1034A30014E90F50001214E91C50001214E92950BA
:1034B300001214E93250001214E99650001214E974
:1034C300F450001214E93F51001214E95A5100124A
:1034D30014E98151001214E99E51001214E9AA5112
:1034E300001214E93B53001214E95453001214E977
:1034F300D053001214E9E353001214E9F3530012FA
:1035030014E99754001214E90356001214E91657EC
:10351300001214E9B657001214E9C057001214E957
:103523003F58001214E95058001214E98F58001242
:1035330014E9BD58001214E98A59001214E9E1593B
:10354300001214E91A5A001214E9705A001214E90D
:103553008E5A001214E9DC5A001214E9A75B001218
:1035630014E9F55B001214E9425C001214E9C55C2E
:10357300001214E9EF5C001214E9255D001214E94E
:10358300345D001214E9935D001214E90B5E00121E
:1035930014E94C5E001214E99C5E001214E9C75E44
:1035A300001214E9E15E001214E9FB5E001214E953
:1035B300D05F001214E9DA5F001214E915600012FB
:1035C30014E92560001214E97660001214E98A6098
:1035D300001214E9AC61001214E9C161001214E98C
:1035E3005462001214E9C862001214E96D630012F8
:1035F30014E97863001214E9DB64001214E9F76438
:10360300001214E94365001214E9B165001214E9CC
:10361300E365001214E9FD65001214E95D6600120A
:1036230014E9FC66001214E94767001214E99A6969
:10363300001214E9326A001214E9A96A001214E9AB
:10364300066D001214E91E6D001214E9216D0012BB
:1036530014E92D6D001214E9416D001214E9496D4E
:10366300001214E9806D001214E9746E001214E95B
:10367300FE6E001214E9806F001214E9007000124C
:1036830014E9D770001214E9F970001214E9927169
:10369300001214E9EF71001214E9F271001214E937
:1036A3006172001214E9AD73001214E9C0740012C0
:1036B30014E94B75001214E95E76001214E92577BC
:1036C300001214E95677001214E97C77001214E90A
:1036D3008577001214E9B477001214E964780012B4
:1036E30014E91479001214E98779001214E92A7A8B
:1036F300001214E99D7A001214E9DC7A001214E92D
:10370300257B001214E9BEFE061214E9A2FE06127E
:1037130014E997FD061214E90DFD061214E9ADFE36
:10372300031214E922FD031214E911FC031214E934
:1037330059FB031214E9C6F9031214E9E4F6031260
:1037430014E910F6031214E910F5031214E938BA58
:10375300071214E9E0B9071214E931F4031214E96A
:10376300D2D7071214E984B9071214E949B9071229
:1037730014E9B7D7071214E9CDFF051214E9F0FADB
:10378300061214E916FA061214E99CF9061214E952
:103793009FF8061214E96EFE011214E994FD01125A
:1037A30014E9CAFC011214E939FB011214E902FB02
:1037B300011214E9D4FA011214E988FA011214E986
:1037C300F1F9011214E961F9011214E93BF901124B
:1037D30014E9F0F8011214E9BAF8011214E93DF8FA
:1037E300011214E9D8F7011214E987F7011214E959
:1037F300AFF6011214E91FF6011214E9D3F5011211
:1038030014E94EF5011214E909F5011214E9BBD1CB
:10381300071214E9EDF4011214E955D1071214E962
:10382300D2D0071214E9D1D4071214E96BD40712CA
:1038330014E956D4071214E946D4071214E976D8CA
:10384300071214E9FD7F001214E995F3011214E93C
:1038530067F3011214E934F3011214E9B8F2011207
:1038630014E98ED3071214E9B8EC061214E91DEB20
:10387300061214E92BEA061214E959E9061214E9AF
:1038830083D3071214E991D3051214E997F50212B1
:1038930014E938D3051214E903D3051214E9CED27F
:1038A300051214E99AD2051214E92DD2051214E96E
:1038B30015D2051214E9F0D1051214E9C1CE05128F
:1038C30014E994CC051214E994CA051214E91ACA2E
:1038D300051214E9CBC9051214E985C9051214E9C7
:1038E30027C9051214E93A86061214E98D850612D2
:1038F30014E9E5D2071214E99E84061214E904833D
:10390300061214E9C780061214E90080061214E9AE
:1039130043DA0200000080FBE4738F000100D81B30
:1039230087000100A61E350004006A1E2500020060
:103933006E1E26000200701E27000200721E280061
:1039430001007C1E290001007D1E840004007E1EF0
:1039530086000100821E2A000100831E2B00010045
:10396300841E2C000100881E2D000800C01B2E00A1
:103973000100891E2F0001008A1E300001008B1EEA
:10398300310001008C1E32000100C81B330001000E
:10399300C91B340001008D1E36000100CA1B38000C
:1039A30001008E1E39000100871E83000200A41E41
:1039B30063000100D51B64000100851E6500010042
:1039C300861E6D000100D61B71000800B81B66003F
:1039D3000100A31E43000100941E44000200951E33
:1039E30045000100971E46000200981E470008008C
:1039F300CD1B480001009A1E4B0001009B1E0400D2
:103A03000100A71EA1000100AA1E37000100A91E84
:103A130088000100A81E3C000100CB1B3D000100F3
:103A23008F1E490002009C1E67000100D71B4D003A
:103A330002009E1E4E000100A01E4F000200A11EA8
:103A43003E000100931E51000100901E5200010030
:103A5300911E53000100921E54000100CC1B000074
:103A6300000000000000000020012F85000001007D
:103A730020012F8500000200200132850000030091
:103A8300200130850000040042016D800000050024
:103A930042017E80000006004201A0800000070072
:103AA3002001AB800000100042018F800000110054
:103AB30020016308000000404201A0800000008054
:103AC3004201D2810600000010110000070000002F
:103AD30030330000070010003033000007000140BE
:103AE30020330000070002402033000008000000DC
:103AF300203300000C005500393300000C001C007B
:103B030042330000120055002101000014000E0092
:103B1300422200000004000021040000020400000F
:103B23002904000003040000290400000504000028
:103B33002904000000000001E63802E63803E638F5
:103B430004E63805941E060000071E3708302200DD
:103B530000000A00000B24228C7E370D00000EE6C5
:103B6300380FE63800000000000000000013442373
:103B730000000015C01C16C01C9744231800001930
:103B830096221A96221B26239CBA199DBA191EC087
:103B9300229F683820582421063722141D237E379C
:103BA300000000000000A60022270000A8EE212943
:103BB30004242A4819AB24222C3A24AD3A242E009B
:103BC300002F000030DE220000003200003300002E
:103BD300340000350000360000370000380000B91B
:103BE300BA193A00003B000000013636010100011A
:103BF30002010001030100010401060605020000A1
:103C0300070100340801000F090401010D0100FF41
:103C13000E08000017020000190100FF1A0100013D
:103C23001B0100FE1C0100081D0200001F01000112
:103C330020010001210200002301000F24020000E3
:103C43002601000127010008280200FF2A010007BE
:103C53002B0102402C0100002D0100012E01000167
:103C63002F0100FF30010B1D310800003A0100084D
:103C73003B01000F3C0100013D0100FF3E04000039
:103C830042040000460400004A0400004E04000001
:103C930052040000560400005A0400006A00780031
:103CA300EC23F223F8236C00F00098239E23A42333
:103CB3006B00F000B023B623F8236600F000B023B6
:103CC300B623F82367001400C223C823CE23690058
:103CD3001400D423E023DA23EE22E8035C237A23BF
:103CE30074236400010000000000922363000100BC
:103CF30000000000922362000100000000009223F4
:103D03006100010000000000922370000100000028
:103D13000000922301037103010301030103010363
:103D23000103220302030103100300030003000342
:103D330000030003000300034203000324030603FC
:103D430000030003040312032503230325032303B2
:103D530004030403000300030003440300030003FC
:103D630023030003650321003503810300030503D7
:103D7300000300030003000325032303030471046A
:103D83000204600411047004020402040104020426
:103D930010046104000414046304730472046204D1
:103DA300430400041304060400040004040412047E
:103DB300000400040004000451046400000400042F
:103DC3000004440400040004000400046504000427
:103DD3003504810464000504000483040004030221
:103DE300710230016002110270020102020202023A
:103DF3008002100261023A00410063027302720200
:103E030062024302000213023800000200020402AD
:103E13001202000200020002000204020402370040
:103E230037003C024402000239000002000265022E
:103E330000023502810200020502820283020002AF
:103E430001017101010101011101010131010101AF
:103E530001018001100161013B0014006301730142
:103E63007201620143010001130106013D013500A6
:103E73000401120100010001000100010401040119
:103E8300330133013C0144013201360000010001DA
:103E930065010001350081010001050182018301F3
:103EA3000001030071003001600011007000310255
:103EB3002003500480001000610000001400630020
:103EC300730072006200430000001300060000004C
:103ED30000000400120000000000000000000400C5
:103EE3000400370037003C024400000000000000DB
:103EF300000065000000350081000000050000009F
:103F03008300000036000100060000000F000000DF
:103F13000000000000000000000003FFFF00000499
:103F230003FFFF0000FFFF0FF4010005C40403209B
:103F3300000100000B000000000000000003010F5F
:103F4300000000000000000000000000000000006E
:103F5300000000000000000000000000000000005E
:103F6300000060259C2566258E246C25A2256C25E2
:103F7300AE2572258E246C25A22578258E247E25D8
:103F83008E2484258E248A258E2490258E2496259E
:103F93008E2400000000000000000000000000006C
:103FA300000000000000000000000000000000000E
:103FB30000000000000000000000000000000000FE
:103FC300A22813004E281F0054281F805A280100DE
:103FD300A228020010390300DC270400E2270500B1
:103FE300E8270600F4273000122831000C2832009D
:103FF3001E283300242835002A28340030283600B0
:104003003628110042281400482815000628FFFF0F
:1040130000000A0000000200000004000000080085
:10402300000010000000200000004000000080009D
:10403300000000010000000200000004000000086E
:10404300000000100000002000000040000001A05C
:104053003006CA3008C4300BE23010B82D02A63047
:1040630005B83007AC300C88300D943064B42BFFA6
:10407300000007ECFDFDFDECDCDCCCBCACAC9C9C97
:104083008C7C7C6C6C5C5C5C4C4C3C3C2C2C1C1C1D
:1040930000160F00000B150B020002220F33000065
:1040A3000E5A6967426565416C6C69616E63653080
:1040B3003901030507090B0D0F00020406080A0C5A
:1040C3000D140AE5D5C5B5A5A595858575650001CA
:1040D3001916181616182303003030171819213033
:1040E3001B1D1F30303016181920231A1C1E3000D8
:1040F300393D3F373C3C362C442D00034A49434E5F
:10410300181A2505020C0E020B040B0A0708000FF0
:1041130002040201010101090200BE040AE80300CE
:1041230000000000000E00FA06C4407F00E803759B
:10413300401E00050810040400100C280908090398
:10414300010C050308151A0300FF0AFF0C04E00421
:104153001249D1A2E792AF22E4F0A3F0A3F022A385
:1041630012415BA3F0227F0C021216E0F508E4F57E
:1041730009F50AF50B227401F090051CE0640F2287
:1041830074091215197F04021216A3A3E024F5C3C0
:1041930094132290053C126CC17A147B0022C082D6
:1041A300C083901CF4746CF0A37434F0A3747EF099
:1041B300A37434F0901CF87454F0A37434F0A37413
:1041C3004EF0A37434F0A3748AF0A37434F0A37490
:1041D30090F0A37434F0A37484F0A37434F0A37444
:1041E3003CF0A37434F0901D047460F0A37434F0B5
:1041F300A37466F0A37434F0A3745AF0A37434F078
:10420300A37496F0A37434F0901D1512624E6006E9
:104213001264B81220F8901D1212597A7408F0A390
:10422300E4F0A3F0901DB5F0901D17F07C0BFDF9A1
:104233007A187B1D1220447C0B7D0079007A237B46
:104243001D12204402598374F7120E6274F712157B
:10425300FCEAFEEBFF1257A174051243177403F037
:10426300EE2402FAE43F1242F1242DFCE43FFD8CDC
:10427300828D8312442F1243006008124B7974FF1E
:10428300F0A3F0EE242BE43F1C1CFD8C828D83A352
:10429300E0C0E08A828B831257B2D0E012430088D9
:1042A300828983125FAA2403126A8B1222F674088E
:1042B3001218937403F090053112131D7402121532
:1042C300DE7903EEFAEFFB1236287402121519E9B0
:1042D300F5087007EEFAEFFB12350EA90874090210
:1042E3004B89F582E43FF5831276F6125F9FFB8AD2
:1042F300828B8312430FE8F0A3E9F0EE22126CDF06
:1043030012430FE8F0A3E912725BE0221243FA8A28
:10431300828B8322F0A3E4F012431F22EE240DF5D7
:1043230082E43FF5832274F1120E62EAFEEBFF8C06
:10433300088D09890A1244048A828B831243FA7412
:104343000F12189312441DE824FF18E934FFF9886B
:10435300828983E50A12440F90053612440C9005B6
:104363003512440C741112189312441DEE2404FCEC
:10437300E43FFD880B8A828B83E0F50C8C828D836E
:10438300E0250CC3950B126CDBE8F0A3E912570E82
:10439300A3A3A3A3A3A3A3A3E064037008125A6A6D
:1043A300F0A3E4800312471012431A7409F0750C4A
:1043B30018750D1D750E00780C12150212470412A4
:1043C30020387403121519750CFF750DFF780C1244
:1043D3001506AC08AD097903EEFAEFFB1236287423
:1043E30002121519E9F5087007EEFAEFFB12350E04
:1043F300A9087F07021216E024FFF8A3E034FFF9AF
:1044030022EE2402FAE43FFB2212442F1244132229
:10441300F0E824FF18E934FFF922E0F50CA3124475
:104423002F12441388828983E50CF022E088828965
:104433008322C082C083901D34E0C3940840047477
:10444300078001E08A828B83F033333354F8F90217
:10445300598374F0120E62EAFEEBFF890C8C0E8D09
:104463000F750A00A2AFE433F50BC2AF901D2E8087
:104473003F12453D503712454E64037030EE24F928
:10448300FEEF34FFFF850882850983A3A3E024059B
:10449300FCA3E03400FDEEFAEFFB1222F6EE24FF5C
:1044A3001EEF34FFFF7410250AF50A150C1256DBB4
:1044B3001276F2E50C6006E508450970B4E50BA237
:1044C300E092AFA2AFE433F50BC2AF901D2E802C68
:1044D3002402FAE43509FB8A828B83126CCA240610
:1044E300F582E438F58312455B8A828B8312454358
:1044F300A3A312455B050A150C1256DB1256F06096
:104503002212454E640270F112453DE50840C11286
:10451300483EA2E550E3850E82850F837401F0E5E2
:104523000C70D6E50BA2E092AF8E828F83E50AF082
:10453300EE24FFFAEF34FFFB8035124849A2E6224E
:10454300124547221270BFA3A3A3228508828509BF
:10455300831270B91266F322E08E828F83F0EE2409
:10456300FF1EEF34FFFF221236F474041215197F75
:104573000802121674EC120E6274F51215FC8913FC
:104583008A128B0F851882851983E4F0041215D6DD
:1045930012341EE9F890051BE0292434F508FA7B50
:1045A300001220568A0A8B0BAE0AAF0BEE4F700334
:1045B3000246F8EE2402F50AE43FF50BA808EE28BC
:1045C300F8E43FF9850A82850B831242F92404F546
:1045D30010E43FF511851082F583E4F090051BE0AC
:1045E300FCF8C3E498F895E0F9850A82850B83E02B
:1045F30028F508A3E039F509900519126983750EAA
:1046030000780C1215027D00AA08AB091220387439
:1046130003121519AC18AD197401121893E0F9E5DA
:104623000824FFFAE50934FFFB1234248A828B83C2
:10463300E4F0EA24FFF508EB34FFF509E50FC45471
:10464300F0F9901DB6E0C4333354C0F8900515E07B
:10465300A2E0E43313134849440F124718E512C488
:1046630054F04513850882850983F0A808850A82DA
:10467300850B83E0FA851082851183E02AC398F0C5
:10468300850A82850B83E8F0A3E509F0124710122F
:10469300431AE4F0740A121893E4F07508237509B9
:1046A3001DF50A7808121502124704122038740304
:1046B300121519851882851983E06009EE240E12FC
:1046C30058374408F0123610E9F9E4F508F509788B
:1046D3000812150674041215DEEEFAEFFB123628E3
:1046E3007402121519E97006EEFAEFFB800BEEFA6D
:1046F300EFFB12205C7A007B00740B121519024148
:10470300697C0B7D00EE2418FAE43FFB221257A5C7
:10471300E4F0A322E085088285098312472222F070
:104723001269572274F3120E628A0A8B0BA2AFE44A
:1047330033F50CC2AF750800750900901D2E802C4F
:104743001249655024850A82850B83A3A3127B1F1C
:104753008E828F83A3A31264BB123616E9600A12FA
:10476300478BC2E6F08E088F0912495A124C137018
:10477300CFE50845096006124845D2E6F0E50CA2EC
:10478300E092AF7F0502121612478F22126970E082
:104793002274F0120E62EAFEEBFF8C0C8D0D750E87
:1047A30000A2AFE433F50FC2AF750800750900909E
:1047B3001D2E8020850A08850B09124845D2E4F096
:1047C300E50812483ED2E7F0E50A24FBF582E50B43
:1047D30034FFF583E0F50AA3E0F50BE50A450B602A
:1047E30043E50A1255C6350BF583E0A2E750D98598
:1047F3000A82850B83A3A312131DAC0CAD0DEEFA35
:10480300EFFB12361C7402121519E960BBE508456B
:104813000960A1E508240D1248516401700612488D
:104823005AD2E4F0E50FA2E092AFE508450960062D
:10483300123508750E01A90E0245721255F0124881
:10484300542212484922E508241112485122F582C4
:10485300E43509F583E0228508828509831270B95E
:10486300E02274F2120E6274FE1215FC750C0075D0
:104873000D00851882851983E4F0A3F0A2AF33F508
:104883000AC2AF901D2EE0FEA3E0FF8035EE24FBAD
:10489300F582EF34FF1276F0780C121506EEFCEF7A
:1048A300FD7A2E7B1D12208C7402121519EEFCEF7B
:1048B300FDAA18AB1912207AAE08AF09901D34E097
:1048C30014F0EE4F6027124965501DEE240BF8E4F7
:1048D3003FF988828983E024FFF0A3E034FFF08866
:1048E30082898312624E60A51249568099E50AA215
:1048F300E092AF901D34E0603190051CE0640F60DE
:1049030006901DB5E070237A0C7B1D12370090854D
:10491300151213197A0C7B1D1236F474041215192F
:10492300800874F0125BA11234FCAA18AB19122090
:10493300808A0A8B0BAE0AAF0BEE4F601312343032
:1049430012478BA2E28E828F83A350D674E980D460
:10495300024C1B8E0C8F0DEE24FBF582EF34FFF51A
:10496300832212478FA2E72274F7120E62EAFEEB4C
:10497300FF1234301257AF12391BE9640190053826
:10498300700AE02401F8A3E034008004E0F8A3E017
:10499300F9125DFD1261A6901D34E0702190051C93
:1049A300E0640F70197A0C7B1D1237009085151285
:1049B30013197A0C7B1D1236F47404121519A9A865
:1049C300C2AF901D34E0041249D1A2E7800DF0E993
:1049D300A2E7E433F8E922E508A2E092AF025C3DE6
:1049E30074F7120E62EAFEEBFF124A18F01234302B
:1049F300EEFCEFFD7A2E7B1D122086A9A8C2AF9094
:104A03001D3412415190051CE0640F7005790812A2
:104A130035C8025C3D12478FC2E42274F7120E625E
:104A230074EA1215FCEAFEEBFF900515E060408581
:104A330018828519837401F0121893E4124AF01254
:104A43001893AA82AB831222F68E828F8312486058
:104A5300C0E0740A121893D0E0126CF0740B1218B1
:104A630093AA82AB83123640AA18AB19122A947404
:104A730016024B8974F7120E62EAFEEBFF12341230
:104A8300E9F974DC69601E74DD69601974E46960B6
:104A93001474F369600F74DE69600A74DF6960057A
:104AA30074DB697007EEFAEFFB1235CE025C3D74DE
:104AB300F7120E6274EB1215FCEAFEEBFF85188207
:104AC3008519837406124AF0121893AA82AB8312D3
:104AD30022F6126CF5740A121893AA82AB8312366B
:104AE30040AA18AB19122A947415024B89F0EE24CC
:104AF30013FCE43FFD74022274F7120E6274F71282
:104B030015FCEAFEEBFFEE242D12583760651253B5
:104B1300C8AA18AB191222F674081218937403F07A
:104B230090053112131D124B7912131D900544E0A9
:104B3300F974041215DEEEFAEFFB12341874041242
:104B43001519E9F974DC69602374DD69601E74E486
:104B530069601974F369601474DE69600F74DF6946
:104B6300600A74E869600574DB697007EEFAEFFBAD
:104B73001235CE0242E0EE124B7E22242BF582E464
:104B83003FF583227403121519025C3D74F2120E71
:104B9300628A088B09750C00750D00750AE7A2AFD0
:104BA300E433F50BC2AF901D2E8003124956124C0D
:104BB30013603512496550F3125834640170ECEEFA
:104BC300242FF582E43F124DC2E06870DE780C12A8
:104BD3001506EEFCEFFD7A2E7B1D12208C7402125B
:104BE3001519901D34E014F0E50BA2E092AFEE4FDF
:104BF3006013EEFAEFFB12343079F0EEFAEFFB12AA
:104C030035CE750A00A90AAA08AB091235CE800D64
:104C1300E0FEA3E0FFEE4F2274021215197F060295
:104C2300121674F4120E6274F71215FCEAFEEBFF0F
:104C33008E828F83A3E064F37003024CCF8E828F46
:104C430083A3E064DF7003024CCF8E828F83A3E0E3
:104C530064E860788E828F83A3E064DB606E123435
:104C630072E9F508705EEE240E1258376056124C46
:104C7300D91234BAEA4B604C7408121893124CE3FD
:104C830012131D7508FF7509FF78081215068E8229
:104C93008F83A3A3A3A3A3A3A3A3E0F9740412156F
:104CA300DE1234187404121519E9F50874F3650853
:104CB300601274DF6508600C74E86508600674DBD5
:104CC3006508700F8E828F83A3E508F0EEFAEFFB81
:104CD30012347E024183EE240FFAE43FFB7909226A
:104CE30074021274B874FFF0A3124CF022124CF445
:104CF30022125FB3A3A32274F5120E628A088B09F2
:104D03007E008A828B83A3A3A3A3A3A312418D4016
:104D1300027EE88A828B83A3A3A3A3A3A3A3A3A353
:104D2300A3E0C3941040047EE880138A828B83A39C
:104D3300A3A3A3A3A3A3A3A3A3E0640F600A901D4B
:104D430092E0540870027EE8EA240BF582E4350908
:104D5300124DC2A3A3A3A3A3A3A3A3E0C398500C80
:104D6300EA240B124851640F60027EE8900535E097
:104D7300F47003A3E0F470027EEC7A237B0012202C
:104D8300F2901D151264CB901D1512624E60298599
:104D93000882850983A3A3A982AA8389088A09753E
:104DA3000A0078081215027C237D001264B81220D1
:104DB30038740312151980027E1AEEF9027659F53A
:104DC30083E0F88A828B83A3A32274F5120E62EA2E
:104DD300FEEBFF8E828F83A3A3A3A3A3A3A3A3E0CE
:104DE30090051C12739B900537127381900517125F
:104DF30073A0901DB6F0F9121B28901DB6E0601841
:104E0300EE2404FAE43FFB7950121B10EE2406FA59
:104E1300E43FFB79E1121B10901DB5124179600448
:104E2300740180027400901D171273871215027C9F
:104E33000B7D007A187B1D1220387403121519EEAE
:104E43002418F508E43FF50978081215027C0B7D58
:104E5300007A237B1D02765174F7120E62EAFEEB91
:104E6300FF8E828F83A3E070061264B81234788EAB
:104E7300828F83742C125BA11235DA025C3D74F7C6
:104E8300120E62EAFEEBFF901D1512624E600D12C8
:104E930064B8901D15E4F0A3F01220F88E828F837E
:104EA3007408125BA1122A94025C3D74F6120E621E
:104EB300901DB5E06013901D17E0700D124ECF12D8
:104EC300342AEA4B600312350E026FFB900517E09C
:104ED300FB900537E0FA90051CE0F92274F4120EFA
:104EE3006274E71215FCEAFEEBFF750B018E828FED
:104EF30083A3A3A3A3A3A3A3E0A2E25068EE242B5E
:104F0300F582E43F127B1D124F9D123436E9705532
:104F1300908359E064017005750B008048124FA51A
:104F23001215027C0B7D0074111215D612203874F1
:104F330003121519123610E9FA740E1215CE8808E9
:104F43008909780812150675083075090078081262
:104F53001506124B7912131D126C91790112362E1C
:104F630074061215198518828519837410124AF074
:104F7300121893AA82AB831222EA124B79126CBDE8
:104F8300740B1218931261A6740D121893E50B1289
:104F93005A14122A947419024185EE2413FAE43F39
:104FA300FB22EE240812738F22C082C083901DB6A9
:104FB300E06003123682025983C082C083901DAD24
:104FC30074F4F0A3741CF0A374F8F0A3741CF0A39E
:104FD3007404F0A3741DF0901ECE747FF0A3743D8F
:104FE300F0901D97740CF0A37434F0901D39744243
:104FF300F0A37434F0901D3B7448F0A37434F09024
:105003001D92E044028001E4F0025983C082C08310
:10501300EAFCEBFD790302601FC082C083EAFCEB6C
:10502300FD790502601FC082C083790802718CC0BC
:1050330082C08374FE1215FC901D4174F6F0A374B4
:1050430034F0901D4374F0F0A37434F0800D7A2E85
:105053007B1D122080125A0A1235FE901D2E1262F9
:105063004E70EB901D3012624E600F7A307B1D1232
:105073002080125A0A1235FE80E9901D2EE4F0A317
:10508300F0901D3412415C740280027411121519E0
:1050930002598374F6120E62E9FF74F229F582E471
:1050A3003440F583E493FEFA7B00122056EA4B600A
:1050B30011EA2E12619C8A828B83A3A3A3A3E4F03B
:1050C300802C7A027B00122056EA4B601D74DC2F81
:1050D300F582E43440F583E4938A828B83F0A374EE
:1050E3001AF0901D8DE0F91220627A007B00026FA6
:1050F300FBE9FC740629F8EAA2E0501EE875F00A01
:1051030084E5F0F96014740A28C399F8E9C3940597
:105113004004740A28F8740B28F8ECC39413400471
:105123007A1480027A06EA2879002409F8500109E2
:105133007A0A7B00120AE3E8F90214E6C082C0830C
:10514300901D92E05402600A122A9AE960047901E0
:1051530080027900025983C082C083901D92E0547B
:10516300026016901D34E0700C12624B600BE0C8B5
:105173001256E85004790180027900025983C082F3
:10518300C083908356E0F8901D36E0C39850051213
:10519300205680047A007B00025983C082C08312A8
:1051A30035FE790002598374F7120E6274FE1215EC
:1051B300FC851882851983EAF0A3EB125319A3A384
:1051C300A3A3A3E0600A14606024FE606902529AFC
:1051D30090051CE0640F60181235D4E9701285182D
:1051E300828519831264BB901D3D1257B212391B7D
:1051F300900544E0C0E0851882851983125F7DD055
:10520300E012531974141274B4127B1F7A307B1D8D
:1052130012207AA8A8C2AF901D36E0041264D17997
:10522300201235C87402024B8985188285198312AE
:1052330070C1741580D08518828519831252FCA31E
:10524300A3E06053851882851983E02402F8A3E064
:105253003400F9888289831278F2E0C0E0851882ED
:10526300851983E0FCA3E0CC2406F582E43CF583B6
:10527300D0E0126CFD888289831264CB8518828505
:1052830019831255E485188285198360131253011B
:1052930060051253094043AA18AB191235FE8084E6
:1052A30012530160F2125309501C1256F8FA851872
:1052B30082851983125303F874121261973441F5EE
:1052C30083E4936A601485188285198312530164F9
:1052D3000870C41256F8640870BD1256F8141253BD
:1052E30021240AC0E08518828519831257B2D0E0C1
:1052F30012532104025209E0F8A3125FCA22E0F814
:10530300A3E012532822851882851983126CCE12CA
:105313005329C3940A22125333F5838882221253EA
:105323003312532822C82406F582E438F583E02299
:105333001274B8E0F8A3E022C082C083901D451226
:10534300624E60081270C212391B80027900025942
:105353008374F7120E62EAFEEBFF12431F7401F02F
:10536300EE2430F582E43FF583126A2B1242F924CE
:1053730032125837C0E0EE2413F582E43FF583D0B0
:10538300E0F0EE2433125837C0E0EE2414F582E443
:105393003FF583D0E0F0EE242CF582E43FF5831251
:1053A300131D1253C8EE242E125837F912362874DF
:1053B30002121519E9F5087007EEFAEFFB12350E24
:1053C300A908025C3DEE2423FCE43FFD22C082C019
:1053D300831235D4E960047920800279010259836C
:1053E300C082C083EA1255C6125487D2E002500B22
:1053F300C082C0831254816401701112548C400C1A
:105403008A828B83A3E0F91235CE806FEA241012CF
:105413005484A2E650128A828B83A3E0F9901D3F45
:105423001257B212391B80531254816401700D124A
:10543300548C50088A828B83743080368A828B83A3
:10544300A3E0641B8A828B83700474228024A3E00C
:10545300700D125481F874E71261973440800B1277
:105463005481F874DC1261973440F583E4938A82A3
:105473008B83F0901D8DE0F9122062025983EA2498
:105483000DF582E43BF583E022EA1255F03BF58308
:10549300E0A2E32274F7120E62E9FE12624B70037C
:1054A3000255BDEE6011741B6E7013E0C81255C037
:1054B300640570030255881270B1E402558C74E9D7
:1054C3006E70621255DC700B122AA0E9600512554A
:1054D300F6606279EE121A8C901D371255D9901D21
:1054E30037603B1255F9901D37700B1255D914F0E4
:1054F300121C540255BD1255E4C2E712570412554B
:10550300C06403700C126CC71255C612532ED2E23C
:10551300F079ED121A8C1255CC12391B807512706A
:10552300B474E9806474E16E703E122AA0E9605598
:105533001255F6705090053EE0C0E0126CC724127D
:10554300F582E438F583D0E0F090052DE0C0E090DB
:105553001D371252FA1252FAD0E0F090052DE004F2
:10556300F07901121C3C8052741C6E7018901D3728
:105573001264BB901D471257B212391B901D37E4BA
:10558300F0A3F080351270B1EEF0901D371264BBBA
:105593001234FC126CC7126C99E0548060109005B1
:1055A30044E0F9121B4C900543E0F9121B40901D97
:1055B30037E4F0A3F079101235C8025C3D240D12D4
:1055C300532B222411F582E422901D371264BF90DD
:1055D3001D3B1270BB22E0F8A3E0C8241212532B28
:1055E30022E0F8A3E0C81255F012532E222410F53E
:1055F30082E422901D37126CCE126C9DE05404227B
:1056030074F4120E62750A00750B00A2AFE433FF47
:10561300C2AF12624B60030256C01257AF12391B5E
:10562300E94410F8901D2E800985080A85090B129C
:1056330056DB1256F070030256C012484558687084
:10564300E8780A121506AC08AD097A2E7B1D1220E4
:105653008C7402121519901D37E508F0A3E50912A1
:1056630057041256E8405D901D35E014F0EFA2E0B8
:1056730092AF901D37E0240EF8A3E03400F98808B8
:1056830089098882F5831264BB901D371256FEF98F
:105693001234C0E9901D32F012570CE05480901D73
:1056A300376026126CCA241312532BF9121B4C12A7
:1056B3006CC7241412532BF9121B408018EFA2E07D
:1056C30092AF8011901D3480A11255E4A2E1B3E49E
:1056D30033F9121C3C024188E50824FBF582E509F5
:1056E30034FFF58322241112532BA2E7221276F6FC
:1056F300E508450922851882851983124547A3E0E9
:1057030022F0901D37126CCE22A3E4F08508828527
:1057130009832274F7120E62EAFEEBFF1235F8EEEC
:105723002410125837A2E3400C1258346401700558
:105733009083548003908355E0F9EEFCEFFD7A2EBD
:105743007B1D122092E96046EEFAEFFB901D411299
:1057530057B212391BEE240E12583754047020A886
:10576300A8C2AF901D35E0041264B1FAE8A2E79233
:10577300AF1257A1A3E054017021123508801CEE2B
:10578300FAEFFB901D391257B212391B800D8E822E
:105793008F83A374F1125BA11234FC025C3D125798
:1057A300A522EE240EF582E43FF58322901D4312D9
:1057B30070BB22C082C08312350802598374F7126A
:1057C3000E62EAFEEBFF7900901D92E05402700C2A
:1057D300EE24301258375404600279E8901D92E0A9
:1057E3005460700CEE24301258375402600279E88A
:1057F3008E828F83A3A3A3A3E0F890835AE0C39878
:10580300500279E8EE242E125837700CEE242B1236
:105813005837700479F5800BE970051234EAE9F919
:10582300E96007EEFAEFFB1235CE025C3D34FFF57B
:1058330009EE240DF582E43FF583E022C082C083A4
:105843008A828B83740DF0122A94025983C082C01A
:10585300838A828B83E4F0A3F0EA243012548454C5
:10586300049083547012E0F8901D35E0C398401201
:1058730079F11235CE025983E0F8901D34E0C398D4
:1058830050EE901D8DE0F912206280E974F6120E3D
:1058930062E9FE244CFAE43400FB122056EA4B6022
:1058A30012EE8A828B83A3A3A3A3F0EA244C126192
:1058B3009C80047A007B00026FFBC082C083901D32
:1058C300497456F0A37435F0A37486F0A37435F0CD
:1058D300A3745CF0A37435F0A37462F0A37435F081
:1058E300A37480F0A37435F0A37474F0A37435F03B
:1058F300A3746EF0A37435F0A3748CF0A37435F025
:10590300A37492F0A37435F0A37498F0A37435F0E4
:10591300A374A4F0A37435F0A37468F0A37435F0F2
:10592300A37450F0A37435F0A3744AF0A37435F054
:10593300901D65747AF0A37435F0A3749EF0A3747C
:1059430035F0A374B8F0A37436F0A374AAF0A3746B
:1059530035F0A374B0F0A37435F0901D89E4F09092
:105963001D8CF0901D7512597A7402F0901D7E12F1
:10597300597A740102500B74C8F0A37435F0A32252
:10598300D083D0820214E674F5120E6274F11215FC
:10599300FC8518828519837402F07401121893E947
:1059A300F060047AFF7BFF74021218931264CB75C4
:1059B300088175091D750A0078081215027C0B7D94
:1059C300007407121893AA82AB831220387403124F
:1059D3001519AA18AB19122A94740F02765674F784
:1059E300120E6274FD1215FC851882851983740AE0
:1059F300F07401121893E9F07402121893EA125A20
:105A030014122A94024B87851882851983EAF0A31E
:105A1300EBF0AA18AB192274F6120E6274F7121582
:105A2300FCEAFEEBFF125A6A1243177402125B92EE
:105A3300AA18AB191222EAEE242E1242E5243012E0
:105A43006A9812150674021215DE79831A1AEFFB8F
:105A53001236287402121519E9F5087007EEFAEFE9
:105A6300FB12350E026FF41257A574012274F01263
:105A73000E6212753F1218247808790C120CFB7809
:105A8300081214FE7A787B1D02456A74F4120E62C2
:105A930074C61215FC90051CE0640F601085188213
:105AA300851983742E125A141235DA80277A6F7B84
:105AB3001D123700124196120AEB88088909E4F592
:105AC3000AF50B78081214FE7A6F7B1D1236F474F4
:105AD30004121519743A02418574F5120E62EAFE36
:105AE300EBFF8E828F83A3E0F86003025B7BEE24DF
:105AF3002D12583764026007E06403600278E8EE11
:105B03002423F582E43FF58312418F400478E88033
