:020000040000FA
:060000000216E0020A34C2
:03001300020A5688
:03002B000214714B
:03003300020C7E3E
:03003B00020AAB0B
:0300530002096936
:03005B000211E3AC
:0300630002120482
:03006B00020C2460
:03007B00020C551F
:100083000209C8010020FD000201AE0500000001C5
:10009300DC1CEE1C0000F41CFA1C00000000001D18
:1000A300181D1E1D241D0000000000000000010299
:1000B3000408102040800801FF0D01010401FEFF28
:1000C3000000000000000006FFFFFFFFFFFFFF012D
:1000D30001010400E41A000000E8030000FFFF5CD4
:1000E3001BE803000064006400B801A0BB0D00A07E
:1000F300BB0D00020200F8FF0705021E0401051EE6
:1001030002051E020A0A01010808010310270280E2
:100113003E0102FEFFE8030A050001FFFF010A1486
:1001230001E0C503423F1A51123FF304B53F0000FB
:10013300803E010105030101FF0F10FEFF013B009B
:10014300000000993A00000000FF000000FF00C01B
:1001530082C083E9FA5407F8745528F582E4341E03
:10016300F583E0F87900EA1202F7600814600914D5
:10017300600D8012E5808002E5905870078007E5E6
:10018300A0586002790102025FC082C0831203900B
:10019300600814601214601C802BEA6005EB428037
:1001A3008023E85280801EEA6005EB42908016E8C7
:1001B30052908011EBC39420500BEA6005EB42A0F0
:1001C3008003E852A002025FC082C0831202FD7066
:1001D3000302025F1202F6600814602C1460508060
:1001E3007BE852F374016A601274026A6015740446
:1001F3006A7003EB428FEB42FD806153F7DFE852F5
:100203008F80F343F72080F6E852F474016A60129A
:1002130074026A601574046A7003EB42F6EB42FEE3
:10022300803A53F7BFE852F680F343F74080F6EB8A
:10023300C394205027E852F574016A601274026A6D
:10024300601574046A7003EB42F7EB42FF800D53B1
:10025300F77FE852F780F343F78080F6D083D082AC
:1002630022C082C0831202FD60791202F660081474
:10027300602B14604E806CE852F352FD74016A6087
:100283000F74026A600F74046A7058EB428F8053D4
:1002930053F7DF800343F720E8528F8046E852F498
:1002A30052FE74016A600F74026A600F74046A700C
:1002B30032EB42F6802D53F7BF800343F740E852F9
:1002C300F68020EBC39420501AE844E0F852F5522C
:1002D300FF74016A601074026A601374046A700325
:1002E300EB42F702025F53F77FE852F780F543F7DB
:1002F3008080F6E9C4540F54032212039AEB22C000
:1003030082C0831202FD603A1202F6600814601282
:1003130014601C802DEA6005EB42FD8025E852FD48
:100323008020EA6005EB42FE8018E852FE8013EB62
:10033300C39420500DEA6005EB42FF800574E0484A
:1003430052FF02025FC082C08312039060081460F0
:10035300151460228034EA6005EB42808003E85282
:1003630080EB42FD8024EA6005EB42908003E85273
:1003730090EB42FE8014EBC39420500EEA6005EB31
:1003830042A08003E852A0EB42FF02025F12039AED
:10039300E9C4540F540322E95407FC74552CF58225
:1003A300E4341EF583E0FBF4F8221202F66007142E
:1003B3006013146020227801E8F4FBEA60201460E3
:1003C3002114601522740F59C394045004780280D9
:1003D300E7780480E3780880DFE58C586004EB520B
:1003E3008C22E8428C221216F0601D1216FF700553
:1003F300191919801A121581701F121559C3700328
:10040300E6673319191940071818182208080874E1
:10041300FFF618F618F618F6221215596017121778
:10042300A5702192F01217AE7019501720F014081E
:100433000808090909E7F61819E7F61819E7F6187D
:1004430019E7F6221217AE60E6E869701F0808E69E
:100453002480F608E436F618547FB47F0CE6548003
:100463006007F6E418F618F622181822E9C6CC0835
:10047300C6CD08C6CE08C6CFC0E0E8C0E0EAC0E0FB
:10048300EBC0E009E9F809E7FA09E7FBE6F918E642
:10049300F8C3EC98ED99EE9AEBC2E7F5F0EFC2E7FB
:1004A30095F0500E600CEBCFFBEACEFAE9CDF9E8FC
:1004B300CCF8EAA2E7D2E7FAEB33FB13F5F0EEA2AE
:1004C300E7D2E7FEEF33FFC5F013A2E730E601B34F
:1004D30013C5F0C3C0E0C0F07F00C39BFB605E9414
:1004E30018600F401D14601AD0E023F9D0E0F80221
:1004F30005CA8AF0E9486003D2F0E4AFF0FAF9F8EC
:10050300803BEB30E40D89F0EA6003D2F0E4AFF016
:10051300F9CAF8EB30E30D88F0EF6002D2F0AFF0E8
:10052300E4CAC9F8EB54076014FBC3EA13FAE913EE
:10053300F9E813F8EF135002D2E0FFDBEDD0E0C08F
:10054300E030E739C3E49FFFF5F0EC98FC42F0EDAF
:1005530099FD42F0EE9AFE42F0D0E0F9D0E0F8E5E2
:10056300F0607AE923F9EE20E742D8028067C3EF0F
:1005730033FFEC33FCED33FDEE33FE80EAEC28FC75
:10058300ED39FDEE3AFED0E023F9D0E0F8400280E9
:100593001BC3EE13FEED13FDEC13FCEF135002D25D
:1005A300E0FF08B800067F7F74FF802EEF335017FB
:1005B3008CF020F00260100CBC000C0DBD00080E86
:1005C300BE000408E860DFE933E813FFEE2313FEFF
:1005D3004F4D4C8008E95480FFE4FEFDFCEE33EF01
:1005E30033F47004FCFD7E80D0E0FBD0E0FAD0E071
:1005F300F8D0E0CFC618CEC618CDC618CCC6F9229F
:100603001216F07004181818221216FF700D74FFDA
:10061300F61819F61819F61819F622E7548066F633
:100623001217AE700F1217A570F014F608F608F63D
:1006330008F680D11217A5700CF608F60876800824
:10064300E6447F80EC12155C700C12158460BFE6E3
:100653005480F6E480BB121584700519191980A51E
:10066300E869700C763F18768018F618F6E8F922D8
:10067300E6CDC0E018ECC0E0E633CD33CDD313F6BE
:10068300E719FCE7191933CC33C3947F400ECD9D92
:10069300502408E65480F6E418F6800FF4043D1461
:1006A300501408E6447FF6187680E418F618F6D05E
:1006B300E0FCD0E0FD22CCD313CCFD18E4C6CBC0C4
:1006C300E018E4C6CAC0E00808ED08C633E613F62E
:1006D30018E433C675F003C3CA97CA09CB97CB197D
:1006E3009C40047D08802EBD00030207AC16B6FFB4
:1006F300050606081618C3CA33CACB33CB33CA2739
:10070300CA09CB37CB193CC37D08803E187D08202E
:10071300E75CC633C6CA33CACB33CB33DDF1D5F07E
:10072300EB30E77BCA97CA09CB974ACB199C406F3A
:100733004B7025E620E0218066187D08C3CA97CA5E
:1007430009CB97CB199CD3C633C6CA33CACB33CB99
:100753003350C9DDE7D5F0E1D3E4C636C608C63663
:10076300C608C636C608C636C61818188031C3CAA6
:1007730097CA09CB97CB199CB34097C633C6CA33E4
:10078300CACB33CB33DD34D5F02EC6A2E0C640C886
:10079300CA27CA09CB37194A70BECB3CB480B90803
:1007A30008E63308E633601F181818D0E0FAD0E0E3
:1007B300FBD0E0FCD0E0FD22187D08CA27CA09CB94
:1007C30037CB193CD3808013F618E4B67F11F618A3
:1007D300B6FF0EF618C60470D20808768080CAF6F3
:1007E30018F618F680C5001216F0604F1216FF6057
:1007F30012E7548066F612158170111217A5703B2B
:10080300090909F4F618F618F618F62212155970A4
:10081300151217AE08080860EAE6447FF6187680DA
:1008230018E4F618F6221217AE60161217A5701206
:10083300E4F608F608F608E65480F60909091818DC
:100843001822EAC0E0EBC0E0ECC0E0EDC0E0E687D0
:10085300F0A4FBACF008E687F0A42CFCE435F0FA36
:100863001809E687F0A42C4B60027401CA35F0FC2A
:10087300E433FB09E687F0D2F7A42CCB35F0FC195F
:1008830008E687F0A42BCC35F0FBE433FD0819E62A
:1008930087F0D2E7A42C4ACB35F0CD3400FC09E62F
:1008A30087F0D2E7A42DCC35F0FDE433FA0918E63E
:1008B30087F0D2F7A42CCD35F0CA3400FC08E687C4
:1008C300F0D2E7D2F7A42ACC35F07A7E20E70B0AE0
:1008D300CB33CBCD33CDCC33CC33CB3350147004AB
:1008E300ED30E00ED2F1E4CD3DCDCC3CCC3B500518
:1008F300DA05C2F1EB547FC63308E63392F0FBE727
:100903003309E733C39A502D2B70190C0D4C4D70DE
:10091300151806E608C333700D20F10AA2F013F68A
:10092300E418800B4024E4F630F002768018F618C1
:10093300F618F68024D33B14501074FFA2F013F67C
:10094300187680E418F618F6800FA2F013F618E66E
:100953003303F618ECF618EDF6D0E0FDD0E0FCD04A
:10096300E0FBD0E0FA22C0E074F1120E7AA2AFE409
:1009730033F509D2AF85A708AFA1EF5508FE741070
:100983005E60061219CA75A1EF74085E6008121939
:10099300D075A1F78024EFA2E092F0E508A2E082EF
:1009A300F05017906198E0F890051CE0C398A2D22C
:1009B30065D0335002E8F075A1FEE509A2E092AFDD
:1009C3007F02020ED9C0E074F2120E7AA2AFE433B2
:1009D300FED2AF9061A4E0F8759B00E591585408EE
:1009E30060087591F7121A188023E5915854106026
:1009F300087591EF121A1E8014E591A2E092F0E8B7
:100A0300A2E082F05007E0C2E0F0121B749061A3F1
:100A1300E0F8E5E9585404600E121B4A75E9FB90AF
:100A23006193E0A2E640F2EEA2E092AF7F01020EF4
:100A3300D9C0E074F2120E7AA2AFE433FED2AF90C3
:100A430061A5E0F8E5BF585404600675BFFB121BAF
:100A53008C80D4C0E0C0D0E8C0E0E9C0E0C082C070
:100A630083A8C1E8C0E09004C9E0F8744828F5827F
:100A7300E43404F583D0E0F09004C8E0F8A3E06820
:100A83007006E5959004CBF09004C9E004F0C3949C
:100A9300804002E4F0A374C6F0D083D082D0E0F9A2
:100AA300D0E0F8D0D0D0E032C0E0C0D0E8C0E0E978
:100AB300C0E0C082C08390050CE0F8A3E068700832
:100AC300539AFBA374018022C2E990050CE0F874E9
:100AD3000128F074CC28F582E43404F583E0F5C1F1
:100AE30090050CE0C394404002E4F080AC120B3B51
:100AF30030F039120B808034120B3B20F01430E7B6
:100B03002B74FFFCFBFA747F8022E4FCFBFA7480F5
:100B1300801AB48008BC00F2BB00EF800F50EBF9E1
:100B2300E4C39AFAE49BFBE49CFCE499C6CC18C6A4
:100B3300CB18C6CA18C6F922E4C9C608CAC608CB68
:100B4300C6D3330308CCC63392F0C3947F402E94AC
:100B5300184019C9B90704CACBCC225025C309CA06
:100B630033CACB33CBCC33CC33D9F422F4600DC9A5
:100B7300CCC313CB13CBCA13CAD9F6CC22E4FCFBE8
:100B8300FA2214FCFBFA22C3E498F8E499F9120B55
:100B9300CB8026C3E49AFAE49BFBE920E7E9120B36
:100BA300CBE498F8E499F922C3E498F8E499F912AC
:100BB3000BCBE498F8E499F9C3E49AFAE49BFB229B
:100BC300EB20E7CFE920E7E0B90010BB0008E88A93
:100BD300F084F8AAF022E4FBC8FA22EB70227B101F
:100BE300C833C8C933C9335007C39AC3DBF280067D
:100BF3009A50012ADBEAC833F4C8C933F4C9FA228C
:100C030075F008E4C833C8C933C933C99AC99B50BE
:100C130004C92AC93BD5F0ECFBC833F4C8E4C9FACC
:100C230022C0E074F2120E7AA2AFE433FED2AF9088
:100C330006C8E05589600FE589FA7900121E3890DD
:100C430006C8E0F45289C2C5EEA2E092AF7F01026A
:100C53000ED9C0E074F2120E7AA2AFE433FED2AF23
:100C63009006C9E0558A600FE58AFA7901121E38A9
:100C73009006C9E0F4528AC2EB80CDC0E074F21250
:100C83000E7AA2AFE433FED2AF9006CAE0558B6072
:100C93000FE58BFA7902121E389006CAE0F4528BE4
:100CA300C2E880A4080808EAC0E0EBC0E086F0E7E9
:100CB300A4FA180986F0E7A42AFA180986F0E7A42B
:100CC3002AFA180986F0E7A42AFA1986F0E7A4FBA2
:100CD300E5F02AFA190886F0E7A42BFBE5F03AFAC7
:100CE300190886F0E7A42BFBE5F03AFA18180986F1
:100CF300F0E7A4C5F02BFBE43AFA1908E7C5F0C600
:100D0300A426F6E5F03BFBE43AFA1886F0E7A4F6EE
:100D1300E5F00826F6E43B08F6E43A08F6D0E0FBF3
:100D2300D0E0FA22080808E630E7111215BD120DCB
:100D33003F080808C64480C618181822181818E96E
:100D4300799EC608CAC608CBC608CCC6C37020792C
:100D530096CACBCC7019798ECBCC70137986CC70B4
:100D63000EF9802ACA33CACB33CBCC33CC331930F8
:100D7300E7F2CCCBCA3350147004EA30E00DE4CA76
:100D83003ACACB3BCBCC3CCC500209C3E913C6CC0B
:100D9300182313C6CB18C6CA18C6F922E4CFC0E07D
:100DA300E4CEC0E0E4CDC0E0E4CCC0E075F020E6E2
:100DB30026F608E633F608E633F608E633F618189F
:100DC30018EC33FCED33FDEE33FEEF33FFC3EC974A
:100DD30009ED9709EE9709EF97191919400FFFECE1
:100DE30097FC09ED97FD09EE97FE191906D5F0BF9B
:100DF300ECF709EDF709EEF709EFF7191919D0E048
:100E0300FCD0E0FDD0E0FED0E0FF222518C582C073
:100E1300E0E51934FFC583C0E0E518C3958224F8E3
:100E230010AF088583198582188008858319858208
:100E330018D2AFCEF0A3E520F0A37808E608F0A31C
:100E4300DEFAEFF0A3E58124FAF8E608F0A3E6085A
:100E5300F0A3E608F0A30808E608F0A3E608F0A369
:100E630015811581D0E0FED0E0F81581158115813B
:100E7300E8C0E0EEC0E022C0D02518C582C0E0E59E
:100E83001934FFC583C0E0E518C3958224F310AF7E
:100E9300088583198582188008858319858218D26D
:100EA300AFC8F0A3E9F0A3EAF0A3EBF0A37908E756
:100EB30009F0A3D8FAECF0A3EDF0A3EEF0A3EFF062
:100EC300A3D0E0F0A3D0E0F0A3D0E0F0A3E520F0BE
:100ED300A3E5F0F0A322851983851882E0C0E0A37F
:100EE300E0F9A3E0FAA3E0FBA37808E0F608A3DFA8
:100EF300FAE0FCA3E0FDA3E0FEA3E0FFA3E0C0E073
:100F0300A3E0C0E0A3E0F5D0A3E0F520A3E0A3F5C0
:100F1300F010AF08858319858218800885831985A9
:100F23008218D2AFD082D083D0E0F8D0E03212154D
:100F3300C0181818120D9F12168F1919192212169C
:100F43008F191919080808E618181820E7E0120D78
:100F53009F1215C018181822090909E71919192031
:100F6300E7DC080808E618181820E703020D9F12AB
:100F730015C0181818120D9F1215C018181812163C
:100F83008F19191922121790B90003020FC7E490A1
:100F930003F1783A791B8002F0A3D8FCD9FA7A2AB4
:100FA3007B1E90008678CD79018015E493A3AD82F2
:100FB300AE838A828B83F0A3AA82AB838D828E83D6
:100FC300D8E9D9E77582067583CC74071213E875DF
:100FD30082EE75833774001213E8E473FF75F01023
:100FE3008E1A8F1B85821F85831E85188285198320
:100FF300E0CEA3E0CF851F82851E83EBC9EAC8ED4F
:10100300CBECCAC3E833C8E933C9EA33CAEB33CB01
:10101300C3EA9EF51DEB9FF51CB35004AB1CAA1D40
:10102300EC33CCED33CDD5F0DAAE1AAF1B2212166A
:10103300F0601C1216FF60171217AE70071217A587
:101043007001D322C0D01217A57006D0D0B322C32B
:101053002233D0D0501430E0F6C3E7960809E79660
:101063000809E7960809E796B32220E0D5E6970832
:1010730009E6970809E6970809E697B322D083D0D3
:1010830082ECC0E0EDC0E0E493A3FCE493A3FDEDA8
:101093004C600D1211A4EC24FFFCED34FFFD80EF36
:1010A300E493A3FCE493A3FDED4C600D1212ABECAF
:1010B30024FFFCED34FFFD80EFD0E0FDD0E0FCE445
:1010C30093A3C0E0E493C0E0221216F0601B121653
:1010D300FF60161217AE70071217A5600CB322C07B
:1010E300D01217A57005D0D022C32233D0D050130D
:1010F30030E0EBC3E7960809E7960809E796080985
:10110300E7962220E0E4E6970809E6970809E697C0
:101113000809E69722D083D082E9C0E0E493A3C311
:1011230086F0C5F095F0F908E493A386F0C5F09531
:10113300F0700BE493A3C3994005E9048002A3E490
:1011430075F002A42582F582E5F03583F583D0E0BE
:10115300F9E493A3C0E0E493C0E0228519838518E2
:1011630082E0A3FEE0A3F5207808E0A3F608DFFA07
:10117300E0A3FFE0A3C0E0E0A3C0E0E0A3C0E0E0A1
:10118300A3C0E0E0A3C0E010AF08858218858319EF
:101193008008858218858319D2AFD083D082021349
:1011A300EEC0E0C3E49396087401939618400FE4ED
:1011B3009366700808740193661870007019A3A3EE
:1011C300C3E49396087401939618A3A3400DD0E04B
:1011D300D0E0D0E00210BCA3A3A3A3A3A3D0E0223A
:1011E300C0E074F2120E7AC2D9901E71E0C394006B
:1011F300A2D265D0334005E0F91221BC7F01020E73
:10120300D9C0E074F2120E7AC2DC901E73E0F9C307
:101213009400A2D265D03340031221BC80DE740453
:10122300800474028000CCC0E0EDC0E0E518C39CEC
:10123300CCAD1950011D10AF068C188D1980068C8A
:10124300188D19D2AF12136AD0E0FDD0E0FC2274DE
:10125300028000CCC0E0EDC0E0E518C39CCCAD1922
:1012630050011D10AF068C188D1980068C188D192E
:10127300D2AF121326D0E0FDD0E0FC221216F060AC
:10128300251216FF60201217AE70030217A5080877
:1012930008E76670101819E766700A1819E7667090
:1012A300041819E76622F422C0E0C0F088F0E49342
:1012B3006670080874019366187000A8F0A3A37001
:1012C3000BD0F0D0E0D0E0D0E00210BCA3A3D0F06C
:1012D300D0E022D083D082CCC0E0E493A360061296
:1012E300138B1470FAE493A360061214EE1470FACD
:1012F300D0E0FCE493A3C0E0E493C0E022C008C3C1
:10130300E096F50808A3E096420808A3E096420891
:1013130008A3E0964208A2D265D033E5087001D352
:10132300D00822CAC0E0E493A3C582CCC582C5839A
:10133300CDC583F0A3C582CCC582C583CDC583DA71
:10134300E5D0E0CA22A2E792D65002F40430F706B1
:1013530063F0FF05F0B3400384800384F40430D6C4
:101363000563F0FF05F022CAC0E0E0A3C582CCC547
:1013730082C583CDC583F0A3C582CCC582C583CD89
:10138300C583DAE6D0E0CA22C0E0E493A3D39C503D
:1013930010E493A3C39C400AD0E0D0E0D0E0021253
:1013A300F3A3A3A3D0E0227009080808226016184B
:1013B3001818C6C333C608C633C608C633C608C61C
:1013C30033C6D5E0EA22C008C3E096F50808A3E0D7
:1013D30096420808A3E096420808A3E096450870E1
:1013E30001D3D00822C09FF59FE473D09F22D083FE
:1013F300D082C09FE493C0E0740193C0E074029371
:10140300F59F227404800A740380067402800274B8
:1014130001C0E0F40412143CD0E012173B2200C0D8
:10142300D0251810AF08F518500C05198008F518C9
:1014330050020519D2AFD0D0222518F58210AF087B
:10144300F518400C15198008F51840021519D2AF8C
:1014530085198322BB0102E722C082C08389828A65
:1014630083BB0003E08002E493D083D08222C0E0F8
:10147300C0D0E8C0E0A8A8D2AFC2C7E8A2E792AF45
:10148300D0E0F8D0D0D0E0326017080808C6A2E751
:1014930013C618C613C618C613C618C613C6D5E096
:1014A300E9226016080808C6C313C618C613C6186F
:1014B300C613C618C613C6D5E0EA22C3E0C696F61D
:1014C30008A3E0C696F608A3E0C696F608A3E0C60E
:1014D30096F6222518F8E43519F9222518FAE43589
:1014E30019FB222518FCE43519FD22C0E0E493A37F
:1014F3006C7009D0E0D0E0D0E00212F3A3A3D0E0F7
:1015030022251810AF08F518400C15198008F51896
:1015130040021519D2AF22E76670100809E766701A
:101523000A0809E76670040809E76622C3E096081B
:10153300A3E09608A3E09608A3E096A2D265D03371
:1015430022E066701008A3E066700A08A3E06670E4
:101553000408A3E06622191919E70947097009E786
:1015630027097005E733F4220922C3E096F008A3A4
:10157300E096F008A3E096F008A3E096F02218188E
:1015830018E60846087009E626087005E633F422D3
:101593000822C3E493960874019396087402939601
:1015A300087403939622C3E697F60809E697F608AC
:1015B30009E697F60809E697F622181818E4C39681
:1015C300F608E496F608E496F608E496F622E05662
:1015D300F008A3E056F008A3E056F008A3E056F0A5
:1015E30022E667F60809E667F60809E667F60809DA
:1015F300E667F622E493F608740193F608740293FF
:10160300F608740393F622E657F60809E657F60838
:1016130009E657F60809E657F622E627F60809E62B
:1016230037F60809E637F60809E637F622E026F624
:1016330008A3E036F608A3E036F608A3E036F62260
:10164300E026F008A3E036F008A3E036F008A3E0B4
:1016530036F022E647F60809E647F60809E647F6B4
:101663000809E647F622700422600D18C6C333C684
:1016730008C633C6D5E0F41822E056F608A3E056B0
:10168300F608A3E056F608A3E056F622E4C397F75C
:1016930009E497F709E497F709E497F722600D083F
:1016A300C6A2E713C618C613C6D5E0F322C6F4C60E
:1016B30008C6F4C608C6F4C608C6F4C622C3E09634
:1016C30008A3E09608A3E09608A3E09622C3E79652
:1016D3000809E7960809E7960809E7962275D000F6
:1016E30075813F7518F175190300020F88E60846E6
:1016F30008C3134608336002E633F422E7094709B7
:10170300C3134709336002E733F422600C08C6C3EE
:1017130013C618C613C6D5E0F422E6F008A3E6F014
:1017230008A3E6F008A3E6F022E0F608A3E0F60833
:10173300A3E0F608A3E0F622CAC0E0E6F0A308DAC5
:10174300FAD0E0FA22E0FCA3E0FDA3E0FEA3E0FF71
:1017530022EAF0A3EBF0A3ECF0A3EDF022E0FAA36E
:10176300E0FBA3E0FCA3E0FD22E8F0A3E9F0A3EA99
:10177300F0A3EBF022ECF0A3EDF0A3EEF0A3EFF077
:1017830022E0F8A3E0F9A3E0FAA3E0FB22E5C754C3
:10179300F84401F5C77901222518F582E43519F5D6
:1017A3008322E72719471947194722E626184618BF
:1017B30046184622C2AF75D69F020000221213F1CB
:1017C3005BD3051213F1ADD4051213F163D50512E2
:1017D30013F162D6051213F195D7051213F170AE0A
:1017E300071213F102AF071213F141B0071213F1FD
:1017F3005DB0071213F164DA071213F175DA0712F9
:1018030013F113DB071213F11EDB071213F1FD7F34
:10181300001213F1E5FF061213F167FF031213F130
:1018230077FF031213F18CFF031213F1F2FF03127C
:1018330013F162D8071213F1E5D8071213F14BD94C
:10184300071213F106CA071213F141CA071213F163
:101853009DCA071213F1F5CA071213F17CCB0712C5
:1018630013F1B8CB071213F190DF071213F1A0DFC6
:10187300071213F101A7071213F157A7071213F168
:10188300A6A7071213F1D3A7071213F129A807126A
:1018930013F18ADE071213F167C3071213F1B1C301
:1018A300071213F147C4071213F1CDC4071213F142
:1018B300FEC4071213F116C5071213F18AC50712E6
:1018C30013F1A0C5071213F1B3C5071213F1BDC578
:1018D300071213F131F4031213F17DF9031213F11B
:1018E300AFF9031213F1DBF9031213F183FA0312B5
:1018F30013F179FD031213F10080061213F16580D1
:10190300061213F11581061213F1E281061213F187
:101913003883061213F12284061213F12985061265
:1019230013F10987061213F13C87061213F1A687F8
:10193300061213F1CD87061213F13389061213F140
:10194300B789061213F1CB89061213F124B90612D3
:1019530013F19FBA061213F1BEBB061213F193BD26
:10196300061213F17AF5061213F1A6F5061213F116
:1019730017F8061213F157F8061213F197F8061227
:1019830013F1ABF8061213F1C4F8061213F1B5F90B
:10199300061213F15AFA061213F16EFA061213F134
:1019A3004AD2071213F16ED2071213F187D207122C
:1019B30013F1B9D2071213F1E9D2071213F116D3B7
:1019C300071213F178D3071213F187D3071213F118
:1019D30091D3071213F19ED3071213F1D1C007124B
:1019E30013F1F1C0071213F130C1071213F14BC108
:1019F300071213F16AC1071213F1D0C1071213F1D1
:101A0300D9C1071213F136C2071213F15AC20712D2
:101A130013F11BC3071213F128C3071213F139C3C0
:101A2300071213F179DD071213F191DD071213F198
:101A3300BDDD071213F1FF84071213F1538607125A
:101A430013F16186071213F17486071213F1898665
:101A5300071213F19E86071213F1B186071213F1D1
:101A63002587071213F18A87071213F12C880712AF
:101A730013F1F088071213F10089071213F10F898C
:101A8300071213F1EDDB071213F111DC071213F147
:101A930039DC071213F161DC071213F1D0C5071209
:101AA30013F1F7C5071213F115C6071213F188C610
:101AB300071213F12BB8071213F144B8071213F1ED
:101AC30050B8071213F164B8071213F182B8071262
:101AD30013F18CB8071213F196B8071213F1A9B8D2
:101AE300071213F133B9071213F1A8B9071213F14F
:101AF300DCB9071213F12ABA071213F177BA0712E6
:101B030013F192BA071213F19CBA071213F1C2BA76
:101B1300071213F127BB071213F136DB071213F178
:101B230058DB071213F1E6FF051213F1418A06127F
:101B330013F16B8A061213F1888A061213F19B8A3A
:101B4300061213F1B18A061213F10F8B061213F169
:101B5300478B061213F13F8F061213F1849006127E
:101B630013F1B790061213F11A91061213F193921F
:101B7300061213F1BB92061213F1D092061213F15F
:101B8300E092061213F12493061213F17F930612C7
:101B930013F18F93061213F12BD6071213F145D6C7
:101BA300071213F16DD6071213F186D6071213F13C
:101BB300AAD6071213F1C8D6071213F1DFD60712FC
:101BC30013F10DD7071213F128D7071213F104DE0F
:101BD300071213F1E9AA071213F1F9AA071213F175
:101BE300FEAB071213F130AC071213F156AC071218
:101BF30013F179AC071213F190AC071213F1CAACCD
:101C0300071213F12FAD071213F171AD071213F180
:101C1300B0AD071213F1E1AD071213F118AE0712BD
:101C230013F121F7041213F106F8041213F131F83A
:101C3300041213F14EF8041213F15BF9041213F1B9
:101C43009FF9041213F146FA041213F102FB041272
:101C530013F10DFC041213F144FD041213F1D79A8E
:101C6300071213F12C9B071213F1AC9B071213F10C
:101C7300BF9B071213F1E69B071213F1899C07120E
:101C830013F16A9D071213F1D9AF061213F104B0D1
:101C9300061213F1CFB0061213F10CB1061213F1B1
:101CA3009DB1061213F119B5061213F12CB70612E2
:101CB30013F136C8041213F176C8041213F177CA6C
:101CC300041213F177CD041213F199CE041213F118
:101CD30003D2041213F177D2041213F111D30412B5
:101CE30013F168D3041213F1D0D3041213F120D4E7
:101CF300041213F14ED4041213F151D4041213F14C
:101D030061D4041213F174D4041213F1BFD4041276
:101D130013F17CD6041213F1E1D6041213F134D774
:101D2300041213F1D0D7041213F15CD8041213F187
:101D33005BDA041213F104DC041213F1CBDD041299
:101D430013F1B7DE041213F163E0041213F1EBFE97
:101D5300011213F105FF011213F15BFF011213F1DD
:101D630089FF011213F1A3FF011213F1BCFF01124A
:101D730013F1E5FF011213F1CAD3061213F1FBD3DA
:101D8300061213F14FD4061213F11FD5061213F1E5
:101D93004CD5061213F179D5061213F1CBD50612E1
:101DA30013F1F5D5061213F119D6061213F141D624
:101DB300061213F1C3D6061213F14DD7061213F10F
:101DC3007ED7061213F1A5D7061213F1EBD706122D
:101DD30013F109D8061213F12DD8061213F14DD8B9
:101DE300061213F183D8061213F1E2D8061213F187
:101DF30004D9061213F163D9061213F172D906122C
:101E030013F1ABD9061213F173F8051213F1ADF800
:101E1300051213F1E8F9051213F114FB051213F17E
:101E2300BFFF051213F1BAD9061213F1F4D9061242
:101E330013F19BDA061213F15BD7071213F1CCD718
:101E4300071213F12ED8071213F166E3051213F1EB
:101E530096E4051213F1ABE5051213F1EBE6051257
:101E630013F145E7051213F183E7051213F191E727
:101E7300051213F1C1E7051213F152E8051213F12C
:101E8300AEE9051213F1DAEA051213F174EC051247
:101E930013F1E8ED051213F1D6B1071213F138B2BD
:101EA300071213F171B2071213F16AB4071213F197
:101EB30082FA061213F1C5FA061213F1FBFA06129F
:101EC30013F122FC061213F1B6FD061213F11CFEE8
:101ED300061213F14FFF061213F12E9D061213F192
:101EE3003F9E061213F1B59E061213F1AE9F061222
:101EF30013F1FC9F061213F177A3061213F157A4F3
:101F0300061213F1ACA4061213F18CA5061213F1F9
:101F130082CF071213F1BFCF071213F1EECF0712CF
:101F230013F102D0071213F12892071213F13A9317
:101F3300071213F11D94071213F13E94071213F1C4
:101F43000795071213F1A995071213F1DA950712F2
:101F530013F15A96071213F148C7061213F1AAC7D1
:101F6300061213F149C8061213F1D4C9061213F16C
:101F7300D2CC061213F1E8CC061213F1E6D0071205
:101F830013F106D1071213F11AD2071213F11DD25E
:101F9300071213F1A8D3071213F1DED3071213F1BB
:101FA300F8D3071213F13AD4071213F14AD40712E4
:101FB30013F1E4D4071213F14DC0061213F157C005
:101FC300061213F191C0061213F1FAC0061213F1AF
:101FD30017C1061213F1B9C1061213F1C2C10612D9
:101FE30013F107C2061213F130C2061213F13DC2F8
:101FF300061213F1AEC2061213F139C3061213F11E
:1020030087C3061213F1C5C3061213F12AC40612BD
:1020130013F14DC4061213F1C4C4061213F11BC508
:10202300061213F156C5061213F18BC5061213F1EE
:102033009DC5061213F1AFC5061213F1CEC50612E4
:1020430013F1D7C5061213F192C6061213F1DEC6B9
:10205300061213F11CC7061213F1A8FE041213F1A2
:10206300E8FF041213F174DF071213F121B507120D
:1020730013F165B5071213F1ADB5071213F193B759
:10208300071213F122B8071213F16DFF061213F1B1
:102093000080051213F12481051213F15E810512EC
:1020A30013F10883051213F13283051213F1A78587
:1020B300051213F1E785051213F17D87051213F15C
:1020C3001A88051213F16C88051213F10F89051292
:1020D30013F14789051213F18989051213F1F88A5F
:1020E300051213F1468C051213F1778E051213F1C5
:1020F300A58E051213F1CC8E051213F1D58E0512A0
:1021030013F1258F051213F1B78F051213F1E69220
:10211300051213F16993051213F1DD7F001213F118
:10212300F37F001213F1019F071213F1179F071298
:1021330013F1BB9F071213F1FA9F071213F117A0B4
:10214300071213F148A0071213F195A0071213F118
:10215300C8A0071213F103A1071213F1F8A2071283
:1021630013F1AACD061213F1B1CF061213F1F0D079
:10217300061213F108D1061213F14889071213F15D
:102183008E8A071213F1F58B071213F144F702122B
:1021930013F167F8021213F16EF9021213F1CEFA7A
:1021A300021213F1F0FB021213F1D1FC021213F12C
:1021B300F3C7071213F1A1C8071213F1B69305125F
:1021C30013F17B94051213F18894051213F13995D9
:1021D300051213F19895051213F1A697051213F141
:1021E3001698051213F11B9A051213F1549A05124E
:1021F30013F1039D051213F12B9D051213F1AD9DF0
:10220300051213F1289E051213F1B29F051213F163
:1022130041A0051213F1BDA0051213F15AE50612F0
:1022230013F181E5061213F1DCE7061213F103E85B
:10223300061213F158E8061213F18AE9061213F194
:1022430006EA061213F100BE071213F118BE0712B5
:1022530013F163BF071213F16ABF071213F193BFA0
:10226300071213F164D9071213F1C3D9071213F13B
:1022730001DA071213F142DA071213F1B5C105129D
:1022830013F11EC2051213F169C2051213F196C2AE
:10229300051213F17BC4051213F15EC8051213F185
:1022A300ECC9051213F1F7CA051213F10DCC05128F
:1022B30013F103EB061213F129EB061213F169EC88
:1022C300061213F15EED061213F185ED061213F1FA
:1022D3001EEE061213F172EE061213F18DEF0612C3
:1022E30013F186DC071213F1D0DC071213F1A1DF1F
:1022F300061213F1FEDF061213F1DCE0061213F1EE
:102303004BE1061213F16FE1061213F156E20612C6
:1023130013F1B6E2061213F167E3061213F1F0E3C9
:10232300061213F113DF071213F126DF071213F15D
:10233300EED4071213F1FDD4071213F15DD5071282
:1023430013F137DF071213F13DDF071213F143DFF8
:10235300071213F10080041213F10C80041213F11D
:102363006E80041213F17880041213F10B810412AE
:1023730013F14781041213F10382041213F116823D
:10238300041213F16682041213F1F582041213F19D
:102393002B83041213F1AD83041213F15C85041231
:1023A30013F13087041213F11688041213F16889AC
:1023B300041213F1BE8B041213F1278D041213F1CF
:1023C300C48D041213F16C92041213F15A93041284
:1023D30013F1F893041213F12494041213F1C0942B
:1023E300041213F1D594041213F1F994041213F1A6
:1023F3005F95041213F17C95041213F1A695041250
:1024030013F12397041213F14497041213F1CA979B
:10241300041213F17098041213F1B798041213F114
:102423002A99041213F1B699041213F11A9A041299
:1024330013F17A9A041213F1109B041213F18B9B7C
:10244300041213F1BE9B041213F1209C041213F126
:10245300829D041213F1F29D041213F1A19E041242
:1024630013F1F79F041213F18FA0041213F1FBA0D1
:10247300041213F13EA3041213F1CAA4041213F1BC
:10248300F5A4041213F1DBA6041213F171A80412CC
:1024930013F17AA9041213F1DBB3051213F192B409
:1024A300051213F199B5051213F117B6051213F1BD
:1024B30059B7051213F17AB7051213F132B80512A1
:1024C30013F1DDB8051213F1BDBC051213F1D9BE2A
:1024D300051213F140C0051213F1C0DD071213F109
:1024E300BDD6031213F118D7031213F1A2D70312A7
:1024F30013F113D9031213F1EBD9031213F1D4DA45
:10250300031213F1EBDA031213F13DDB031213F1A0
:10251300A1DB031213F1E2DB031213F1F5DB031268
:1025230013F14BDC031213F1A4DC031213F1BCDC33
:10253300031213F149DF031213F1DEDF031213F168
:1025430008E0031213F151E0031213F141E2031205
:1025530013F1ABE2031213F17FE3031213F1C2E3AE
:10256300031213F1DCE3031213F123E4031213F157
:1025730045E4031213F1EFE4031213F1E7E5031249
:1025830013F141E6031213F192E6031213F12AE861
:10259300031213F1A2EA031213F120EB031213F156
:1025A3004DEB031213F1C0EB031213F1E3EB031230
:1025B30013F15DEC031213F128ED031213F165ED32
:1025C300031213F1C7ED031213F188EE031213F193
:1025D3008BEE031213F195EE031213F19FEE031228
:1025E30013F1B2EE031213F124EF031213F14DEFC3
:1025F300031213F160EF031213F18CEF031213F1C3
:10260300B3EF031213F1D7EF031213F112F0031216
:1026130013F184F0031213F1ACF0031213F1EDF094
:10262300031213F122F1031213F142F1031213F116
:102633007FF1031213F1B6F1031213F1B6F2031291
:1026430013F1E9F3031213F1FFF3031213F121DD85
:10265300071213F139DD071213F1EFFF021213F121
:10266300DD78001213F12C79001213F1CC7A0012E9
:1026730013F1877C001213F1C97C001213F1B27DB0
:10268300001213F1BC7E001213F1DE7E001213F16F
:10269300287F001213F1A97F001213F12ED8021222
:1026A30013F151D8021213F144D9021213F18DD947
:1026B300021213F1E5D9021213F143DA021213F1F4
:1026C3008FDA021213F105DB021213F15DA9061270
:1026D30013F106DC021213F149DC021213F129E0B3
:1026E300021213F178E2021213F1ABE2021213F1B8
:1026F30022E3021213F153E6021213F1C8E60212A7
:1027030013F153E8021213F160E9021213F176EAAE
:10271300021213F1ECEA021213F1B3EB021213F1FA
:102723001CEC021213F11FEC021213F1FCEC021267
:1027330013F138EE021213F1F3EF021213F19FF1CA
:10274300021213F191F2021213F121F3021213F1A7
:1027530075F4021213F197F5021213F1EEF502125A
:1027630013F18BF6021213F179D0051213F14AE239
:10277300041213F1B4E2041213F15BE3041213F134
:10278300BAE3041213F166E4041213F10FE704121F
:1027930013F135E8041213F1B9E8041213F196EAC0
:1027A300041213F13BEB041213F1DEEB041213F1E9
:1027B3003DEC041213F1F6EC041213F175EE04125E
:1027C30013F132F0041213F1B3F1041213F10DF308
:1027D300041213F11DF4041213F1C3F4041213F1E0
:1027E300E2F5041213F1B5AD041213F12DAE041288
:1027F30013F175AE041213F1B9AE041213F102AF63
:10280300041213F14CAF041213F181AF041213F14C
:10281300FFAF041213F159B0041213F1B2B1041251
:1028230013F131B2041213F148B3041213F16AB372
:10283300041213F176B4041213F187B4041213F1E2
:102843009FB4041213F1BFB5041213F1DCB50412E3
:1028530013F1AFB6041213F1D3B6041213F1EAB6AF
:10286300041213F10BB7041213F12DB7041213F171
:102873001FB8041213F177B8041213F1EDB904125F
:1028830013F14BBA041213F16ABA041213F19CBB8D
:10289300041213F119BC041213F186BC041213F1D0
:1028A300C6BC041213F128BD041213F1D8BD0412DF
:1028B30013F1AABF041213F195C0041213F18FC1CF
:1028C300041213F195C2041213F1B1C3041213F1EC
:1028D300BFC3041213F198C4041213F138C50412D0
:1028E30013F17CC5041213F191C5041213F1A2C6AE
:1028F300041213F145C7041213F19DC7041213F117
:1029030032BB071213F16BBC071213F128BD071278
:1029130013F18CBD071213F105A3071213F123A3BF
:10292300071213F167A3071213F18DA3071213F113
:10293300B3A3071213F1CBA3071213F1E3A30712F7
:1029430013F1FBA3071213F15EA4071213F1A0A462
:10295300071213F1C2A5071213F1CBA5071213F146
:10296300D4A5071213F1DDA5071213F1E7A507128A
:1029730013F108A6071213F1CE8D071213F1AE91CE
:10298300071213F1BC91071213F1C191071213F14E
:102993007CCC071213F18EFF021213F1C2DE071271
:1029A30013F1EFCD071213F156DF071213F1008075
:1029B300021213F15780021213F1C380021213F1B2
:1029C3004F81021213F10582021213F14D8202129A
:1029D30013F16682021213F18982021213F1AB82A0
:1029E300021213F1E982021213F13883021213F176
:1029F3006383021213F1C183021213F1688402127A
:102A030013F11085021213F18C85021213F159860A
:102A1300021213F1A086021213F1EC86021213F1D3
:102A23007487021213F1AD87021213F103880212A5
:102A330013F11F88021213F14E88021213F15A8AFE
:102A4300021213F1888B021213F1B48B021213F1E9
:102A5300E88B021213F1098C021213F1188C021283
:102A630013F1238C021213F1D28C021213F1428D53
:102A7300021213F1CD8D021213F1D58D021213F14F
:102A8300428E021213F17E8E021213F1448F021250
:102A930013F11790021213F16C90021213F10B91C0
:102AA300021213F16591021213F1AA91021213F1AA
:102AB3004394021213F18695021213F170980212D5
:102AC30013F15499021213F1389A021213F1499A2D
:102AD300021213F1BB9A021213F1529B021213F169
:102AE300B79B021213F1A79C021213F1CC9C0212A2
:102AF30013F1EA9C021213F1069D021213F1799D60
:102B0300021213F1889D021213F1109E021213F1A7
:102B13000D9F021213F11A9F021213F1239F021247
:102B230013F105A1021213F127A2021213F137A226
:102B3300021213F165A3021213F1E4A3021213F1BB
:102B4300FFA4021213F13BA5021213F115A70212FF
:102B530013F1D2AA021213F1E6AA021213F1F0AA98
:102B6300021213F1FAAA021213F104AB021213F1C7
:102B73001DAB021213F127AB021213F194AB021235
:102B830013F19FAB021213F1C7AB021213F1D2ABD5
:102B9300021213F137AC021213F142AC021213F119
:102BA30066AC021213F18AAC021213F1FCAC0212EE
:102BB30013F145AD021213F161AD021213F1D2AD5F
:102BC300021213F11EAE021213F167AE021213F1D9
:102BD300A5AE021213F126AF021213F1CDAF02120A
:102BE30013F19CB1021213F101B2021213F12FB3CC
:102BF300021213F155B3021213F19DB4021213F131
:102C0300D7B7021213F1D5B9021213F1A0BB021206
:102C130013F139BC021213F13ABE021213F1EFBEE3
:102C2300021213F128BF021213F18EBF021213F125
:102C330098BF021213F1C1C1021213F100C30212B1
:102C430013F157C3021213F102C4021213F1B2C5F6
:102C5300021213F1FFC6021213F11FC7021213F17E
:102C630074C7021213F175C8021213F19DC8021240
:102C730013F1FCC8021213F1F4C9021213F16BCA67
:102C8300021213F17ECB021213F1ECCB021213F1F9
:102C9300EBCC021213F145CF021213F16ECF0212E5
:102CA30013F1D4D0021213F156D2021213F1ADD2A2
:102CB300021213F15BD3021213F100D4021213F1C7
:102CC30059D4021213F117D5021213F1A9D5021226
:102CD30013F108D6021213F14AD6021213F17BD66E
:102CE300021213F1D2D7021213F10080031213F16F
:102CF3003280031213F16B80031213F12982031242
:102D030013F1FF82031213F15E83031213F1748430
:102D1300031213F1C084031213F14E87031213F14C
:102D2300288A031213F16F8B031213F1078C03121A
:102D330013F1138C031213F15C8C031213F19E8DA8
:102D4300031213F1948E031213F1BE8E031213F1C7
:102D5300148F031213F16D8F031213F1E08F03121B
:102D630013F11692031213F19893031213F1839440
:102D7300031213F1CD95031213F10598031213F106
:102D8300029B031213F1119B031213F1A59B031270
:102D930013F1509C031213F1939C031213F1DC9C67
:102DA300031213F12C9D031213F1909D031213F1DF
:102DB300029E031213F11E9E031213F14D9E031282
:102DC30013F18C9E031213F1879F031213F136A0A4
:102DD300031213F1B3A2031213F1E5A3031213F1C8
:102DE300BDA4031213F13FA5031213F174A9031237
:102DF30013F1A3A9031213F1FEA9031213F131AACC
:102E0300031213F1A9AA031213F1DCAA031213F19B
:102E13003DAB031213F18DAB031213F15AAC031242
:102E230013F113AD031213F1D7AD031213F151B024
:102E3300031213F1B3B1031213F104B3031213F129
:102E430028B4031213F12BB4031213F15AB403126F
:102E530013F152B6031213F111B7031213F140B772
:102E6300031213F15EB8031213F126B9031213F11F
:102E7300E4BA031213F116BB031213F158BB031286
:102E830013F157BC031213F1CABC031213F1F3BEBF
:102E9300031213F152BF031213F1A6BF031213F16E
:102EA300D5C1031213F1B8C2031213F174C3031291
:102EB30013F188C3031213F19CC3031213F1C9C3A3
:102EC300031213F1F9C3031213F1B4C5031213F17F
:102ED300C6C6031213F11BC7031213F164C703120F
:102EE30013F18BC7031213F153C8031213F1F9C87B
:102EF300031213F17FCA031213F1C6CA031213F1AB
:102F030038CB031213F18DCC031213F136CD031218
:102F130013F16ACD031213F182CD031213F125CEFF
:102F2300031213F1A1D0031213F149D2031213F1C7
:102F330067D2031213F185D2031213F151D3031293
:102F430013F19FD6031213F1D884011213F11085E4
:102F5300011213F1108A011213F1568A011213F1AF
:102F63008C8B011213F1F18B011213F1668D011297
:102F730013F17090011213F19991011213F1AC9BAB
:102F8300011213F13C9C011213F1269F011213F15C
:102F930033A0011213F196A0011213F1DEA1011265
:102FA30013F14CA4011213F1DEA5011213F16BA668
:102FB300011213F18AA7011213F117A8011213F1D9
:102FC30021A8011213F149A8011213F1E9A8011272
:102FD30013F1D4A9011213F1A1AA011213F1BEAA8C
:102FE300011213F1E7AA011213F114AB011213F149
:102FF3005BAD011213F12AAE011213F169AE011296
:1030030013F1EBAE011213F18CAF011213F1BEAF4A
:10301300011213F105B0011213F138B0011213F1CB
:103023007CB0011213F1CBB0011213F1D0B0011235
:1030330013F12CB1011213F170B1011213F14AB261
:10304300011213F1AFB2011213F115B3011213F10F
:1030530090B3011213F1F8B6011213F1FBB7011289
:1030630013F179B9011213F18FBC011213F131BDC0
:10307300011213F17ABF011213F135C0011213F1DA
:1030830074C0011213F14CC2011213F169C201128F
:1030930013F172C2011213F17BC2011213F186C242
:1030A300011213F1A5C2011213F149C4011213F164
:1030B300A6C4011213F1B0C4011213F1BAC4011270
:1030C30013F119C5011213F163C5011213F164C69B
:1030D300011213F1BBC6011213F1CCC7011213F194
:1030E30015C8011213F1CFC8011213F1E6C9011279
:1030F30013F1BBCA011213F102CC011213F106CD75
:10310300011213F1FFCD011213F117CE011213F1C6
:103113004ECE011213F158CE011213F162CE0112F9
:1031230013F16DCE011213F18BCE011213F1D3CE35
:10313300011213F131CF011213F158CF011213F120
:103143006ACF011213F11FD0011213F158D00112EB
:1031530013F17AD1011213F1CDD1011213F1B3D2CC
:10316300011213F1DAD2011213F14AD3011213F14E
:10317300C6D3011213F122D5011213F149D601125C
:1031830013F10BD7011213F1D9D7011213F197D809
:10319300011213F17FD9011213F129DA011213F18C
:1031A30091DA011213F146DB011213F1A2DB0112D2
:1031B30013F1FADB011213F1C0DC011213F1E3DCAA
:1031C300011213F19EDD011213F1C0DD011213F19F
:1031D30021DE011213F151E0011213F14AE1011250
:1031E30013F1F6E1011213F117E4011213F160E494
:1031F300011213F1ABE4011213F107E5011213F10C
:1032030065E5011213F189E5011213F1ADE5011230
:1032130013F1E2E5011213F10AE6011213F14FE68D
:10322300011213F1A3E6011213F1FCE6011213F1EB
:10323300F6E7011213F194E9011213F1D9E901122E
:1032430013F102EA011213F18BEA011213F1FEEA00
:10325300011213F10CEB011213F130EB011213F114
:1032630086EB011213F1A1EB011213F15CEC0112D5
:1032730013F188EC011213F1CBEC011213F12EEDD3
:10328300011213F13CEF011213F168EF011213F174
:1032930023F0011213F107F1011213F19BF1011253
:1032A30013F1F3ED051213F12BEE051213F14CEEAE
:1032B300051213F18EEE051213F1F2EE051213F15E
:1032C300FCEE051213F10CEF051213F143EF051297
:1032D30013F1ECF2051213F1B4F4051213F198F69D
:1032E300051213F13AF7051213F1C4F7051213F19E
:1032F300243F001213F1CD3F001213F1AC40001232
:1033030013F1B841001213F1D841001213F1FA423C
:10331300001213F1AA44001213F11745001213F11E
:10332300E845001213F1EE46001213F1664700124E
:1033330013F1A147001213F1FA47001213F13548B4
:10334300001213F17E48001213F11249001213F117
:10335300A849001213F17D4A001213F1504B0012D9
:1033630013F1DE4B001213F1044C001213F1314C34
:10337300001213F1624C001213F12F4D001213F1DE
:103383003F4D001213F1924D001213F19F4D0012A5
:1033930013F1AC4D001213F1B54D001213F1194E98
:1033A300001213F1774E001213F1C24E001213F103
:1033B300DD4E001213F1044F001213F1214F0012DE
:1033C30013F12D4F001213F1BE50001213F1D75019
:1033D300001213F15351001213F16651001213F14D
:1033E3007651001213F11A52001213F18653001290
:1033F30013F19954001213F13955001213F1435587
:10340300001213F1C255001213F1D355001213F138
:103413001256001213F14056001213F10D57001209
:1034230013F16457001213F19D57001213F1F35770
:10343300001213F11158001213F15F58001213F127
:103443002A59001213F17859001213F1C5590012C9
:1034530013F1485A001213F1725A001213F1A85AC9
:10346300001213F1B75A001213F1165B001213F195
:103473008E5B001213F1CF5B001213F11F5C00127D
:1034830013F14A5C001213F1645C001213F17E5CC9
:10349300001213F1535D001213F15D5D001213F17D
:1034A300985D001213F1A85D001213F1F95D00128B
:1034B30013F10D5E001213F12F5F001213F1445F3D
:1034C300001213F1D75F001213F14B60001213F1D6
:1034D300F060001213F1FB60001213F15E62001240
:1034E30013F17A62001213F1C662001213F134630E
:1034F300001213F16663001213F18063001213F1DB
:10350300E063001213F17F64001213F1CA64001226
:1035130013F11D67001213F1B567001213F12C6844
:10352300001213F1896A001213F1A16A001213F158
:10353300A46A001213F1B06A001213F1C46A0012F4
:1035430013F1CC6A001213F1036B001213F1F76B42
:10355300001213F1816C001213F1036D001213F1C9
:10356300836D001213F15A6E001213F17C6E001278
:1035730013F1156F001213F1726F001213F1756FCF
:10358300001213F1E46F001213F13071001213F102
:103593004372001213F1CE72001213F1E1730012A1
:1035A30013F1A874001213F1D974001213F1FF740C
:1035B300001213F10875001213F13775001213F19D
:1035C300E775001213F19776001213F10A770012D0
:1035D30013F1AD77001213F12078001213F15F7825
:1035E300001213F1A878001213F15EA8061213F16A
:1035F30015A8061213F18CA6061213F12FB20512A9
:1036030013F1B6B0051213F1A3AF051213F17DAD9B
:10361300051213F126AD051213F169AB051213F16F
:10362300E0A8051213F16CA8051213F14DA70512BA
:1036330013F1A5CF051213F1A5CE051213F122A69E
:10364300051213F1CDA5051213F1C6CD051213F121
:1036530015F5061213F15B82071213F15881071255
:1036630013F1E080071213F10080071213F112FE29
:10367300011213F138FD011213F16EFC011213F163
:10368300DDFA011213F1A6FA011213F178FA01120D
:1036930013F12CFA011213F195F9011213F105F943
:1036A300011213F1DFF8011213F194F8011213F16F
:1036B3005EF8011213F1E1F7011213F17CF7011225
:1036C30013F12BF7011213F153F6011213F1C3F5A2
:1036D300011213F177F5011213F1F2F4011213F150
:1036E300ADF4011213F191F4011213F139F3011244
:1036F30013F178F4061213F10BF3011213F13EF1F7
:10370300061213F1BBF0061213F168F0061213F15F
:1037130063DE071213F148DE071213F1EEDE071220
:1037230013F15CAE061213F1F6AC061213F1D8F2E4
:10373300011213F15CF2011213F1E398071213F172
:10374300B897071213F18CAC061213F1ED9607121A
:1037530013F18296071213F11BE3051213F1C2E270
:10376300051213F12AAC061213F18DE2051213F1BF
:10377300AAE1041213F158E2051213F124E205122F
:1037830013F1B7E1051213F19FE1051213F17AE189
:10379300051213F14BDE051213F11EDC051213F1B2
:1037A3001EDA051213F1A4D9051213F155D9051226
:1037B30013F10FD9051213F1B1D8051213F1E199E1
:1037C300061213F14F99061213F1A3AA061213F16D
:1037D3006098061213F1C696061213F18694061228
:1037E30013F1BF93061213F191DB0200000080FB7B
:1037F3008F000100F61B87000100C41E3500040082
:10380300881E250002008C1E260002008E1E270043
:103813000200901E280001009A1E290001009B1E31
:10382300840004009C1E86000100A01E2A000100E3
:10383300A11E2B000100A21E2C000100A61E2D00BC
:103843000800DE1B2E000100A71E2F000100A81E8A
:1038530030000100A91E31000100AA1E3200010040
:10386300E61B33000100E71B34000100AB1E3600EA
:103873000100E81B38000100AC1E39000100A51E41
:1038830083000200C21E63000100F31B64000100F9
:10389300A31E65000100A41E6D000100F41B71004E
:1038A3000800D61B66000100C11E43000100B21EC2
:1038B30044000200B31E45000100B51E460002008D
:1038C300B61E47000800EB1B48000100B81E4B0062
:1038D3000100B91E04000100C51EA1000100C81E9D
:1038E30037000100C71E88000100C61E3C0001000E
:1038F300E91B3D000100AD1E49000200BA1E67002E
:103903000100F51B4D000200BC1E4E000100BE1E4F
:103913004F000200BF1E3E000100B11E5100010016
:10392300AE1E52000100AF1E53000100B01E540032
:103933000100EA1B0000000000000001363601010F
:103943000001020100010301000104010606050252
:103953000000070100340801000F090401010D01F3
:1039630000FF0E08000017020000190100FF1A01F2
:1039730000011B0100FE1C0100081D0200001F01C5
:10398300000120010001210200002301000F240295
:1039930000002601000127010008280200FF2A0178
:1039A30000072B0102402C0100002D0100012E0114
:1039B30000012F0100FF30010B1D310800003A0107
:1039C30000083B01000F3C0100013D0100FF3E04E4
:1039D300000042040000460400004A0400004E04B4
:1039E300000052040000560400005A0400000000C6
:1039F30000002001D384000001002001D3840000D3
:103A030002002001D684000003002001D4840000BA
:103A1300040042016D800000050042017E80000029
:103A230006004201A080000007002001AB800000D7
:103A3300100042018F800000110020018108000066
:103A430000404201A08006000000101100000700A2
:103A5300000030330000070010003033000007007F
:103A6300014020330000070002402033000008001B
:103A73000000203300000C005500393300000C0017
:103A83001C00423300001200550020010000140006
:103A93000E0042220000010371030103010301032D
:103AA30001030103220302030103100300030003C4
:103AB3000003000300030003000342030003240385
:103AC3000603000300030403120325032303250352
:103AD300230304030403000300030003440300035C
:103AE300000323030003650321003503810300035F
:103AF300050300030003000300032503230303005E
:103B03007100300160001100700031022003500485
:103B13008000100061000000140063007300720055
:103B230062004300000013000600000000000400D0
:103B33001200000000000000000004000400370031
:103B430037003C0244000000000000000000650054
:103B53000000350081000000050000008300000024
:103B63000101710101010101110101013101010192
:103B730001018001100161013B0014006301730125
:103B83007201620143010001130106013D01350089
:103B930004011201000100010001000104010401FC
:103BA300330133013C0144013201360000010001BD
:103BB30065010001350081010001050182018301D6
:103BC300000103047104020460041104700402047C
:103BD30002040104020410046104000414046304D5
:103BE300730472046204430400041304060400040F
:103BF300000404041204000400040004000451043B
:103C030064000004000400044404000400040004ED
:103C13000004650400043504810464000504000401
:103C23008304000403027102300160021102700276
:103C33000102020202028002100261023A00410004
:103C4300630273027202620243020002130238002B
:103C5300000200020402120200020002000200023B
:103C630004020402370037003C0244020002390018
:103C73000002000265020002350281020002050211
:103C830082028302000236000100060000000F00DA
:103C930000000000000000000000000003FFFF0020
:103CA300000403FFFF0000FFFF0FF4010005C4043D
:103CB3000320000100000B000000000000000003CF
:103CC300010F0000000000000000000000000000E1
:103CD30000000000000000000000000000000000E1
:103CE30000000000442480244A24722350248624A4
:103CF3005024922456247223502486245C24722355
:103D030062247223682472236E2472237424722320
:103D13007A2472230000000000000000000000006D
:103D23000000000000000000000000000000000090
:103D33000000000000000000000000000000000080
:103D430000008627130032271F0038271F803E27D5
:103D5300010086270200BA260300C0260400C626F7
:103D63000500E8370600D8263000F6263100F02695
:103D7300320002273300082735000E2734001427AA
:103D830036001A271100262714002C271500EA26CF
:103D9300FFFF00000A000000020000000400000012
:103DA3000800000010000000200000004000000098
:103DB3008000000000010000000200000004000079
:103DC3000008000000100000002000000040000078
:103DD30001842F06AE2F08A82F0BC62F109C2C0290
:103DE3008A2F059C2F07902F0C6C2F0D782F64982A
:103DF3002AFF000007ECFDFDFDECDCDCCCBCACAC29
:103E03009C9C8C7C7C6C6C5C5C5C4C4C3C3C2C2C9F
:103E13001C1C00160F00000B150B020002220F33AF
:103E230000000E5A6967426565416C6C69616E6397
:103E330065303901030507090B0D0F00020406085D
:103E43000A0C0D150AF4D4C0A5958272636155500E
:103E530049000119161816161823030030301718D5
:103E63001921301B1D1F30303016181920231A1C3E
:103E73001E3000034A49434E181A25050200393DF6
:103E83003F373C3C362C442D0C0E020B040B0A0727
:103E930008000F020402010101010902E803000006
:103EA30000BE040AF73D00000000463E0E00FA067D
:103EB3007F00E8031E1E00050C08040400102809F7
:103EC300080903010C05030815150300FF0A0C106C
:103ED30004E004124754A2E792AF22E4F0A3F0A354
:103EE300F022A3123EDEA3F0227F0C02115EE0F566
:103EF30008E4F509F50AF50B227401F0900534E0A6
:103F0300640F2274091214217F0402115EA3A3E03B
:103F130024F5C3941322900554126A447A147B0047
:103F230022C082C083901D127450F0A37433F0A397
:103F33007462F0A37433F0901D167438F0A37433D5
:103F4300F0A37432F0A37433F0A3746EF0A374334C
:103F5300F0A37474F0A37433F0A37468F0A3743300
:103F6300F0A37420F0A37433F0901D227444F0A3E3
:103F73007433F0A3744AF0A37433F0A3743EF0A334
:103F83007433F0A3747AF0A37433F0901D33125F8B
:103F9300D1600612623B12207E901D301256FD74D2
:103FA30008F0A3E4F0A3F0901DD3F0901D35F07C4E
:103FB3000BFDF97A367B1D121FCA7C0B7D0079003D
:103FC3007A417B1D121FCA02570674F7120E0E7434
:103FD300F7121504EAFEEBFF125524740512409AFA
:103FE3007403F0EE2402FAE43F124074242DFCE43F
:103FF3003FFD8C828D831241B212408360081248C8
:10400300FC74FFF0A3F0EE242BE43F1C1CFD8C8218
:104013008D83A3E0C0E08A828B83125535D0E012F2
:10402300408388828983125D2D240312680E122235
:1040330076740812179B7403F090054912122574C5
:10404300021214E67903EEFAEFFB12350C74021236
:104053001421E9F5087007EEFAEFFB1233F2A90811
:10406300740902490CF582E43FF583127479125DF9
:1040730022FB8A828B83124092E8F0A3E9F0EE22BE
:10408300126A62124092E8F0A3E9126FDEE0221294
:10409300417D8A828B8322F0A3E4F01240A222EEB8
:1040A300240DF582E43FF5832274F1120E0EEAFE2D
:1040B300EBFF8C088D09890A1241878A828B831250
:1040C300417D740F12179B1241A0E824FF18E934B5
:1040D300FFF988828983E50A12419290054E1241C5
:1040E3008F90054D12418F741112179B1241A0EE50
:1040F3002404FCE43FFD880B8A828B83E0F50C8C5F
:10410300828D83E0250CC3950B126A5EE8F0A3E968
:10411300125491A3A3A3A3A3A3A3A3E064037008CE
:104123001257EDF0A3E4800312449312409D7409E7
:10413300F0750C36750D1D750E00780C12140A12ED
:104143004487121FBE7403121421750CFF750DFFF3
:10415300780C12140EAC08AD097903EEFAEFFB12DA
:10416300350C7402121421E9F5087007EEFAEFFB1F
:104173001233F2A9087F0702115EE024FFF8A3E0DF
:1041830034FFF922EE2402FAE43FFB221241B21279
:10419300419622F0E824FF18E934FFF922E0F50CF8
:1041A300A31241B212419688828983E50CF022E082
:1041B3008882898322C082C083901D52E0C3940801
:1041C300400474078001E08A828B83F033333354D5
:1041D300F8F902570674F0120E0EEAFEEBFF890C93
:1041E3008C0E8D0F750A00A2AFE433F50BC2AF90AE
:1041F3001D4C803F1242C050371242D164037030CD
:10420300EE24F9FEEF34FFFF850882850983A3A31B
:10421300E02405FCA3E03400FDEEFAEFFB12227666
:10422300EE24FF1EEF34FFFF7410250AF50A150C68
:1042330012545E127475E50C6006E508450970B406
:10424300E50BA2E092AFA2AFE433F50BC2AF901D32
:104253004C802C2402FAE43509FB8A828B83126A90
:104263004D2406F582E438F5831242DE8A828B837D
:104273001242C6A3A31242DE050A150C12545E12A3
:10428300547360221242D1640270F11242C0E508F5
:1042930040C11245C1A2E550E3850E82850F8374A8
:1042A30001F0E50C70D6E50BA2E092AF8E828F830E
:1042B300E50AF0EE24FFFAEF34FFFB80351245CC1C
:1042C300A2E6221242CA22126E42A3A3A3228508A7
:1042D30082850983126E3C12647622E08E828F837C
:1042E300F0EE24FF1EEF34FFFF221235D8740412C0
:1042F30014217F0802115E74EC120E0E74F5121570
:104303000489138A128B0F851882851983E4F004BC
:104313001214DE123302E9F8900533E0292434F550
:1043230008FA7B00121FDC8A0A8B0BAE0AAF0BEE76
:104333004F700302447BEE2402F50AE43FF50BA819
:1043430008EE28F8E43FF9850A82850B8312407C46
:104353002404F510E43FF511851082F583E4F09011
:104363000533E0FCF8C3E498F895E0F9850A828503
:104373000B83E028F508A3E039F5099005311267AE
:1043830006750E00780C12140A7D00AA08AB0912F8
:104393001FBE7403121421AC18AD19740112179BBC
:1043A300E0F9E50824FFFAE50934FFFB1233088A34
:1043B300828B83E4F0EA24FFF508EB34FFF509E58B
:1043C3000FC454F0F9901DD4E0C4333354C0F890B3
:1043D300052DE0A2E0E43313134849440F12449B34
:1043E300E512C454F04513850882850983F0A808B3
:1043F300850A82850B83E0FA851082851183E02A82
:10440300C398F0850A82850B83E8F0A3E509F012CF
:10441300449312409DE4F0740A12179BE4F075086C
:104423004175091DF50A780812140A124487121FF0
:10443300BE7403121421851882851983E06009EE86
:10444300240E1255BA4408F01234F4E9F9E4F508DD
:10445300F509780812140E74041214E6EEFAEFFB51
:1044630012350C7402121421E97006EEFAEFFB8088
:104473000BEEFAEFFB121FE27A007B00740B1214AF
:1044830021023EEC7C0B7D00EE2418FAE43FFB2274
:10449300125528E4F0A322E085088285098312449B
:1044A300A522F01266DA2274F3120E0E8A0A8B0B1F
:1044B300A2AFE433F50CC2AF750800750900901D77
:1044C3004C802C1246E85024850A82850B83A3A3D3
:1044D3001278A28E828F83A3A312623E1234FAE96A
:1044E300600A12450EC2E6F08E088F091246DD12ED
:1044F300499670CFE508450960061245C8D2E6F033
:10450300E50CA2E092AF7F0502115E124512221262
:1045130066F3E02274F0120E0EEAFEEBFF8C0C8DB4
:104523000D750E00A2AFE433F50FC2AF7508007529
:104533000900901D4C8020850A08850B091245C887
:10454300D2E4F0E5081245C1D2E7F0E50A24FBF511
:1045530082E50B34FFF583E0F50AA3E0F50BE50AEA
:10456300450B6043E50A125349350BF583E0A2E797
:1045730050D9850A82850B83A3A3121225AC0CADF7
:104583000DEEFAEFFB1235007402121421E960BB41
:10459300E508450960A1E508240D1245D4640170BE
:1045A300061245DDD2E4F0E50FA2E092AFE508453F
:1045B3000960061233EC750E01A90E0242F512537F
:1045C300731245D7221245CC22E50824111245D493
:1045D30022F582E43509F583E02285088285098383
:1045E300126E3CE02274F2120E0E74FE1215047564
:1045F3000C00750D00851882851983E4F0A3F0A2E1
:10460300AF33F50AC2AF901D4CE0FEA3E0FF803547
:10461300EE24FBF582EF34FF127473780C12140E40
:10462300EEFCEFFD7A4C7B1D122012740212142152
:10463300EEFCEFFDAA18AB19122000AE08AF0990EB
:104643001D52E014F0EE4F60271246E8501DEE2491
:104653000BF8E43FF988828983E024FFF0A3E03478
:10466300FFF088828983125FD160A51246D98099B1
:10467300E50AA2E092AF901D52E06031900534E06C
:10468300640F6006901DD3E070237A2A7B1D1235D8
:10469300E49084B71212217A2A7B1D1235D8740450
:1046A300121421800874F01259241233E0AA18ABB3
:1046B300191220068A0A8B0BAE0AAF0BEE4F60135A
:1046C30012331412450EA2E28E828F83A350D67446
:1046D300E980D402499E8E0C8F0DEE24FBF582EF08
:1046E30034FFF58322124512A2E72274F7120E0E4D
:1046F300EAFEEBFF123314125532120FDDE96401A7
:10470300900550700AE02401F8A3E034008004E02F
:10471300F8A3E0F9125B80125F29901D52E070212B
:10472300900534E0640F70197A2A7B1D1235E490EA
:1047330084B71212217A2A7B1D1235D874041214FD
:1047430021A9A8C2AF901D52E004124754A2E780EA
:104753000DF0E9A2E7E433F8E922E508A2E092AF1D
:104763000259C074F7120E0EEAFEEBFF12479BF0DC
:10477300123314EEFCEFFD7A4C7B1D12200CA9A81A
:10478300C2AF901D52123ED4900534E0640F700501
:1047930079081234AC0259C0124512C2E42274F7EC
:1047A300120E0E74EA121504EAFEEBFF90052DE0DB
:1047B30060408518828519837401F012179BE412F7
:1047C300487312179BAA82AB831222768E828F8341
:1047D3001245E3C0E0740A12179BD0E0126A7374A7
:1047E3000B12179BAA82AB83123524AA18AB19129A
:1047F3002978741602490C74F7120E0EEAFEEBFFC9
:104803001232F6E9F974DC69601E74DD69601974AB
:10481300E469601474F369600F74DE69600A74DF1D
:1048230069600574DB697007EEFAEFFB1234B202BC
:1048330059C074F7120E0E74EB121504EAFEEBFF67
:10484300851882851983740612487312179BAA82EE
:10485300AB83122276126A78740A12179BAA82AB70
:1048630083123524AA18AB19122978741502490C3E
:10487300F0EE2413FCE43FFD74022274F7120E0ED3
:1048830074F7121504EAFEEBFFEE242D1255BA60FD
:104893006512514BAA18AB19122276740812179B92
:1048A3007403F09005491212251248FC1212259048
:1048B300055CE0F974041214E6EEFAEFFB1232FC25
:1048C3007404121421E9F974DC69602374DD6960EE
:1048D3001E74E469601974F369601474DE69600F0F
:1048E30074DF69600A74E869600574DB697007EE58
:1048F300FAEFFB1234B2024063EE12490122242B79
:10490300F582E43FF5832274031214210259C07423
:10491300F2120E0E8A088B09750C00750D00750ACC
:10492300E7A2AFE433F50BC2AF901D4C80031246F0
:10493300D912499660351246E850F31255B764010F
:1049430070ECEE242FF582E43F124B45E06870DEF5
:10495300780C12140EEEFCEFFD7A4C7B1D12201224
:104963007402121421901D52E014F0E50BA2E092A0
:10497300AFEE4F6013EEFAEFFB12331479F0EEFA59
:10498300EFFB1234B2750A00A90AAA08AB09123464
:10499300B2800DE0FEA3E0FFEE4F22740212142159
:1049A3007F0602115E74F4120E0E74F7121504EAF8
:1049B300FEEBFF8E828F83A3E064F37003024A52FF
:1049C3008E828F83A3E064DF7003024A528E828F4C
:1049D30083A3E064E860788E828F83A3E064DB6066
:1049E3006E123356E9F508705EEE240E1255BA6066
:1049F30056124A5C12339EEA4B604C740812179BA2
:104A0300124A661212257508FF7509FF78081214F9
:104A13000E8E828F83A3A3A3A3A3A3A3A3E0F974FE
:104A2300041214E61232FC7404121421E9F508741A
:104A3300F36508601274DF6508600C74E86508604C
:104A43000674DB6508700F8E828F83A3E508F0EE92
:104A5300FAEFFB123362023F06EE240FFAE43FFB48
:104A6300790922740212723B74FFF0A3124A732273
:104A7300124A7722125D36A3A32274F5120E0E8A10
:104A8300088B097E008A828B83A3A3A3A3A3A3120B
:104A93003F1040027EE88A828B83A3A3A3A3A3A330
:104AA300A3A3A3A3E0C3941040047EE880138A82E7
:104AB3008B83A3A3A3A3A3A3A3A3A3A3E0640F60D4
:104AC3000A901DB0E0540870027EE8EA240BF582D8
:104AD300E43509124B45A3A3A3A3A3A3A3A3E0C354
:104AE30098500CEA240B1245D4640F60027EE890C0
:104AF300054DE0F47003A3E0F470027EEC7A237BAF
:104B030000122078901D3312624E901D33125FD134
:104B13006029850882850983A3A3A982AA838908BA
:104B23008A09750A00780812140A7C237D00126230
:104B33003B121FBE740312142180027E1AEEF90287
:104B430073DCF583E0F88A828B83A3A32274F512C6
:104B53000E0EEAFEEBFF8E828F83A3A3A3A3A3A370
:104B6300A3A3E090053412711E90054F12710490B7
:104B7300052F127123901DD4F0F9121AC6901DD47B
:104B8300E06018EE2404FAE43FFB7950121AAEEE0B
:104B93002406FAE43FFB79E1121AAE901DD3123ECC
:104BA300FC6004740180027400901D3512710A12B6
:104BB300140A7C0B7D007A367B1D121FBE74031210
:104BC3001421EE2418F508E43FF509780812140AB5
:104BD3007C0B7D007A417B1D0273D474F7120E0E99
:104BE300EAFEEBFF8E828F83A3E0700612623B1214
:104BF300335C8E828F83742C1259241234BE025973
:104C0300C074F7120E0EEAFEEBFF901D33125FD154
:104C1300600D12623B901D33E4F0A3F012207E8EF0
:104C2300828F8374081259241229780259C074F6AA
:104C3300120E0E901DD3E06013901D35E0700D121F
:104C43004C5212330EEA4B60031233F2026D7E9024
:104C5300052FE0FB90054FE0FA900534E0F922744C
:104C6300F4120E0E74E7121504EAFEEBFF750B0146
:104C73008E828F83A3A3A3A3A3A3A3E0A2E250687E
:104C8300EE242BF582E43F1278A0124D2012331A42
:104C9300E970559082DFE064017005750B00804870
:104CA300124D2812140A7C0B7D0074111214DE12AB
:104CB3001FBE74031214211234F4E9FA740E121491
:104CC300D688088909780812140E7508307509000A
:104CD300780812140E1248FC121225126A14790174
:104CE30012351274061214218518828519837410E3
:104CF30012487312179BAA82AB8312226A1248FCD2
:104D0300126A40740B12179B125F29740D12179BC2
:104D1300E50B1257971229787419023F08EE2413F2
:104D2300FAE43FFB22EE240812711222C082C083F0
:104D3300901DD4E06003123566025706C082C0831B
:104D4300901DCB7412F0A3741DF0A37416F0A3741A
:104D53001DF0A37422F0A3741DF0901EEC74C5F033
:104D6300A3743BF0901DB574F0F0A37432F0901D62
:104D7300577426F0A37433F0901D59742CF0A37468
:104D830033F0901DB0E044028001E4F0025706C006
:104D930082C083EAFCEBFD7903025DA2C082C0837B
:104DA300EAFCEBFD7905025DA2C082C083790802AB
:104DB3006F0FC082C08374FE121504901D5F74DAF6
:104DC300F0A37433F0901D6174D4F0A37433F080B6
:104DD3000D7A4C7B1D12200612578D1234E2901D62
:104DE3004C125FD170EB901D4E125FD1600F7A4E63
:104DF3007B1D12200612578D1234E280E9901D4C60
:104E0300E4F0A3F0901D52123EDF7402800274118D
:104E130012142102570674F6120E0EE9FF7480294C
:104E2300F582E4343EF583E493FEFA7B00121FDC43
:104E3300EA4B6011EA2E125F1F8A828B83A3A3A31E
:104E4300A3E4F0802C7A027B00121FDCEA4B601D86
:104E5300745F2FF582E4343EF583E4938A828B8377
:104E6300F0A3741AF0901DABE0F9121FE87A007BEF
:104E730000026D7EE9FC740629F8EAA2E0501EE800
:104E830075F00A84E5F0F96014740A28C399F8E907
:104E9300C394054004740A28F8740B28F8ECC394EF
:104EA3001340047A1480027A06EA2879002409F868
:104EB3005001097A0A7B00120BC3E8F90213EEC012
:104EC30082C083901DB0E05402600A12297EE9601B
:104ED30004790180027900025706C082C083901DC5
:104EE300B0E054026016901D52E0700C125FCE6069
:104EF3000BE0C812546B5004790180027900025709
:104F030006C082C0839082DCE0F8901D54E0C39811
:104F13005005121FDC80047A007B00025706C08212
:104F2300C0831234E2790002570674F7120E0E742E
:104F3300FE121504851882851983EAF0A3EB12503B
:104F43009CA3A3A3A3A3E0600A14606024FE60698A
:104F530002501D900534E0640F60181234B8E970F4
:104F63001285188285198312623E901D5B12553596
:104F7300120FDD90055CE0C0E0851882851983126D
:104F83005D00D0E012509C74141272371278A27A2A
:104F93004E7B1D122000A8A8C2AF901D54E004123E
:104FA300625479201234AC740202490C851882854C
:104FB3001983126E44741580D08518828519831263
:104FC300507FA3A3E06053851882851983E02402F0
:104FD300F8A3E03400F988828983127675E0C0E093
:104FE300851882851983E0FCA3E0CC2406F582E4CE
:104FF3003CF583D0E0126A808882898312624E85F1
:105003001882851983125367851882851983601363
:10501300125084600512508C4043AA18AB19123405
:10502300E2808412508460F212508C501C12547B24
:10503300FA851882851983125086F87495125F1ABF
:10504300343EF583E4936A601485188285198312CC
:105053005084640870C412547B640870BD12547B7E
:10506300141250A4240AC0E08518828519831255AE
:1050730035D0E01250A404024F8CE0F8A3125D4D2A
:1050830022E0F8A3E01250AB22851882851983121F
:105093006A511250ACC3940A221250B6F583888227
:1050A300221250B61250AB22C82406F582E438F51A
:1050B30083E02212723BE0F8A3E022C082C0839017
:1050C3001D63125FD16008126E45120FDD800279F5
:1050D3000002570674F7120E0EEAFEEBFF1240A20F
:1050E3007401F0EE2430F582E43FF5831267AE12CB
:1050F300407C24321255BAC0E0EE2413F582E43F1B
:10510300F583D0E0F0EE24331255BAC0E0EE241458
:10511300F582E43FF583D0E0F0EE242CF582E43F02
:10512300F58312122512514BEE242E1255BAF912A1
:10513300350C7402121421E9F5087007EEFAEFFB3F
:105143001233F2A9080259C0EE2423FCE43FFD22E6
:10515300C082C0831234B8E96004792080027901E7
:10516300025706C082C083EA12534912520AD2E0A0
:10517300024D8EC082C08312520464017011125218
:105183000F400C8A828B83A3E0F91234B2806FEA5A
:105193002410125207A2E650128A828B83A3E0F9ED
:1051A300901D5D125535120FDD80531252046401B8
:1051B300700D12520F50088A828B83743080368AA6
:1051C300828B83A3E0641B8A828B837004742280A6
:1051D30024A3E0700D125204F8746A125F1A343E6D
:1051E300800B125204F8745F125F1A343EF583E4A5
:1051F300938A828B83F0901DABE0F9121FE802576C
:1052030006EA240DF582E43BF583E022EA125373A8
:105213003BF583E0A2E32274F7120E0EE9FE125F60
:10522300CE7003025340EE6011741B6E7013E0C81E
:105233001253436405700302530B126E34E402539A
:105243000F74E96E706212535F700B122984E96068
:1052530005125379606279EE121A30901D5512537C
:105263005C901D55603B12537C901D55700B12537F
:105273005C14F0121BF2025340125367C2E712543C
:10528300871253436403700C126A4A125349125033
:10529300B1D2E2F079ED121A3012534F120FDD80C2
:1052A30075126E3774E9806474E16E703E1229845E
:1052B300E960551253797050900556E0C0E0126AC8
:1052C3004A2412F582E438F583D0E0F0900545E0F6
:1052D300C0E0901D5512507D12507DD0E0F0900536
:1052E30045E004F07901121BDA8052741C6E7018C9
:1052F300901D5512623E901D65125535120FDD90BB
:105303001D55E4F0A3F08035126E34EEF0901D5578
:1053130012623E1233E0126A4A126A1CE054806041
:105323001090055CE0F9121AEA90055BE0F9121A95
:10533300DE901D55E4F0A3F079101234AC0259C08D
:10534300240D1250AE222411F582E422901D551231
:105353006242901D59126E3E22E0F8A3E0C8241267
:105363001250AE22E0F8A3E0C81253731250B122D8
:105373002410F582E422901D55126A51126A20E02E
:1053830054042274F4120E0E750A00750B00A2AFBA
:10539300E433FFC2AF125FCE6003025443125532AF
:1053A300120FDDE94410F8901D4C800985080A8529
:1053B300090B12545E12547370030254431245C80E
:1053C300586870E8780A12140EAC08AD097A4C7B61
:1053D3001D1220127402121421901D55E508F0A32A
:1053E300E50912548712546B405D901D53E014F08D
:1053F300EFA2E092AF901D55E0240EF8A3E0340035
:10540300F9880889098882F58312623E901D551236
:105413005481F91233A4E9901D50F012548FE054D3
:1054230080901D556026126A4D24131250AEF91256
:105433001AEA126A4A24141250AEF9121ADE8018BC
:10544300EFA2E092AF8011901D5280A1125367A288
:10545300E1B3E433F9121BDA023F0BE50824FBF551
:1054630082E50934FFF5832224111250AEA2E7220C
:10547300127479E508450922851882851983124239
:10548300CAA3E022F0901D55126A5122A3E4F085CD
:1054930008828509832274F7120E0EEAFEEBFF12CF
:1054A30034DCEE24101255BAA2E3400C1255B76453
:1054B3000170059082DA80039082DBE0F9EEFCEF65
:1054C300FD7A4C7B1D122018E96046EEFAEFFB9043
:1054D3001D5F125535120FDDEE240E1255BA54041A
:1054E3007020A8A8C2AF901D53E004126234FAE8FA
:1054F300A2E792AF125524A3E0540170211233ECBA
:10550300801CEEFAEFFB901D57125535120FDD800C
:105513000D8E828F83A374F11259241233E0025942
:10552300C012552822EE240EF582E43FF583229023
:105533001D61126E3E22C082C0831233EC025706F5
:1055430074F7120E0EEAFEEBFF7900901DB0E054E3
:1055530002700CEE24301255BA5404600279E890BC
:105563001DB0E05460700CEE24301255BA54026042
:105573000279E88E828F83A3A3A3A3E0F89082E04D
:10558300E0C398500279E8EE242E1255BA700CEE5F
:10559300242B1255BA700479F5800BE97005123388
:1055A300CEE9F9E96007EEFAEFFB1234B20259C013
:1055B30034FFF509EE240DF582E43FF583E022C0C4
:1055C30082C0838A828B83740DF012297802570676
:1055D300C082C0838A828B83E4F0A3F0EA24301272
:1055E300520754049082DA7012E0F8901D53E0C31E
:1055F30098401279F11234B2025706E0F8901D5226
:10560300E0C39850EE901DABE0F9121FE880E974F7
:10561300F6120E0EE9FE244CFAE43400FB121FDCF2
:10562300EA4B6012EE8A828B83A3A3A3A3F0EA243E
:105633004C125F1F80047A007B00026D7EC082C023
:1056430083901D67743AF0A37434F0A3746AF0A3D3
:105653007434F0A37440F0A37434F0A37446F0A33D
:105663007434F0A37464F0A37434F0A37458F0A3F7
:105673007434F0A37452F0A37434F0A37470F0A3E1
:105683007434F0A37476F0A37434F0A3747CF0A3A1
:105693007434F0A37488F0A37434F0A3744CF0A3AF
:1056A3007434F0A37434F0A37434F0A3742EF0A311
:1056B3007434F0901D83745EF0A37434F0A3748289
:1056C300F0A37434F0A3749CF0A37435F0A3748E28
:1056D300F0A37434F0A37494F0A37434F0901DA772
:1056E300E4F0901DAAF0901D931256FD7402F09001
:1056F3001D9C1256FD7401024D8E74ACF0A37434DC
:10570300F0A322D083D0820213EE74F5120E0E742E
:10571300F11215048518828519837402F07401123D
:10572300179BE9F060047AFF7BFF740212179B1248
:10573300624E75089F75091D750A00780812140AD0
:105743007C0B7D00740712179BAA82AB83121FBECA
:105753007403121421AA18AB19122978740F027357
:10576300D974F7120E0E74FD12150485188285196B
:1057730083740AF0740112179BE9F0740212179BE9
:10578300EA12579712297802490A851882851983E4
:10579300EAF0A3EBF0AA18AB192274F6120E0E74FA
:1057A300F7121504EAFEEBFF1257ED12409A74024A
:1057B300125915AA18AB1912226AEE242E12406848
:1057C300243012681B12140E74021214E679831A21
:1057D3001AEFFB12350C7402121421E9F508700755
:1057E300EEFAEFFB1233F2026D77125528740122A1
:1057F30074F0120E0E1272C212172C7808790C1262
:105803000CA778081214067A967B1D0242ED74F4F5
:10581300120E0E74C6121504900534E0640F601066
:10582300851882851983742E1257971234BE8027E8
:105833007A8D7B1D1235E4123F19120BCB88088930
:1058430009E4F50AF50B78081214067A8D7B1D120C
:1058530035D87404121421743A023F0874F5120EF9
:105863000EEAFEEBFF8E828F83A3E0F860030258FB
:10587300FEEE242D1255BA64026007E06403600251
:1058830078E8EE2423F582E43FF583123F124004C7
:1058930078E8806AE87064EE2423FAE43FFB79E158
:1058A300121AAEEE242EFAE43FFB7950121AAEEE32
:1058B300242D1255BA6402700E126A0A126A4090BD
:1058C3000543125F29801290054374FEF0A304126E
:1058D30059157A3A7B05122276EE2418124D2B12B3
:1058E300140A7C0B7D007A9F7B1D121FBE7403126A
:1058F3001421EEFAEFFB123428E9F8E86011E88E80
:10590300828F83A3126C6C74171259241234BE0253
:1059130073DCF0EE2425FCE43FFD228E828F83743A
:1059230029F0EEFAEFFB2274F6120E0E74F712153D
:1059330004901DAAE0703B7401F0F9121BA4AA188D
:10594300AB191234EE75089F75091D780812140EF1
:10595300750801750900780812140E900549121292
:105963002574061214E67A037905123512740612A9
:105973001421026D7974F7120E0EEAFEEBFF790122
:10598300121BAA8E828F83E064207004A374EBF051
:10599300901DAAE0A2E25003C2E2F0E0A2E15008A7
:1059A300125BC2123422800C8E828F83742A1259A6
:1059B300241234BE8007EEFAEFFB12355A7F010240
:1059C300115E74F4120E0E74FE121504EAFEEBFF60
:1059D3007901121BAA7A8D7B1D1235E47A967B1D01
:1059E3001235E4125D0C851882851983125D40E03F
:1059F300F50B700FAA18AB197953121AAE1274690A
:105A0300121AAE124D2812140A7C0B7D007A9F7B6A
:105A13001D121FBE74031214218518828519831267
:105A2300623EA90B12341C901DAAE0A2E1500C7A2D
:105A3300008E828F83A3E0F9123422901DAAE4F032
:105A43007402023F0874F7120E0EEAFEEBFF8E8219
:105A53008F83A374EBF0901DAAE0A2E150077A00B4
:105A630079EB123422EEFAEFFB1234580259C07468
:105A7300F7120E0EEAFEEBFF7901121BAA7A8D7B59
:105A83001D1235E47A967B1D1235E4901DA7E4F0D0
:105A9300901DAAF07AFF7BFF8E828F83A3E0F91219
:105AA300341C0259C074F7120E0EEAFEEBFF1234D7
:105AB300520259B974F7120E0EEAFEEBFF79011286
:105AC3001BAA8E828F83A3A3A3A3E0600474008028
:105AD3000274EB125B095003C2E2F0E0A2E150084A
:105AE300125C0B1234228014A2E050108E828F833A
:105AF300742AF0A374EB1259241234BEEEFAEFFBAE
:105B03001234040259C08E828F83A3F0901DAAE041
