:020000040000FA
:060000000216E0020A34C2
:03001300020A5688
:03002B000214714B
:03003300020C7E3E
:03003B00020AAB0B
:0300530002096936
:03005B000211E3AC
:0300630002120482
:03006B00020C2460
:03007B00020C551F
:100083000209C8010020FD000201AE0500000001C5
:10009300E81CFA1C0000001D061D000000000C1DDA
:1000A300241D2A1D301D0000000000000000010275
:1000B3000408102040800801FF0D01010401FEFF28
:1000C3000000000000000006FFFFFFFFFFFFFF012D
:1000D30001010400E41A000000E8030000FFFF5CD4
:1000E3001BE803000064006400B801A0BB0D00A07E
:1000F300BB0D00020200F8FF0705021E0401051EE6
:1001030002051E020A0A01010808010310270280E2
:100113003E0102FEFFE8030A050001FFFF010A1486
:1001230001E0C503423F1A51123FF304B53F0000FB
:10013300803E010105030101FF0F10FEFF0D3B008F
:10014300000000A53A00000000FF000000FF00C00F
:1001530082C083E9FA5407F8745528F582E4341E03
:10016300F583E0F87900EA1202F7600814600914D5
:10017300600D8012E5808002E5905870078007E5E6
:10018300A0586002790102025FC082C0831203900B
:10019300600814601214601C802BEA6005EB428037
:1001A3008023E85280801EEA6005EB42908016E8C7
:1001B30052908011EBC39420500BEA6005EB42A0F0
:1001C3008003E852A002025FC082C0831202FD7066
:1001D3000302025F1202F6600814602C1460508060
:1001E3007BE852F374016A601274026A6015740446
:1001F3006A7003EB428FEB42FD806153F7DFE852F5
:100203008F80F343F72080F6E852F474016A60129A
:1002130074026A601574046A7003EB42F6EB42FEE3
:10022300803A53F7BFE852F680F343F74080F6EB8A
:10023300C394205027E852F574016A601274026A6D
:10024300601574046A7003EB42F7EB42FF800D53B1
:10025300F77FE852F780F343F78080F6D083D082AC
:1002630022C082C0831202FD60791202F660081474
:10027300602B14604E806CE852F352FD74016A6087
:100283000F74026A600F74046A7058EB428F8053D4
:1002930053F7DF800343F720E8528F8046E852F498
:1002A30052FE74016A600F74026A600F74046A700C
:1002B30032EB42F6802D53F7BF800343F740E852F9
:1002C300F68020EBC39420501AE844E0F852F5522C
:1002D300FF74016A601074026A601374046A700325
:1002E300EB42F702025F53F77FE852F780F543F7DB
:1002F3008080F6E9C4540F54032212039AEB22C000
:1003030082C0831202FD603A1202F6600814601282
:1003130014601C802DEA6005EB42FD8025E852FD48
:100323008020EA6005EB42FE8018E852FE8013EB62
:10033300C39420500DEA6005EB42FF800574E0484A
:1003430052FF02025FC082C08312039060081460F0
:10035300151460228034EA6005EB42808003E85282
:1003630080EB42FD8024EA6005EB42908003E85273
:1003730090EB42FE8014EBC39420500EEA6005EB31
:1003830042A08003E852A0EB42FF02025F12039AED
:10039300E9C4540F540322E95407FC74552CF58225
:1003A300E4341EF583E0FBF4F8221202F66007142E
:1003B3006013146020227801E8F4FBEA60201460E3
:1003C3002114601522740F59C394045004780280D9
:1003D300E7780480E3780880DFE58C586004EB520B
:1003E3008C22E8428C221216F0601D1216FF700553
:1003F300191919801A121581701F121559C3700328
:10040300E6673319191940071818182208080874E1
:10041300FFF618F618F618F6221215596017121778
:10042300A5702192F01217AE7019501720F014081E
:100433000808090909E7F61819E7F61819E7F6187D
:1004430019E7F6221217AE60E6E869701F0808E69E
:100453002480F608E436F618547FB47F0CE6548003
:100463006007F6E418F618F622181822E9C6CC0835
:10047300C6CD08C6CE08C6CFC0E0E8C0E0EAC0E0FB
:10048300EBC0E009E9F809E7FA09E7FBE6F918E642
:10049300F8C3EC98ED99EE9AEBC2E7F5F0EFC2E7FB
:1004A30095F0500E600CEBCFFBEACEFAE9CDF9E8FC
:1004B300CCF8EAA2E7D2E7FAEB33FB13F5F0EEA2AE
:1004C300E7D2E7FEEF33FFC5F013A2E730E601B34F
:1004D30013C5F0C3C0E0C0F07F00C39BFB605E9414
:1004E30018600F401D14601AD0E023F9D0E0F80221
:1004F30005CA8AF0E9486003D2F0E4AFF0FAF9F8EC
:10050300803BEB30E40D89F0EA6003D2F0E4AFF016
:10051300F9CAF8EB30E30D88F0EF6002D2F0AFF0E8
:10052300E4CAC9F8EB54076014FBC3EA13FAE913EE
:10053300F9E813F8EF135002D2E0FFDBEDD0E0C08F
:10054300E030E739C3E49FFFF5F0EC98FC42F0EDAF
:1005530099FD42F0EE9AFE42F0D0E0F9D0E0F8E5E2
:10056300F0607AE923F9EE20E742D8028067C3EF0F
:1005730033FFEC33FCED33FDEE33FE80EAEC28FC75
:10058300ED39FDEE3AFED0E023F9D0E0F8400280E9
:100593001BC3EE13FEED13FDEC13FCEF135002D25D
:1005A300E0FF08B800067F7F74FF802EEF335017FB
:1005B3008CF020F00260100CBC000C0DBD00080E86
:1005C300BE000408E860DFE933E813FFEE2313FEFF
:1005D3004F4D4C8008E95480FFE4FEFDFCEE33EF01
:1005E30033F47004FCFD7E80D0E0FBD0E0FAD0E071
:1005F300F8D0E0CFC618CEC618CDC618CCC6F9229F
:100603001216F07004181818221216FF700D74FFDA
:10061300F61819F61819F61819F622E7548066F633
:100623001217AE700F1217A570F014F608F608F63D
:1006330008F680D11217A5700CF608F60876800824
:10064300E6447F80EC12155C700C12158460BFE6E3
:100653005480F6E480BB121584700519191980A51E
:10066300E869700C763F18768018F618F6E8F922D8
:10067300E6CDC0E018ECC0E0E633CD33CDD313F6BE
:10068300E719FCE7191933CC33C3947F400ECD9D92
:10069300502408E65480F6E418F6800FF4043D1461
:1006A300501408E6447FF6187680E418F618F6D05E
:1006B300E0FCD0E0FD22CCD313CCFD18E4C6CBC0C4
:1006C300E018E4C6CAC0E00808ED08C633E613F62E
:1006D30018E433C675F003C3CA97CA09CB97CB197D
:1006E3009C40047D08802EBD00030207AC16B6FFB4
:1006F300050606081618C3CA33CACB33CB33CA2739
:10070300CA09CB37CB193CC37D08803E187D08202E
:10071300E75CC633C6CA33CACB33CB33DDF1D5F07E
:10072300EB30E77BCA97CA09CB974ACB199C406F3A
:100733004B7025E620E0218066187D08C3CA97CA5E
:1007430009CB97CB199CD3C633C6CA33CACB33CB99
:100753003350C9DDE7D5F0E1D3E4C636C608C63663
:10076300C608C636C608C636C61818188031C3CAA6
:1007730097CA09CB97CB199CB34097C633C6CA33E4
:10078300CACB33CB33DD34D5F02EC6A2E0C640C886
:10079300CA27CA09CB37194A70BECB3CB480B90803
:1007A30008E63308E633601F181818D0E0FAD0E0E3
:1007B300FBD0E0FCD0E0FD22187D08CA27CA09CB94
:1007C30037CB193CD3808013F618E4B67F11F618A3
:1007D300B6FF0EF618C60470D20808768080CAF6F3
:1007E30018F618F680C5001216F0604F1216FF6057
:1007F30012E7548066F612158170111217A5703B2B
:10080300090909F4F618F618F618F62212155970A4
:10081300151217AE08080860EAE6447FF6187680DA
:1008230018E4F618F6221217AE60161217A5701206
:10083300E4F608F608F608E65480F60909091818DC
:100843001822EAC0E0EBC0E0ECC0E0EDC0E0E687D0
:10085300F0A4FBACF008E687F0A42CFCE435F0FA36
:100863001809E687F0A42C4B60027401CA35F0FC2A
:10087300E433FB09E687F0D2F7A42CCB35F0FC195F
:1008830008E687F0A42BCC35F0FBE433FD0819E62A
:1008930087F0D2E7A42C4ACB35F0CD3400FC09E62F
:1008A30087F0D2E7A42DCC35F0FDE433FA0918E63E
:1008B30087F0D2F7A42CCD35F0CA3400FC08E687C4
:1008C300F0D2E7D2F7A42ACC35F07A7E20E70B0AE0
:1008D300CB33CBCD33CDCC33CC33CB3350147004AB
:1008E300ED30E00ED2F1E4CD3DCDCC3CCC3B500518
:1008F300DA05C2F1EB547FC63308E63392F0FBE727
:100903003309E733C39A502D2B70190C0D4C4D70DE
:10091300151806E608C333700D20F10AA2F013F68A
:10092300E418800B4024E4F630F002768018F618C1
:10093300F618F68024D33B14501074FFA2F013F67C
:10094300187680E418F618F6800FA2F013F618E66E
:100953003303F618ECF618EDF6D0E0FDD0E0FCD04A
:10096300E0FBD0E0FA22C0E074F1120E7AA2AFE409
:1009730033F509D2AF85A708AFA1EF5508FE741070
:100983005E60061219CA75A1EF74085E6008121939
:10099300D075A1F78024EFA2E092F0E508A2E082EF
:1009A300F05017906198E0F890051CE0C398A2D22C
:1009B30065D0335002E8F075A1FEE509A2E092AFDD
:1009C3007F02020ED9C0E074F2120E7AA2AFE433B2
:1009D300FED2AF9061A4E0F8759B00E591585408EE
:1009E30060087591F7121A188023E5915854106026
:1009F300087591EF121A1E8014E591A2E092F0E8B7
:100A0300A2E082F05007E0C2E0F0121B7A9061A3EB
:100A1300E0F8E5E9585404600E121B5075E9FB90A9
:100A23006193E0A2E640F2EEA2E092AF7F01020EF4
:100A3300D9C0E074F2120E7AA2AFE433FED2AF90C3
:100A430061A5E0F8E5BF585404600675BFFB121BAF
:100A53009280D4C0E0C0D0E8C0E0E9C0E0C082C06A
:100A630083A8C1E8C0E09004C9E0F8744828F5827F
:100A7300E43404F583D0E0F09004C8E0F8A3E06820
:100A83007006E5959004CBF09004C9E004F0C3949C
:100A9300804002E4F0A374C6F0D083D082D0E0F9A2
:100AA300D0E0F8D0D0D0E032C0E0C0D0E8C0E0E978
:100AB300C0E0C082C08390050CE0F8A3E068700832
:100AC300539AFBA374018022C2E990050CE0F874E9
:100AD3000128F074CC28F582E43404F583E0F5C1F1
:100AE30090050CE0C394404002E4F080AC120B3B51
:100AF30030F039120B808034120B3B20F01430E7B6
:100B03002B74FFFCFBFA747F8022E4FCFBFA7480F5
:100B1300801AB48008BC00F2BB00EF800F50EBF9E1
:100B2300E4C39AFAE49BFBE49CFCE499C6CC18C6A4
:100B3300CB18C6CA18C6F922E4C9C608CAC608CB68
:100B4300C6D3330308CCC63392F0C3947F402E94AC
:100B5300184019C9B90704CACBCC225025C309CA06
:100B630033CACB33CBCC33CC33D9F422F4600DC9A5
:100B7300CCC313CB13CBCA13CAD9F6CC22E4FCFBE8
:100B8300FA2214FCFBFA22C3E498F8E499F9120B55
:100B9300CB8026C3E49AFAE49BFBE920E7E9120B36
:100BA300CBE498F8E499F922C3E498F8E499F912AC
:100BB3000BCBE498F8E499F9C3E49AFAE49BFB229B
:100BC300EB20E7CFE920E7E0B90010BB0008E88A93
:100BD300F084F8AAF022E4FBC8FA22EB70227B101F
:100BE300C833C8C933C9335007C39AC3DBF280067D
:100BF3009A50012ADBEAC833F4C8C933F4C9FA228C
:100C030075F008E4C833C8C933C933C99AC99B50BE
:100C130004C92AC93BD5F0ECFBC833F4C8E4C9FACC
:100C230022C0E074F2120E7AA2AFE433FED2AF9088
:100C330006C8E05589600FE589FA7900121E4490D1
:100C430006C8E0F45289C2C5EEA2E092AF7F01026A
:100C53000ED9C0E074F2120E7AA2AFE433FED2AF23
:100C63009006C9E0558A600FE58AFA7901121E449D
:100C73009006C9E0F4528AC2EB80CDC0E074F21250
:100C83000E7AA2AFE433FED2AF9006CAE0558B6072
:100C93000FE58BFA7902121E449006CAE0F4528BD8
:100CA300C2E880A4080808EAC0E0EBC0E086F0E7E9
:100CB300A4FA180986F0E7A42AFA180986F0E7A42B
:100CC3002AFA180986F0E7A42AFA1986F0E7A4FBA2
:100CD300E5F02AFA190886F0E7A42BFBE5F03AFAC7
:100CE300190886F0E7A42BFBE5F03AFA18180986F1
:100CF300F0E7A4C5F02BFBE43AFA1908E7C5F0C600
:100D0300A426F6E5F03BFBE43AFA1886F0E7A4F6EE
:100D1300E5F00826F6E43B08F6E43A08F6D0E0FBF3
:100D2300D0E0FA22080808E630E7111215BD120DCB
:100D33003F080808C64480C618181822181818E96E
:100D4300799EC608CAC608CBC608CCC6C37020792C
:100D530096CACBCC7019798ECBCC70137986CC70B4
:100D63000EF9802ACA33CACB33CBCC33CC331930F8
:100D7300E7F2CCCBCA3350147004EA30E00DE4CA76
:100D83003ACACB3BCBCC3CCC500209C3E913C6CC0B
:100D9300182313C6CB18C6CA18C6F922E4CFC0E07D
:100DA300E4CEC0E0E4CDC0E0E4CCC0E075F020E6E2
:100DB30026F608E633F608E633F608E633F618189F
:100DC30018EC33FCED33FDEE33FEEF33FFC3EC974A
:100DD30009ED9709EE9709EF97191919400FFFECE1
:100DE30097FC09ED97FD09EE97FE191906D5F0BF9B
:100DF300ECF709EDF709EEF709EFF7191919D0E048
:100E0300FCD0E0FDD0E0FED0E0FF222518C582C073
:100E1300E0E51934FFC583C0E0E518C3958224F8E3
:100E230010AF088583198582188008858319858208
:100E330018D2AFCEF0A3E520F0A37808E608F0A31C
:100E4300DEFAEFF0A3E58124FAF8E608F0A3E6085A
:100E5300F0A3E608F0A30808E608F0A3E608F0A369
:100E630015811581D0E0FED0E0F81581158115813B
:100E7300E8C0E0EEC0E022C0D02518C582C0E0E59E
:100E83001934FFC583C0E0E518C3958224F310AF7E
:100E9300088583198582188008858319858218D26D
:100EA300AFC8F0A3E9F0A3EAF0A3EBF0A37908E756
:100EB30009F0A3D8FAECF0A3EDF0A3EEF0A3EFF062
:100EC300A3D0E0F0A3D0E0F0A3D0E0F0A3E520F0BE
:100ED300A3E5F0F0A322851983851882E0C0E0A37F
:100EE300E0F9A3E0FAA3E0FBA37808E0F608A3DFA8
:100EF300FAE0FCA3E0FDA3E0FEA3E0FFA3E0C0E073
:100F0300A3E0C0E0A3E0F5D0A3E0F520A3E0A3F5C0
:100F1300F010AF08858319858218800885831985A9
:100F23008218D2AFD082D083D0E0F8D0E03212154D
:100F3300C0181818120D9F12168F1919192212169C
:100F43008F191919080808E618181820E7E0120D78
:100F53009F1215C018181822090909E71919192031
:100F6300E7DC080808E618181820E703020D9F12AB
:100F730015C0181818120D9F1215C018181812163C
:100F83008F19191922121790B90003020FC7E490A1
:100F930003F1783A791B8002F0A3D8FCD9FA7A2AB4
:100FA3007B1E90008678CD79018015E493A3AD82F2
:100FB300AE838A828B83F0A3AA82AB838D828E83D6
:100FC300D8E9D9E77582067583CC74071213E875DF
:100FD30082FA75833774001213E8E473FF75F01017
:100FE3008E1A8F1B85821F85831E85188285198320
:100FF300E0CEA3E0CF851F82851E83EBC9EAC8ED4F
:10100300CBECCAC3E833C8E933C9EA33CAEB33CB01
:10101300C3EA9EF51DEB9FF51CB35004AB1CAA1D40
:10102300EC33CCED33CDD5F0DAAE1AAF1B2212166A
:10103300F0601C1216FF60171217AE70071217A587
:101043007001D322C0D01217A57006D0D0B322C32B
:101053002233D0D0501430E0F6C3E7960809E79660
:101063000809E7960809E796B32220E0D5E6970832
:1010730009E6970809E6970809E697B322D083D0D3
:1010830082ECC0E0EDC0E0E493A3FCE493A3FDEDA8
:101093004C600D1211A4EC24FFFCED34FFFD80EF36
:1010A300E493A3FCE493A3FDED4C600D1212ABECAF
:1010B30024FFFCED34FFFD80EFD0E0FDD0E0FCE445
:1010C30093A3C0E0E493C0E0221216F0601B121653
:1010D300FF60161217AE70071217A5600CB322C07B
:1010E300D01217A57005D0D022C32233D0D050130D
:1010F30030E0EBC3E7960809E7960809E796080985
:10110300E7962220E0E4E6970809E6970809E697C0
:101113000809E69722D083D082E9C0E0E493A3C311
:1011230086F0C5F095F0F908E493A386F0C5F09531
:10113300F0700BE493A3C3994005E9048002A3E490
:1011430075F002A42582F582E5F03583F583D0E0BE
:10115300F9E493A3C0E0E493C0E0228519838518E2
:1011630082E0A3FEE0A3F5207808E0A3F608DFFA07
:10117300E0A3FFE0A3C0E0E0A3C0E0E0A3C0E0E0A1
:10118300A3C0E0E0A3C0E010AF08858218858319EF
:101193008008858218858319D2AFD083D082021349
:1011A300EEC0E0C3E49396087401939618400FE4ED
:1011B3009366700808740193661870007019A3A3EE
:1011C300C3E49396087401939618A3A3400DD0E04B
:1011D300D0E0D0E00210BCA3A3A3A3A3A3D0E0223A
:1011E300C0E074F2120E7AC2D9901E71E0C394006B
:1011F300A2D265D0334005E0F91221C87F01020E67
:10120300D9C0E074F2120E7AC2DC901E73E0F9C307
:101213009400A2D265D03340031221C880DE740447
:10122300800474028000CCC0E0EDC0E0E518C39CEC
:10123300CCAD1950011D10AF068C188D1980068C8A
:10124300188D19D2AF12136AD0E0FDD0E0FC2274DE
:10125300028000CCC0E0EDC0E0E518C39CCCAD1922
:1012630050011D10AF068C188D1980068C188D192E
:10127300D2AF121326D0E0FDD0E0FC221216F060AC
:10128300251216FF60201217AE70030217A5080877
:1012930008E76670101819E766700A1819E7667090
:1012A300041819E76622F422C0E0C0F088F0E49342
:1012B3006670080874019366187000A8F0A3A37001
:1012C3000BD0F0D0E0D0E0D0E00210BCA3A3D0F06C
:1012D300D0E022D083D082CCC0E0E493A360061296
:1012E300138B1470FAE493A360061214EE1470FACD
:1012F300D0E0FCE493A3C0E0E493C0E022C008C3C1
:10130300E096F50808A3E096420808A3E096420891
:1013130008A3E0964208A2D265D033E5087001D352
:10132300D00822CAC0E0E493A3C582CCC582C5839A
:10133300CDC583F0A3C582CCC582C583CDC583DA71
:10134300E5D0E0CA22A2E792D65002F40430F706B1
:1013530063F0FF05F0B3400384800384F40430D6C4
:101363000563F0FF05F022CAC0E0E0A3C582CCC547
:1013730082C583CDC583F0A3C582CCC582C583CD89
:10138300C583DAE6D0E0CA22C0E0E493A3D39C503D
:1013930010E493A3C39C400AD0E0D0E0D0E0021253
:1013A300F3A3A3A3D0E0227009080808226016184B
:1013B3001818C6C333C608C633C608C633C608C61C
:1013C30033C6D5E0EA22C008C3E096F50808A3E0D7
:1013D30096420808A3E096420808A3E096450870E1
:1013E30001D3D00822C09FF59FE473D09F22D083FE
:1013F300D082C09FE493C0E0740193C0E074029371
:10140300F59F227404800A740380067402800274B8
:1014130001C0E0F40412143CD0E012173B2200C0D8
:10142300D0251810AF08F518500C05198008F518C9
:1014330050020519D2AFD0D0222518F58210AF087B
:10144300F518400C15198008F51840021519D2AF8C
:1014530085198322BB0102E722C082C08389828A65
:1014630083BB0003E08002E493D083D08222C0E0F8
:10147300C0D0E8C0E0A8A8D2AFC2C7E8A2E792AF45
:10148300D0E0F8D0D0D0E0326017080808C6A2E751
:1014930013C618C613C618C613C618C613C6D5E096
:1014A300E9226016080808C6C313C618C613C6186F
:1014B300C613C618C613C6D5E0EA22C3E0C696F61D
:1014C30008A3E0C696F608A3E0C696F608A3E0C60E
:1014D30096F6222518F8E43519F9222518FAE43589
:1014E30019FB222518FCE43519FD22C0E0E493A37F
:1014F3006C7009D0E0D0E0D0E00212F3A3A3D0E0F7
:1015030022251810AF08F518400C15198008F51896
:1015130040021519D2AF22E76670100809E766701A
:101523000A0809E76670040809E76622C3E096081B
:10153300A3E09608A3E09608A3E096A2D265D03371
:1015430022E066701008A3E066700A08A3E06670E4
:101553000408A3E06622191919E70947097009E786
:1015630027097005E733F4220922C3E096F008A3A4
:10157300E096F008A3E096F008A3E096F02218188E
:1015830018E60846087009E626087005E633F422D3
:101593000822C3E493960874019396087402939601
:1015A300087403939622C3E697F60809E697F608AC
:1015B30009E697F60809E697F622181818E4C39681
:1015C300F608E496F608E496F608E496F622E05662
:1015D300F008A3E056F008A3E056F008A3E056F0A5
:1015E30022E667F60809E667F60809E667F60809DA
:1015F300E667F622E493F608740193F608740293FF
:10160300F608740393F622E657F60809E657F60838
:1016130009E657F60809E657F622E627F60809E62B
:1016230037F60809E637F60809E637F622E026F624
:1016330008A3E036F608A3E036F608A3E036F62260
:10164300E026F008A3E036F008A3E036F008A3E0B4
:1016530036F022E647F60809E647F60809E647F6B4
:101663000809E647F622700422600D18C6C333C684
:1016730008C633C6D5E0F41822E056F608A3E056B0
:10168300F608A3E056F608A3E056F622E4C397F75C
:1016930009E497F709E497F709E497F722600D083F
:1016A300C6A2E713C618C613C6D5E0F322C6F4C60E
:1016B30008C6F4C608C6F4C608C6F4C622C3E09634
:1016C30008A3E09608A3E09608A3E09622C3E79652
:1016D3000809E7960809E7960809E7962275D000F6
:1016E30075813F7518F175190300020F88E60846E6
:1016F30008C3134608336002E633F422E7094709B7
:10170300C3134709336002E733F422600C08C6C3EE
:1017130013C618C613C6D5E0F422E6F008A3E6F014
:1017230008A3E6F008A3E6F022E0F608A3E0F60833
:10173300A3E0F608A3E0F622CAC0E0E6F0A308DAC5
:10174300FAD0E0FA22E0FCA3E0FDA3E0FEA3E0FF71
:1017530022EAF0A3EBF0A3ECF0A3EDF022E0FAA36E
:10176300E0FBA3E0FCA3E0FD22E8F0A3E9F0A3EA99
:10177300F0A3EBF022ECF0A3EDF0A3EEF0A3EFF077
:1017830022E0F8A3E0F9A3E0FAA3E0FB22E5C754C3
:10179300F84401F5C77901222518F582E43519F5D6
:1017A3008322E72719471947194722E626184618BF
:1017B30046184622C2AF75D69F020000221213F1CB
:1017C3005BD3051213F1ADD4051213F163D50512E2
:1017D30013F162D6051213F195D7051213F170AE0A
:1017E300071213F102AF071213F141B0071213F1FD
:1017F3005DB0071213F144DA071213F155DA071239
:1018030013F1F3DA071213F1FEDA071213F1F6FFFD
:10181300021213F1E5FF061213F167FF031213F12E
:1018230077FF031213F18CFF031213F1F2FF03127C
:1018330013F142D8071213F1C5D8071213F12BD9AC
:10184300071213F106CA071213F141CA071213F163
:101853009DCA071213F1F5CA071213F17CCB0712C5
:1018630013F1B8CB071213F1EDFF011213F1FDFFD2
:10187300011213F101A7071213F157A7071213F16E
:10188300A6A7071213F1D3A7071213F129A807126A
:1018930013F1CDDE071213F167C3071213F1B1C3BE
:1018A300071213F147C4071213F1CDC4071213F142
:1018B300FEC4071213F116C5071213F18AC50712E6
:1018C30013F1A0C5071213F1B3C5071213F1BDC578
:1018D300071213F131F4031213F17DF9031213F11B
:1018E300AFF9031213F1DBF9031213F183FA0312B5
:1018F30013F179FD031213F10080061213F16580D1
:10190300061213F11581061213F1E281061213F187
:101913003883061213F12284061213F12985061265
:1019230013F10987061213F13C87061213F1A687F8
:10193300061213F1CD87061213F13389061213F140
:10194300B789061213F1CB89061213F124B90612D3
:1019530013F19FBA061213F1BEBB061213F193BD26
:10196300061213F17AF5061213F1A6F5061213F116
:1019730017F8061213F157F8061213F197F8061227
:1019830013F1ABF8061213F1C4F8061213F1B5F90B
:10199300061213F15AFA061213F16EFA061213F134
:1019A300D9D0071213F1FDD0071213F116D1071284
:1019B30013F148D1071213F178D1071213F1A5D10E
:1019C300071213F107D2071213F116D2071213F1FC
:1019D30020D2071213F12DD2071213F1D1C007122F
:1019E30013F1F1C0071213F130C1071213F14BC108
:1019F300071213F16AC1071213F1D0C1071213F1D1
:101A0300D9C1071213F136C2071213F15AC20712D2
:101A130013F11BC3071213F128C3071213F139C3C0
:101A2300071213F1BCDD071213F1D4DD071213F112
:101A330000DE071213F1FF84071213F15386071216
:101A430013F16186071213F17486071213F1898665
:101A5300071213F19E86071213F1B186071213F1D1
:101A63002587071213F18A87071213F12C880712AF
:101A730013F1F088071213F10089071213F10F898C
:101A8300071213F1CFDB071213F1F3DB071213F184
:101A93001BDC071213F143DC071213F18EFF021252
:101AA30013F1D0C5071213F1F7C5071213F115C6C9
:101AB300071213F188C6071213F12BB8071213F19B
:101AC30044B8071213F150B8071213F164B80712A0
:101AD30013F182B8071213F18CB8071213F196B8F9
:101AE300071213F1A9B8071213F133B9071213F14F
:101AF300A8B9071213F1DCB9071213F12ABA0712B6
:101B030013F177BA071213F192BA071213F19CBAC1
:101B1300071213F1C2BA071213F127BB071213F10D
:101B230016DB071213F138DB071213F1E87F0012FB
:101B330013F1418A061213F16B8A061213F1888A94
:101B4300061213F19B8A061213F1B18A061213F1DE
:101B53000F8B061213F1478B061213F13F8F0612F8
:101B630013F18490061213F1B790061213F11A9130
:101B7300061213F19392061213F1BB92061213F19C
:101B8300D092061213F1E092061213F12493061277
:101B930013F17F93061213F18F93061213F10BD6F1
:101BA300071213F125D6071213F14DD6071213F1BD
:101BB30066D6071213F18AD6071213F1A8D60712B5
:101BC30013F1BFD6071213F1EDD6071213F108D79D
:101BD300071213F147DE071213F1E9AA071213F1F3
:101BE300F9AA071213F1FEAB071213F130AC071277
:101BF30013F156AC071213F179AC071213F190AC41
:101C0300071213F1CAAC071213F12FAD071213F128
:101C130071AD071213F1B0AD071213F1E1AD071265
:101C230013F118AE071213F173F8051213F15DF9EE
:101C3300051213F188F9051213F1A5F9051213F131
:101C4300ACFA051213F1F0FA051213F15EFB05125B
:101C530013F1D1FB051213F17BFC051213F186FD81
:101C6300051213F17CFE051213F1D79A071213F133
:101C73002C9B071213F1AC9B071213F1BF9B0712A6
:101C830013F1E69B071213F1899C071213F16A9D66
:101C9300071213F1D9AF061213F104B0061213F1B0
:101CA300CFB0061213F10CB1061213F19DB1061257
:101CB30013F119B5061213F12CB7061213F136C836
:101CC300041213F176C8041213F177CA041213F144
:101CD30077CD041213F199CE041213F103D2041237
:101CE30013F177D2041213F111D3041213F168D351
:101CF300041213F1D0D3041213F120D4041213F1FC
:101D03004ED4041213F151D4041213F161D404120A
:101D130013F174D4041213F1BFD4041213F17CD65B
:101D2300041213F1E1D6041213F134D7041213F1A0
:101D3300D0D7041213F15CD8041213F15BDA041246
:101D430013F104DC041213F1CBDD041213F1B7DE3B
:101D5300041213F163E0041213F1D9FE011213F11B
:101D6300F3FE011213F149FF011213F177FF011280
:101D730013F191FF011213F1AAFF011213F1D3FF23
:101D8300011213F1CAD3061213F1FBD3061213F196
:101D93004FD4061213F11FD5061213F14CD50612B8
:101DA30013F179D5061213F1CBD5061213F1F5D53C
:101DB300061213F119D6061213F141D6061213F1C6
:101DC300C3D6061213F14DD7061213F17ED70612AE
:101DD30013F1A5D7061213F1EBD7061213F109D8A5
:101DE300061213F12DD8061213F14DD8061213F172
:101DF30083D8061213F1E2D8061213F104D906129E
:101E030013F163D9061213F172D9061213F1ABD988
:101E1300061213F121F7041213F15BF7041213F105
:101E230096F8041213F1C2F9041213F16DFE0412B1
:101E330013F1BAD9061213F1F4D9061213F19BDA8E
:101E4300061213F13BD7071213F1ACD7071213F1A4
:101E53000ED8071213F166E3051213F196E4051287
:101E630013F1ABE5051213F1EBE6051213F145E7A8
:101E7300051213F183E7051213F191E7051213F12C
:101E8300C1E7051213F152E8051213F1AEE9051289
:101E930013F1DAEA051213F174EC051213F1E8ED0C
:101EA300051213F1D6B1071213F138B2071213F169
:101EB30071B2071213F16AB4071213F182FA061210
:101EC30013F1C5FA061213F1FBFA061213F122FC01
:101ED300061213F1B6FD061213F11CFE061213F1DE
:101EE3004FFF061213F12E9D061213F13F9E0612A9
:101EF30013F1B59E061213F1AE9F061213F1FC9F68
:101F0300061213F177A3061213F157A4061213F165
:101F1300ACA4061213F18CA5061213F19BFE041256
:101F230013F1D8FE041213F107FF041213F11BFF80
:101F3300041213F12892071213F13A93071213F1C3
:101F43001D94071213F13E94071213F1079507121C
:101F530013F1A995071213F1DA95071213F15A96A3
:101F6300071213F148C7061213F1AAC7061213F199
:101F730049C8061213F1D4C9061213F1D2CC0612C2
:101F830013F1E8CC061213F175CF071213F195CFB5
:101F9300071213F1A9D0071213F1ACD0071213F1F2
:101FA30088D3071213F1BED3071213F1D8D3071244
:101FB30013F11AD4071213F12AD4071213F1C4D45C
:101FC300071213F14DC0061213F157C0061213F195
:101FD30091C0061213F1FAC0061213F117C10612CB
:101FE30013F1B9C1061213F1C2C1061213F107C2EC
:101FF300061213F130C2061213F13DC2061213F199
:10200300AEC2061213F139C3061213F187C30612C7
:1020130013F1C5C3061213F12AC4061213F14DC4FA
:10202300061213F1C4C4061213F11BC5061213F1F1
:1020330056C5061213F18BC5061213F19DC5061280
:1020430013F1AFC5061213F1CEC5061213F1D7C5AE
:10205300061213F192C6061213F1DEC6061213F12D
:102063001CC7061213F137D2071213F177D30712E5
:1020730013F1B7DF071213F121B5071213F165B599
:10208300071213F1ADB5071213F193B7071213F14A
:1020930022B8071213F16DFF061213F10080051227
:1020A30013F12481051213F15E81051213F10883E4
:1020B300051213F13283051213F1A785051213F1EB
:1020C300E785051213F17D87051213F11A880512AE
:1020D30013F16C88051213F10F89051213F1478967
:1020E300051213F18989051213F1F88A051213F108
:1020F300468C051213F1778E051213F1A58E051286
:1021030013F1CC8E051213F1D58E051213F1258F21
:10211300051213F1B78F051213F1E692051213F1AD
:102123006993051213F1DDFF051213F1F3FF051295
:1021330013F1019F071213F1179F071213F1BB9FAE
:10214300071213F1FA9F071213F117A0071213F1E5
:1021530048A0071213F195A0071213F1C8A00712A4
:1021630013F103A1071213F1F8A2071213F1AACD79
:10217300061213F1B1CF061213F1F0D0061213F1C8
:1021830008D1061213F14889071213F18E8A071238
:1021930013F1F58B071213F144F7021213F167F8E9
:1021A300021213F16EF9021213F1CEFA021213F1B5
:1021B300F0FB021213F1D1FC021213F1F3C7071261
:1021C30013F1A1C8071213F1B693051213F17B940F
:1021D300051213F18894051213F13995051213F1C1
:1021E3009895051213F1A697051213F11698051287
:1021F30013F11B9A051213F1549A051213F1039D5F
:10220300051213F12B9D051213F1AD9D051213F168
:10221300289E051213F1B29F051213F141A0051276
:1022230013F1BDA0051213F15AE5061213F181E56E
:10223300061213F1DCE7061213F103E8061213F199
:1022430058E8061213F18AE9061213F106EA061298
:1022530013F100BE071213F118BE071213F163BF87
:10226300071213F16ABF071213F193BF071213F199
:1022730044D9071213F1A3D9071213F1E1D90712B5
:1022830013F122DA071213F1B5C1051213F11EC2BD
:10229300051213F169C2051213F196C2051213F167
:1022A3007BC4051213F15EC8051213F1ECC90512C4
:1022B30013F1F7CA051213F10DCC051213F103EB59
:1022C300061213F129EB061213F169EC061213F14E
:1022D3005EED061213F185ED061213F11EEE0612E2
:1022E30013F172EE061213F18DEF061213F168DC8F
:1022F300071213F1B2DC071213F1A1DF061213F177
:10230300FEDF061213F1DCE0061213F14BE10612B5
:1023130013F16FE1061213F156E2061213F1B6E25E
:10232300061213F167E3061213F1F0E3061213F139
:1023330056DF071213F169DF071213F1CED4071228
:1023430013F1DDD4071213F13DD5071213F17ADF30
:10235300071213F180DF071213F186DF071213F15F
:102363000080041213F10C80041213F16E80041226
:1023730013F17880041213F10B81041213F14781D6
:10238300041213F10382041213F11682041213F1DF
:102393006682041213F1F582041213F12B830412E3
:1023A30013F1AD83041213F15C85041213F130872A
:1023B300041213F11688041213F16889041213F13D
:1023C300BE8B041213F1278D041213F1C48D041272
:1023D30013F16C92041213F15A93041213F1F8934C
:1023E300041213F12494041213F1C094041213F190
:1023F300D594041213F1F994041213F15F950412A6
:1024030013F17C95041213F1A695041213F123978B
:10241300041213F14497041213F1CA97041213F12F
:102423007098041213F1B798041213F12A99041245
:1024330013F1B699041213F11A9A041213F17A9A4A
:10244300041213F1109B041213F18B9B041213F16A
:10245300BE9B041213F1209C041213F1829D0412FB
:1024630013F1F29D041213F1A19E041213F1F79FCD
:10247300041213F18FA0041213F1FBA0041213F141
:102483003EA3041213F1CAA4041213F1F5A4041217
:1024930013F1DBA6041213F171A8041213F17AA944
:1024A300041213F1DBB3051213F192B4051213F105
:1024B30099B5051213F117B6051213F159B70512A1
:1024C30013F17AB7051213F132B8051213F1DDB81F
:1024D300051213F1BDBC051213F1D9BE051213F198
:1024E30040C0051213F103DE071213F1BDD6031228
:1024F30013F118D7031213F1A2D7031213F113D94F
:10250300031213F1EBD9031213F1D4DA031213F10B
:10251300EBDA031213F13DDB031213F1A1DB031218
:1025230013F1E2DB031213F1F5DB031213F14BDCBE
:10253300031213F1A4DC031213F1BCDC031213F135
:1025430049DF031213F1DEDF031213F108E0031274
:1025530013F151E0031213F141E2031213F1ABE261
:10256300031213F17FE3031213F1C2E3031213F116
:10257300DCE3031213F123E4031213F145E4031222
:1025830013F1EFE4031213F1E7E5031213F141E64C
:10259300031213F192E6031213F12AE8031213F163
:1025A300A2EA031213F120EB031213F14DEB031212
:1025B30013F1C0EB031213F1E3EB031213F15DEC20
:1025C300031213F128ED031213F165ED031213F156
:1025D300C7ED031213F188EE031213F18BEE03120E
:1025E30013F195EE031213F19FEE031213F1B2EE02
:1025F300031213F124EF031213F14DEF031213F13E
:1026030060EF031213F18CEF031213F1B3EF031214
:1026130013F1D7EF031213F112F0031213F184F045
:10262300031213F1ACF0031213F1EDF0031213F1E3
:1026330022F1031213F142F1031213F17FF103129A
:1026430013F1B6F1031213F1B6F2031213F1E9F326
:10265300031213F1FFF3031213F164DD071213F1F5
:102663007CDD071213F1F3FF021213F1E878001275
:1026730013F13779001213F1D77A001213F1927C18
:10268300001213F1D47C001213F1BD7D001213F17B
:10269300C77E001213F1E97E001213F1337F00129B
:1026A30013F1B47F001213F12ED8021213F151D893
:1026B300021213F144D9021213F18DD9021213F14C
:1026C300E5D9021213F143DA021213F18FDA02127F
:1026D30013F15DA9061213F191DB021213F106DC6B
:1026E300021213F149DC021213F129E0021213F171
:1026F30078E2021213F1ABE2021213F122E30212A7
:1027030013F153E6021213F1C8E6021213F153E870
:10271300021213F160E9021213F176EA021213F1C5
:10272300ECEA021213F1B3EB021213F11CEC0212E6
:1027330013F11FEC021213F1FCEC021213F138EE49
:10274300021213F1F3EF021213F19FF1021213F1CC
:1027530091F2021213F121F3021213F175F4021232
:1027630013F197F5021213F1EEF5021213F179D07A
:10277300051213F1AAE1041213F14AE2041213F150
:10278300B4E2041213F15BE3041213F1BAE304128B
:1027930013F166E4041213F10FE7041213F135E8A1
:1027A300041213F1B9E8041213F196EA041213F1B7
:1027B3003BEB041213F1DEEB041213F13DEC0412B4
:1027C30013F1F6EC041213F175EE041213F132F067
:1027D300041213F1B3F1041213F10DF3041213F104
:1027E3001DF4041213F1C3F4041213F1E2F50412FD
:1027F30013F1B5AD041213F12DAE041213F175AE3E
:10280300041213F1B9AE041213F102AF041213F15F
:102813004CAF041213F181AF041213F1FFAF041292
:1028230013F159B0041213F1B2B1041213F131B21E
:10283300041213F148B3041213F16AB3041213F12F
:1028430076B4041213F187B4041213F19FB4041283
:1028530013F1BFB5041213F1DCB5041213F1AFB6D3
:10286300041213F1D3B6041213F1EAB6041213F1EE
:102873000BB7041213F12DB7041213F11FB804128E
:1028830013F177B8041213F1EDB9041213F14BBA33
:10289300041213F16ABA041213F19CBB041213F16C
:1028A30019BC041213F186BC041213F1C6BC041242
:1028B30013F128BD041213F1D8BD041213F1AABFFA
:1028C300041213F195C0041213F18FC1041213F112
:1028D30095C2041213F1B1C3041213F1BFC304125E
:1028E30013F198C4041213F138C5041213F17CC513
:1028F300041213F191C5041213F1A2C6041213F1C9
:1029030045C7041213F19DC7041213F132BB07121A
:1029130013F16BBC071213F128BD071213F18CBD21
:10292300071213F105A3071213F123A3071213F1DF
:1029330067A3071213F18DA3071213F1B3A30712B1
:1029430013F1CBA3071213F1E3A3071213F1FBA3B4
:10295300071213F15EA4071213F1A0A4071213F1D7
:10296300C2A5071213F1CBA5071213F1D4A50712C1
:1029730013F1DDA5071213F1E7A5071213F108A65A
:10298300071213F1CE8D071213F1AE91071213F153
:10299300BC91071213F1C191071213F176CC071200
:1029A30013F103DD071213F105DF071213F1E9CD6C
:1029B300071213F199DF071213F10080021213F1CA
:1029C3005780021213F1C380021213F14F810212D6
:1029D30013F10582021213F14D82021213F1668282
:1029E300021213F18982021213F1AB82021213F164
:1029F300E982021213F13883021213F16383021284
:102A030013F1C183021213F16884021213F11085CA
:102A1300021213F18C85021213F15986021213F17B
:102A2300A086021213F1EC86021213F174870212CC
:102A330013F1AD87021213F10388021213F11F88F9
:102A4300021213F14E88021213F15A8A021213F181
:102A5300888B021213F1B48B021213F1E88B02126A
:102A630013F1098C021213F1188C021213F1238C47
:102A7300021213F1D28C021213F1428D021213F1DE
:102A8300CD8D021213F1D58D021213F1428E021273
:102A930013F17E8E021213F1448F021213F1179079
:102AA300021213F16C90021213F10B91021213F143
:102AB3006591021213F1AA91021213F143940212C7
:102AC30013F18695021213F17098021213F15499BF
:102AD300021213F1389A021213F1499A021213F1F6
:102AE300BB9A021213F1529B021213F1B79B02120B
:102AF30013F1A79C021213F1CC9C021213F1EA9C6E
:102B0300021213F1069D021213F1799D021213F1C1
:102B1300889D021213F1109E021213F10D9F0212EF
:102B230013F11A9F021213F1239F021213F105A14D
:102B3300021213F127A2021213F137A2021213F1A8
:102B430065A3021213F1E4A3021213F1FFA402120C
:102B530013F13BA5021213F115A7021213F1D2AA26
:102B6300021213F1E6AA021213F1F0AA021213F1F0
:102B7300FAAA021213F104AB021213F11DAB0212F3
:102B830013F127AB021213F194AB021213F19FABB3
:102B9300021213F1C7AB021213F1D2AB021213F1FB
:102BA30037AC021213F142AC021213F166AC0212FB
:102BB30013F18AAC021213F1FCAC021213F145AD0E
:102BC300021213F161AD021213F1D2AD021213F12D
:102BD3001EAE021213F167AE021213F1A5AE02127A
:102BE30013F126AF021213F1CDAF021213F19CB110
:102BF300021213F101B2021213F12FB3021213F1F5
:102C030055B3021213F19DB4021213F1D7B7021296
:102C130013F1D5B9021213F1A0BB021213F139BC9F
:102C2300021213F13ABE021213F1EFBE021213F1B4
:102C330028BF021213F18EBF021213F198BF0212C2
:102C430013F1C1C1021213F100C3021213F157C3EE
:102C5300021213F102C4021213F1B2C5021213F1EC
:102C6300FFC6021213F11FC7021213F174C7021237
:102C730013F175C8021213F19DC8021213F1FCC8B7
:102C8300021213F1F4C9021213F16BCA021213F107
:102C93007ECB021213F1ECCB021213F1EBCC021236
:102CA30013F145CF021213F16ECF021213F1D4D0F8
:102CB300021213F156D2021213F1ADD2021213F122
:102CC3005BD3021213F100D4021213F159D402128E
:102CD30013F117D5021213F1A9D5021213F108D675
:102CE300021213F14AD6021213F17BD6021213F128
:102CF300D2D7021213F10080031213F132800312B0
:102D030013F16B80031213F12982031213F1FF8273
:102D1300031213F15E83031213F17484031213F18C
:102D2300C084031213F14E87031213F1288A03128E
:102D330013F16F8B031213F1078C031213F1138C2E
:102D4300031213F15C8C031213F19E8D031213F122
:102D5300948E031213F1BE8E031213F1148F031218
:102D630013F16D8F031213F1E08F031213F1169217
:102D7300031213F19893031213F18394031213F1C3
:102D8300CD95031213F10598031213F1029B03125D
:102D930013F1119B031213F1A59B031213F1509C22
:102DA300031213F1939C031213F1DC9C031213F12E
:102DB3002C9D031213F1909D031213F1029E031233
:102DC30013F11E9E031213F14D9E031213F18C9EF9
:102DD300031213F1879F031213F136A0031213F1A9
:102DE300B3A2031213F1E5A3031213F1BDA403125B
:102DF30013F13FA5031213F174A9031213F1A3A94D
:102E0300031213F1FEA9031213F131AA031213F1F2
:102E1300A9AA031213F1DCAA031213F13DAB0312A7
:102E230013F18DAB031213F15AAC031213F113AD6B
:102E3300031213F1D7AD031213F151B0031213F1BF
:102E4300B3B1031213F104B3031213F128B4031241
:102E530013F12BB4031213F15AB4031213F152B644
:102E6300031213F111B7031213F140B7031213F155
:102E73005EB8031213F126B9031213F1E4BA031275
:102E830013F116BB031213F158BB031213F157BC12
:102E9300031213F1CABC031213F1F3BE031213F1AD
:102EA30052BF031213F1A6BF031213F1D5C10312CC
:102EB30013F1B8C2031213F174C3031213F188C3DD
:102EC300031213F19CC3031213F1C9C3031213F1C9
:102ED300F9C3031213F1B4C5031213F1C6C60312E7
:102EE30013F11BC7031213F164C7031213F18BC74A
:102EF300031213F153C8031213F1F9C8031213F1A8
:102F03007FCA031213F1C6CA031213F138CB03129B
:102F130013F18DCC031213F136CD031213F16ACDE5
:102F2300031213F182CD031213F125CE031213F111
:102F3300A1D0031213F149D2031213F167D2031282
:102F430013F185D2031213F151D3031213F19FD658
:102F5300031213F1C684011213F1FE84011213F15B
:102F6300FE89011213F1448A011213F17A8B0112C3
:102F730013F1DF8B011213F1548D011213F15E90E3
:102F8300011213F18791011213F19A9B011213F1AC
:102F93002A9C011213F1149F011213F121A00112B3
:102FA30013F184A0011213F1CCA1011213F13AA47D
:102FB300011213F1CCA5011213F159A6011213F159
:102FC30078A7011213F105A8011213F10FA801123A
:102FD30013F137A8011213F1D7A8011213F1C2A9F3
:102FE300011213F18FAA011213F1ACAA011213F10A
:102FF300D5AA011213F102AB011213F149AD01126B
:1030030013F118AE011213F157AE011213F1D9AE39
:10301300011213F17AAF011213F1ACAF011213F1E4
:10302300F3AF011213F126B0011213F16AB00112CA
:1030330013F1B9B0011213F1BEB0011213F11AB1B9
:10304300011213F15EB1011213F138B2011213F13F
:103053009DB2011213F103B3011213F17EB30112F6
:1030630013F1E6B6011213F1E9B7011213F167B9CF
:10307300011213F17DBC011213F11FBD011213F1F3
:1030830068BF011213F123C0011213F162C00112D0
:1030930013F13AC2011213F157C2011213F160C2C4
:1030A300011213F169C2011213F174C2011213F177
:1030B30093C2011213F137C4011213F194C4011224
:1030C30013F19EC4011213F1A8C4011213F107C531
:1030D300011213F151C5011213F152C6011213F17A
:1030E300A9C6011213F1BAC7011213F103C80112E1
:1030F30013F1BDC8011213F1D4C9011213F1A9CA06
:10310300011213F1F0CB011213F1F4CC011213F1FC
:10311300EDCD011213F105CE011213F13CCE0112D4
:1031230013F146CE011213F150CE011213F15BCE0F
:10313300011213F179CE011213F1C1CE011213F171
:103143001FCF011213F146CF011213F158CF011211
:1031530013F10DD0011213F146D0011213F168D10E
:10316300011213F1BBD1011213F1A1D2011213F118
:10317300C8D2011213F138D3011213F1B4D30112DF
:1031830013F110D5011213F137D6011213F1F9D649
:10319300011213F1C7D7011213F185D8011213F1EC
:1031A3006DD9011213F117DA011213F17FDA01124B
:1031B30013F134DB011213F190DB011213F1E8DB9D
:1031C300011213F1AEDC011213F1D1DC011213F180
:1031D3008CDD011213F1AEDD011213F10FDE0112CA
:1031E30013F13FE0011213F138E1011213F1E4E1AD
:1031F300011213F105E4011213F14EE4011213F16C
:1032030099E4011213F1F5E4011213F153E50112EC
:1032130013F177E5011213F19BE5011213F1D0E5E8
:10322300011213F1F8E5011213F13DE6011213F156
:1032330091E6011213F1EAE6011213F1E4E7011238
:1032430013F182E9011213F1C7E9011213F1F0E955
:10325300011213F179EA011213F1ECEA011213F1ED
:10326300FAEA011213F11EEB011213F174EB0112CE
:1032730013F18FEB011213F14AEC011213F176EC07
:10328300011213F1B9EC011213F11CED011213F148
:103293002AEF011213F156EF011213F111F001128B
:1032A30013F1F5F0011213F189F1011213F1F3EDAA
:1032B300051213F12BEE051213F14CEE051213F167
:1032C3008EEE051213F1F2EE051213F1FCEE051268
:1032D30013F10CEF051213F143EF051213F1ECF2A6
:1032E300051213F1B4F4051213F198F6051213F154
:1032F3003AF7051213F1C4F7051213F12F3F001229
:1033030013F1D83F001213F1B740001213F1C34178
:10331300001213F1E341001213F10543001213F1FC
:10332300B544001213F12245001213F1F3450012C4
:1033330013F1F946001213F17147001213F1AC4770
:10334300001213F10548001213F14048001213F163
:103353008948001213F11D49001213F1B3490012F9
:1033630013F1884A001213F15B4B001213F1E94B7E
:10337300001213F10F4C001213F13C4C001213F125
:103383006D4C001213F13A4D001213F14A4D001225
:1033930013F19D4D001213F1AA4D001213F1B74D15
:1033A300001213F1C04D001213F1244E001213F159
:1033B300824E001213F1CD4E001213F1E84E0012AB
:1033C30013F10F4F001213F12C4F001213F1384F6A
:1033D300001213F1C950001213F1E250001213F15D
:1033E3005E51001213F17151001213F18151001259
:1033F30013F12552001213F19153001213F1A45447
:10340300001213F14455001213F14E55001213F13B
:10341300CD55001213F1DE55001213F11D560012A3
:1034230013F14B56001213F11857001213F16F5793
:10343300001213F1A857001213F1FE57001213F1F3
:103443001C58001213F16A58001213F13559001277
:1034530013F18359001213F1D059001213F1535A87
:10346300001213F17D5A001213F1B35A001213F133
:10347300C25A001213F1215B001213F1995B00127F
:1034830013F1DA5B001213F12A5C001213F1555C9D
:10349300001213F16F5C001213F1895C001213F137
:1034A3005E5D001213F1685D001213F1A35D00125B
:1034B30013F1B35D001213F1045E001213F1185EF1
:1034C300001213F13A5F001213F14F5F001213F170
:1034D300E25F001213F15660001213F1FB60001259
:1034E30013F10661001213F16962001213F1856290
:1034F300001213F1D162001213F13F63001213F1B2
:103503007163001213F18B63001213F1EB6300126A
:1035130013F18A64001213F1D564001213F12867C2
:10352300001213F1C067001213F13768001213F190
:10353300946A001213F1AC6A001213F1AF6A00121D
:1035430013F1BB6A001213F1CF6A001213F1D76AA9
:10355300001213F10E6B001213F1026C001213F13F
:103563008C6C001213F10E6D001213F18E6D0012AC
:1035730013F1656E001213F1876E001213F1206FC1
:10358300001213F17D6F001213F1806F001213F11B
:10359300EF6F001213F13B71001213F14E72001220
:1035A30013F1D972001213F1EC73001213F1B37417
:1035B300001213F1E474001213F10A75001213F1EF
:1035C3001375001213F14275001213F1F275001214
:1035D30013F1A276001213F11577001213F1B877E5
:1035E300001213F12B78001213F16A78001213F111
:1035F300B378001213F15EA8061213F115A8061290
:1036030013F18CA6061213F12FB2051213F1B6B003
:10361300051213F1A3AF051213F17DAD051213F1DA
:1036230026AD051213F169AB051213F1E0A80512DB
:1036330013F16CA8051213F14DA7051213F1A5CFD1
:10364300051213F1A5CE051213F122A6051213F1EB
:10365300CDA5051213F1C6CD051213F115F506120A
:1036630013F15B82071213F15881071213F1E08003
:10367300071213F10080071213F100FE011213F178
:1036830026FD011213F15CFC011213F1CBFA0112B6
:1036930013F194FA011213F166FA011213F11AFAF3
:1036A300011213F183F9011213F1F3F8011213F16B
:1036B300CDF8011213F182F8011213F14CF8011243
:1036C30013F1CFF7011213F16AF7011213F119F78E
:1036D300011213F141F6011213F1B1F5011213F1C5
:1036E30065F5011213F1E0F4011213F19BF40112D9
:1036F30013F17FF4011213F127F3011213F178F49C
:10370300061213F1F9F2011213F13EF1061213F14D
:10371300BBF0061213F168F0061213F1A6DE0712CE
:1037230013F18BDE071213F131DF071213F15CAED5
:10373300061213F1F6AC061213F1C6F2011213F1DD
:103743004AF2011213F1E398071213F1B897071223
:1037530013F18CAC061213F1ED96071213F1829656
:10376300071213F11BE3051213F1C2E2051213F161
:103773002AAC061213F18DE2051213F18BF6021235
:1037830013F158E2051213F124E2051213F1B7E124
:10379300051213F19FE1051213F17AE1051213F1FA
:1037A3004BDE051213F11EDC051213F11EDA0512AE
:1037B30013F1A4D9051213F155D9051213F10FD939
:1037C300051213F1B1D8051213F1E199061213F1A1
:1037D3004F99061213F1A3AA061213F16098061269
:1037E30013F1C696061213F18694061213F1BF93D2
:1037F300061213F105DB0200000080FB8F000100BD
:10380300F61B87000100C41E35000400881E250036
:1038130002008C1E260002008E1E27000200901E4E
:10382300280001009A1E290001009B1E8400040049
:103833009C1E86000100A01E2A000100A11E2B0071
:103843000100A21E2C000100A61E2D000800DE1B95
:103853002E000100A71E2F000100A81E300001004A
:10386300A91E31000100AA1E32000100E61B33002D
:103873000100E71B34000100AB1E36000100E81B0A
:1038830038000100AC1E39000100A51E83000200B0
:10389300C21E63000100F31B64000100A31E650048
:1038A3000100A41E6D000100F41B71000800D61B6B
:1038B30066000100C11E43000100B21E4400020065
:1038C300B31E45000100B51E46000200B61E4700A8
:1038D3000800EB1B48000100B81E4B000100B91E95
:1038E30004000100C51EA1000100C81E370001002D
:1038F300C71E88000100C61E3C000100E91B3D00F5
:103903000100AD1E49000200BA1E67000100F51B4D
:103913004D000200BC1E4E000100BE1E4F000200FF
:10392300BF1E3E000100B11E51000100AE1E520039
:103933000100AF1E53000100B01E54000100EA1B3A
:103943000000000000000001363601010001020101
:10395300000103010001040106060502000007013E
:1039630000340801000F090401010D0100FF0E08D6
:10397300000017020000190100FF1A0100011B01DA
:1039830000FE1C0100081D0200001F0100012001B0
:103993000001210200002301000F24020000260180
:1039A300000127010008280200FF2A0100072B015C
:1039B30002402C0100002D0100012E0100012F0106
:1039C30000FF30010B1D310800003A0100083B01E4
:1039D300000F3C0100013D0100FF3E0400004204D2
:1039E3000000460400004A0400004E040000520494
:1039F3000000560400005A040000000000002001EB
:103A0300C184000001002001C184000002002001E4
:103A1300C484000003002001C284000004004201AA
:103A23006D800000050042017E8000000600420117
:103A3300A080000007002001AB80000010004201BD
:103A43008F80000011002001810800000040420126
:103A5300A0800600000010110000070000003033B2
:103A6300000007001000303300000700014020333E
:103A7300000007000240203300000800000020334C
:103A830000000C005500393300000C001C004233C9
:103A93000000120055002001000014000E00422215
:103AA3000000010371030103010301030103010387
:103AB30022030203010310030003000300030003B6
:103AC300000300030003420300032403060300036F
:103AD3000003040312032503230325032303040321
:103AE3000403000300030003440300030003230350
:103AF300000365032100350381030003050300036D
:103B030000030003000325032303030071003001B6
:103B13006000110070003102200350048000100087
:103B23006100000014006300730072006200430030
:103B33000000130006000000000004001200000053
:103B430000000000000004000400370037003C02BE
:103B53004400000000000000000065000000350084
:103B630081000000050000008300000001017101D5
:103B73000101010111010101310101010101800173
:103B8300100161013B0014006301730172016201C2
:103B930043010001130106013D0135000401120137
:103BA300000100010001000104010401330133019C
:103BB3003C014401320136000001000165010001AE
:103BC3003500810100010501820183010001030425
:103BD3007104020460041104700402040204010469
:103BE30002041004610400041404630473047204E3
:103BF30062044304000413040604000400040404E0
:103C030012040004000400040004510464000004CE
:103C130000040004440400040004000400046504D8
:103C230000043504810464000504000483040004D3
:103C330003027102300160021102700201020202EA
:103C430002028002100261023A0041006302730221
:103C530072026202430200021302380000020002F1
:103C63000402120200020002000200020402040223
:103C7300370037003C024402000239000002000210
:103C830065020002350281020002050282028302FC
:103C9300000236000100060000000F0000000000D3
:103CA300000000000000000003FFFF00000403FF0A
:103CB300FF0000FFFF0FF4010005C404032000010F
:103CC30000000B000000000000000003010F0000D3
:103CD30000000000000000000000000000000000E1
:103CE30000000000000000000000000000000000D1
:103CF30050248C2456247E235C2492245C249E240A
:103D030062247E235C24922468247E236E247E23F3
:103D130074247E237A247E2380247E2386247E2398
:103D23000000000000000000000000000000000090
:103D33000000000000000000000000000000000080
:103D430000000000000000000000000000009227B7
:103D530013003E271F0044271F804A270100922794
:103D63000200C6260300CC260400F4370500D8263B
:103D73000600E426300002273100FC2632000E271D
:103D83003300142735001A2734002027360026274E
:103D930011003227140038271500F626FFFF000014
:103DA3000A000000020000000400000008000000F8
:103DB3001000000020000000400000008000000010
:103DC30000010000000200000004000000080000E1
:103DD30000100000002000000040000001902F06AA
:103DE300BA2F08B42F0BD22F10A82C02962F05A898
:103DF3002F079C2F0C782F0D842F64A42AFF00001B
:103E030007ECFDFDFDECDCDCCCBCACAC9C9C8C7C01
:103E13007C6C6C5C5C5C4C4C3C3C2C2C1C1C001681
:103E23000F00000B150B020002220F3300000E5A85
:103E33006967426565416C6C69616E636530390120
:103E4300030507090B0D0F00020406080A0C0D14E5
:103E53000AE5D5C5B5A5A59585857565000119162E
:103E630018161618230300303017181921301B1D9C
:103E73001F30303016181920231A1C1E3000034A35
:103E830049434E181A25050200393D3F373C3C365D
:103E93002C442D0C0E020B040B0A0708000F02041E
:103EA30002010101010902E803000000BE040A0344
:103EB3003E00000000523E0E00FA067F00E8031E9B
:103EC3001E00050C08040400102809080903010C4E
:103ED30005030815150300FF0A0C1004E00412473C
:103EE3005FA2E792AF22E4F0A3F0A3F022A3123E75
:103EF300E9A3F0227F0C02115EE0F508E4F509F571
:103F03000AF50B227401F0900534E0640F22740962
:103F13001214217F0402115EA3A3E024F5C39413BA
:103F230022900554126A4F7A147B0022C082C08308
:103F3300901D12745CF0A37433F0A3746EF0A37439
:103F430033F0901D167444F0A37433F0A3743EF061
:103F5300A37433F0A3747AF0A37433F0A37480F0E2
:103F6300A37433F0A37474F0A37433F0A3742CF02C
:103F7300A37433F0901D227450F0A37433F0A37430
:103F830056F0A37433F0A3744AF0A37433F0A3740C
:103F930086F0A37433F0901D33125FDC6006126267
:103FA3004612208A901D301257087408F0A3E4F0DB
:103FB300A3F0901DD3F0901D35F07C0BFDF97A36FC
:103FC3007B1D121FD67C0B7D0079007A417B1D126D
:103FD3001FD602571174F7120E0E74F7121504EA66
:103FE300FEEBFF12552F74051240A57403F0EE2467
:103FF30002FAE43F12407F242DFCE43FFD8C828DC6
:10400300831241BD12408E600812490774FFF0A36A
:10401300F0EE242BE43F1C1CFD8C828D83A3E0C0B7
:10402300E08A828B83125540D0E012408E888289C9
:1040330083125D382403126819122282740812173E
:104043009B7403F090054912122574021214E67949
:1040530003EEFAEFFB1235187402121421E9F50886
:104063007007EEFAEFFB1233FEA908740902491731
:10407300F582E43FF583127484125D2DFB8A828BF3
:104083008312409DE8F0A3E9F0EE22126A6D12401C
:104093009DE8F0A3E9126FE9E0221241888A828B3E
:1040A3008322F0A3E4F01240AD22EE240DF582E466
:1040B3003FF5832274F1120E0EEAFEEBFF8C088D9E
:1040C30009890A1241928A828B83124188740F12E2
:1040D300179B1241ABE824FF18E934FFF988828962
:1040E30083E50A12419D90054E12419A90054D12A7
:1040F300419A741112179B1241ABEE2404FCE43F66
:10410300FD880B8A828B83E0F50C8C828D83E025FE
:104113000CC3950B126A69E8F0A3E912549CA3A39C
:10412300A3A3A3A3A3A3E0640370081257F8F0A307
:10413300E4800312449E1240A87409F0750C36758E
:104143000D1D750E00780C12140A124492121FCA28
:104153007403121421750CFF750DFF780C12140EE5
:10416300AC08AD097903EEFAEFFB123518740212AD
:104173001421E9F5087007EEFAEFFB1233FEA908E4
:104183007F0702115EE024FFF8A3E034FFF922EE7B
:104193002402FAE43FFB221241BD1241A122F0E8BE
:1041A30024FF18E934FFF922E0F50CA31241BD12F4
:1041B30041A188828983E50CF022E08882898322E9
:1041C300C082C083901D52E0C394084004740780EA
:1041D30001E08A828B83F033333354F8F9025711A9
:1041E30074F0120E0EEAFEEBFF890C8C0E8D0F7528
:1041F3000A00A2AFE433F50BC2AF901D4C803F120F
:1042030042CB50371242DC64037030EE24F9FEEFE8
:1042130034FFFF850882850983A3A3E02405FCA35B
:10422300E03400FDEEFAEFFB122282EE24FF1EEFD4
:1042330034FFFF7410250AF50A150C125469127421
:1042430080E50C6006E508450970B4E50BA2E09231
:10425300AFA2AFE433F50BC2AF901D4C802C240208
:10426300FAE43509FB8A828B83126A582406F582A5
:10427300E438F5831242E98A828B831242D1A3A3E5
:104283001242E9050A150C12546912547E60221277
:1042930042DC640270F11242CBE50840C11245CC06
:1042A300A2E550E3850E82850F837401F0E50C705F
:1042B300D6E50BA2E092AF8E828F83E50AF0EE245F
:1042C300FFFAEF34FFFB80351245D7A2E6221242F4
:1042D300D522126E4DA3A3A32285088285098312DA
:1042E3006E4712648122E08E828F83F0EE24FF1EDC
:1042F300EF34FFFF221235E474041214217F080205
:10430300115E74EC120E0E74F512150489138A12E1
:104313008B0F851882851983E4F0041214DE12339F
:104323000EE9F8900533E0292434F508FA7B0012EE
:104333001FE88A0A8B0BAE0AAF0BEE4F70030244E1
:1043430086EE2402F50AE43FF50BA808EE28F8E40C
:104353003FF9850A82850B831240872404F510E414
:104363003FF511851082F583E4F0900533E0FCF806
:10437300C3E498F895E0F9850A82850B83E028F574
:1043830008A3E039F509900531126711750E00781D
:104393000C12140A7D00AA08AB09121FCA74031277
:1043A3001421AC18AD19740112179BE0F9E5082428
:1043B300FFFAE50934FFFB1233148A828B83E4F09E
:1043C300EA24FFF508EB34FFF509E50FC454F0F9CF
:1043D300901DD4E0C4333354C0F890052DE0A2E01F
:1043E300E43313134849440F1244A6E512C454F0AE
:1043F3004513850882850983F0A808850A82850B01
:1044030083E0FA851082851183E02AC398F0850A38
:1044130082850B83E8F0A3E509F012449E1240A8BD
:10442300E4F0740A12179BE4F075084175091DF551
:104433000A780812140A124492121FCA740312143F
:1044430021851882851983E06009EE240E1255C573
:104453004408F0123500E9F9E4F508F50978081283
:10446300140E74041214E6EEFAEFFB1235187402FC
:10447300121421E97006EEFAEFFB800BEEFAEFFB64
:10448300121FEE7A007B00740B121421023EF77C9C
:104493000B7D00EE2418FAE43FFB22125533E4F0BF
:1044A300A322E08508828509831244B022F01266B4
:1044B300E52274F3120E0E8A0A8B0BA2AFE433F5D6
:1044C3000CC2AF750800750900901D4C802C124674
:1044D300F35024850A82850B83A3A31278AD8E82C1
:1044E3008F83A3A3126249123506E9600A124519A4
:1044F300C2E6F08E088F091246E81249A170CFE593
:1045030008450960061245D3D2E6F0E50CA2E09215
:10451300AF7F0502115E12451D221266FEE0227472
:10452300F0120E0EEAFEEBFF8C0C8D0D750E00A241
:10453300AFE433F50FC2AF750800750900901D4C49
:104543008020850A08850B091245D3D2E4F0E508DB
:104553001245CCD2E7F0E50A24FBF582E50B34FFE4
:10456300F583E0F50AA3E0F50BE50A450B6043E5A7
:104573000A125354350BF583E0A2E750D9850A821A
:10458300850B83A3A3121225AC0CAD0DEEFAEFFB42
:1045930012350C7402121421E960BBE50845096069
:1045A300A1E508240D1245DF640170061245E8D227
:1045B300E4F0E50FA2E092AFE50845096006123387
:1045C300F8750E01A90E02430012537E1245E22232
:1045D3001245D722E50824111245DF22F582E4357E
:1045E30009F583E022850882850983126E47E0225C
:1045F30074F2120E0E74FE121504750C00750D0084
:10460300851882851983E4F0A3F0A2AF33F50AC2BB
:10461300AF901D4CE0FEA3E0FF8035EE24FBF58256
:10462300EF34FF12747E780C12140EEEFCEFFD7A59
:104633004C7B1D12201E7402121421EEFCEFFDAA06
:1046430018AB1912200CAE08AF09901D52E014F0FC
:10465300EE4F60271246F3501DEE240BF8E43FF9AA
:1046630088828983E024FFF0A3E034FFF088828905
:1046730083125FDC60A51246E48099E50AA2E0920A
:10468300AF901D52E06031900534E0640F600690F6
:104693001DD3E070237A2A7B1D1235F09084A51276
:1046A30012217A2A7B1D1235E47404121421800826
:1046B30074F012592F1233ECAA18AB191220128A74
:1046C3000A8B0BAE0AAF0BEE4F6013123320124569
:1046D30019A2E28E828F83A350D674E980D4024953
:1046E300A98E0C8F0DEE24FBF582EF34FFF58322A8
:1046F30012451DA2E72274F7120E0EEAFEEBFF121B
:10470300332012553D120FDDE96401900550700A04
:10471300E02401F8A3E034008004E0F8A3E0F912F8
:104723005B8B125F34901D52E07021900534E0647E
:104733000F70197A2A7B1D1235F09084A51212216D
:104743007A2A7B1D1235E47404121421A9A8C2AF7E
:10475300901D52E00412475FA2E7800DF0E9A2E743
:10476300E433F8E922E508A2E092AF0259CB74F7EB
:10477300120E0EEAFEEBFF1247A6F0123320EEFCF8
:10478300EFFD7A4C7B1D122018A9A8C2AF901D52D1
:10479300123EDF900534E0640F700579081234B8D7
:1047A3000259CB12451DC2E42274F7120E0E74EAAD
:1047B300121504EAFEEBFF90052DE0604085188298
:1047C3008519837401F012179BE412487E12179B1C
:1047D300AA82AB831222828E828F831245EEC0E0BF
:1047E300740A12179BD0E0126A7E740B12179BAAED
:1047F30082AB83123530AA18AB19122984741602BE
:10480300491774F7120E0EEAFEEBFF123302E9F9B1
:1048130074DC69601E74DD69601974E46960147482
:10482300F369600F74DE69600A74DF69600574DB25
:10483300697007EEFAEFFB1234BE0259CB74F7121C
:104843000E0E74EB121504EAFEEBFF851882851930
:1048530083740612487E12179BAA82AB83122282AC
:10486300126A83740A12179BAA82AB83123530AA89
:1048730018AB191229847415024917F0EE2413FC9E
:10488300E43FFD74022274F7120E0E74F71215043E
:10489300EAFEEBFFEE242D1255C56065125156AAB0
:1048A30018AB19122282740812179B7403F0900537
:1048B3004912122512490712122590055CE0F9747A
:1048C300041214E6EEFAEFFB1233087404121421F7
:1048D300E9F974DC69602374DD69601E74E469605E
:1048E3001974F369601474DE69600F74DF69600A18
:1048F30074E869600574DB697007EEFAEFFB123444
:10490300BE02406EEE12490C22242BF582E43FF5E1
:10491300832274031214210259CB74F2120E0E8AED
:10492300088B09750C00750D00750AE7A2AFE43317
:10493300F50BC2AF901D4C80031246E41249A160EF
:10494300351246F350F31255C2640170ECEE242F76
:10495300F582E43F124B50E06870DE780C12140EBF
:10496300EEFCEFFD7A4C7B1D12201E740212142103
:10497300901D52E014F0E50BA2E092AFEE4F6013EE
:10498300EEFAEFFB12332079F0EEFAEFFB1234BEAE
:10499300750A00A90AAA08AB091234BE800DE0FE0D
:1049A300A3E0FFEE4F2274021214217F0602115E70
:1049B30074F4120E0E74F7121504EAFEEBFF8E82E6
:1049C3008F83A3E064F37003024A5D8E828F83A317
:1049D300E064DF7003024A5D8E828F83A3E064E8A4
:1049E30060788E828F83A3E064DB606E123362E9AA
:1049F300F508705EEE240E1255C56056124A671212
:104A030033AAEA4B604C740812179B124A711212B4
:104A1300257508FF7509FF780812140E8E828F839F
:104A2300A3A3A3A3A3A3A3A3E0F974041214E612FC
:104A330033087404121421E9F50874F3650860124D
:104A430074DF6508600C74E86508600674DB65084C
:104A5300700F8E828F83A3E508F0EEFAEFFB12331B
:104A63006E023F11EE240FFAE43FFB790922740230
:104A730012724674FFF0A3124A7E22124A82221255
:104A83005D41A3A32274F5120E0E8A088B097E00E2
:104A93008A828B83A3A3A3A3A3A3123F1B40027EFB
:104AA300E88A828B83A3A3A3A3A3A3A3A3A3A3E0C3
:104AB300C3941040047EE880138A828B83A3A3A34C
:104AC300A3A3A3A3A3A3A3E0640F600A901DB0E074
:104AD300540870027EE8EA240BF582E43509124B90
:104AE30050A3A3A3A3A3A3A3A3E0C398500CEA24B6
:104AF3000B1245DF640F60027EE890054DE0F47011
:104B030003A3E0F470027EEC7A237B0012208490EE
:104B13001D33126259901D33125FDC6029850882B0
:104B2300850983A3A3A982AA8389088A09750A0030
:104B3300780812140A7C237D00126246121FCA747D
:104B43000312142180027E1AEEF90273E7F583E063
:104B5300F88A828B83A3A32274F5120E0EEAFEEB6E
:104B6300FF8E828F83A3A3A3A3A3A3A3A3E0900594
:104B73003412712990054F12710F90052F12712E67
:104B8300901DD4F0F9121ACC901DD4E06018EE24D5
:104B930004FAE43FFB7950121AB4EE2406FAE43F18
:104BA300FB79E1121AB4901DD3123F07600474011C
:104BB30080027400901D3512711512140A7C0B7D4E
:104BC300007A367B1D121FCA7403121421EE2418B7
:104BD300F508E43FF509780812140A7C0B7D007A86
:104BE300417B1D0273DF74F7120E0EEAFEEBFF8E9C
:104BF300828F83A3E070061262461233688E828F1F
:104C030083742C12592F1234CA0259CB74F7120E23
:104C13000EEAFEEBFF901D33125FDC600D1262465D
:104C2300901D33E4F0A3F012208A8E828F837408E0
:104C330012592F1229840259CB74F6120E0E901DAD
:104C4300D3E06013901D35E0700D124C5D12331AE2
:104C5300EA4B60031233FE026D8990052FE0FB904F
:104C6300054FE0FA900534E0F92274F4120E0E7445
:104C7300E7121504EAFEEBFF750B018E828F83A307
:104C8300A3A3A3A3A3A3E0A2E25068EE242BF5827F
:104C9300E43F1278AB124D2B123326E97055908204
:104CA300CDE064017005750B008048124D3312147A
:104CB3000A7C0B7D0074111214DE121FCA740312D6
:104CC3001421123500E9FA740E1214D688088909E2
:104CD300780812140E750830750900780812140E3E
:104CE300124907121225126A1F790112351E740622
:104CF300121421851882851983741012487E1217A5
:104D03009BAA82AB83122276124907126A4B740B59
:104D130012179B125F34740D12179BE50B1257A2E7
:104D23001229847419023F13EE2413FAE43FFB2281
:104D3300EE240812711D22C082C083901DD4E0604E
:104D430003123572025711C082C083901DCB7412B7
:104D5300F0A3741DF0A37416F0A3741DF0A37422C2
:104D6300F0A3741DF0901EEC74D1F0A3743BF0908B
:104D73001DB574FCF0A37432F0901D577432F0A388
:104D83007433F0901D597438F0A37433F0901DB050
:104D9300E044028001E4F0025711C082C083EAFCC0
:104DA300EBFD7903025DADC082C083EAFCEBFD79C4
:104DB30005025DADC082C0837908026F1AC082C04C
:104DC3008374FE121504901D5F74E6F0A37433F030
:104DD300901D6174E0F0A37433F0800D7A4C7B1D59
:104DE3001220121257981234EE901D4C125FDC7091
:104DF300EB901D4E125FDC600F7A4E7B1D1220126A
:104E03001257981234EE80E9901D4CE4F0A3F09011
:104E13001D52123EEA7402800274111214210257C9
:104E23001174F6120E0EE9FF748B29F582E4343EF9
:104E3300F583E493FEFA7B00121FE8EA4B6011EA64
:104E43002E125F2A8A828B83A3A3A3A3E4F0802C70
:104E53007A027B00121FE8EA4B601D746A2FF58209
:104E6300E4343EF583E4938A828B83F0A3741AF0CF
:104E7300901DABE0F9121FF47A007B00026D89E903
:104E8300FC740629F8EAA2E0501EE875F00A84E5EE
:104E9300F0F96014740A28C399F8E9C3940540042F
:104EA300740A28F8740B28F8ECC3941340047A149A
:104EB30080027A06EA2879002409F85001097A0A5F
:104EC3007B00120BC3E8F90213EEC082C083901D6E
:104ED300B0E05402600A12298AE960047901800271
:104EE3007900025711C082C083901DB0E054026064
:104EF30016901D52E0700C125FD9600BE0C812547B
:104F0300765004790180027900025711C082C08370
:104F13009082CAE0F8901D54E0C3985005121FE830
:104F230080047A007B00025711C082C0831234EEE2
:104F3300790002571174F7120E0E74FE12150485D0
:104F43001882851983EAF0A3EB1250A7A3A3A3A3A6
:104F5300A3E0600A14606024FE6069025028900593
:104F630034E0640F60181234C4E970128518828526
:104F73001983126249901D5B125540120FDD900593
:104F83005CE0C0E0851882851983125D0BD0E012C6
:104F930050A774141272421278AD7A4E7B1D122000
:104FA3000CA8A8C2AF901D54E00412625F792012CE
:104FB30034B87402024917851882851983126E4F1B
:104FC300741580D085188285198312508AA3A3E0B3
:104FD3006053851882851983E02402F8A3E0340026
:104FE300F988828983127680E0C0E085188285196A
:104FF30083E0FCA3E0CC2406F582E43CF583D0E017
:10500300126A8B8882898312625985188285198373
:10501300125372851882851983601312508F6005AD
:105023001250974043AA18AB191234EE80841250E1
:105033008F60F2125097501C125486FA851882859D
:105043001983125091F874A0125F25343EF583E45E
:10505300936A601485188285198312508F640870CF
:10506300C4125486640870BD125486141250AF24BF
:105073000AC0E0851882851983125540D0E012508A
:10508300AF04024F97E0F8A3125D5822E0F8A3E0C3
:105093001250B622851882851983126A5C1250B7A2
:1050A300C3940A221250C1F5838882221250C1127E
:1050B30050B622C82406F582E438F583E022127242
:1050C30046E0F8A3E022C082C083901D63125FDC38
:1050D3006008126E50120FDD8002790002571174BE
:1050E300F7120E0EEAFEEBFF1240AD7401F0EE2450
:1050F30030F582E43FF5831267B9124087243212F8
:1051030055C5C0E0EE2413F582E43FF583D0E0F00B
:10511300EE24331255C5C0E0EE2414F582E43FF5C6
:1051230083D0E0F0EE242CF582E43FF583121225C0
:10513300125156EE242E1255C5F912351874021267
:105143001421E9F5087007EEFAEFFB1233FEA90804
:105153000259CBEE2423FCE43FFD22C082C083121C
:1051630034C4E96004792080027901025711C082B6
:10517300C083EA125354125215D2E0024D99C082F1
:10518300C08312520F6401701112521A400C8A82AA
:105193008B83A3E0F91234BE806FEA2410125212FB
:1051A300A2E650128A828B83A3E0F9901D5D12550B
:1051B30040120FDD805312520F6401700D12521A08
:1051C30050088A828B83743080368A828B83A3E073
:1051D300641B8A828B83700474228024A3E0700D85
:1051E30012520FF87475125F25343E800B12520F62
:1051F300F8746A125F25343EF583E4938A828B83C5
:10520300F0901DABE0F9121FF4025711EA240DF5DB
:1052130082E43BF583E022EA12537E3BF583E0A26E
:10522300E32274F7120E0EE9FE125FD970030253E4
:105233004BEE6011741B6E7013E0C812534E64057D
:105243007003025316126E3FE402531A74E96E7030
:105253006212536A700B122990E96005125384603D
:105263006279EE121A30901D55125367901D5560E6
:105273003B125387901D55700B12536714F0121B8A
:10528300F802534B125372C2E712549212534E64F4
:1052930003700C126A551253541250BCD2E2F079C7
:1052A300ED121A3012535A120FDD8075126E4274CA
:1052B300E9806474E16E703E122990E960551253DF
:1052C300847050900556E0C0E0126A552412F582AE
:1052D300E438F583D0E0F0900545E0C0E0901D553B
:1052E300125088125088D0E0F0900545E004F07920
:1052F30001121BE08052741C6E7018901D551262CF
:1053030049901D65125540120FDD901D55E4F0A321
:10531300F08035126E3FEEF0901D55126249123344
:10532300EC126A55126A27E05480601090055CE025
:10533300F9121AF090055BE0F9121AE4901D55E496
:10534300F0A3F079101234B80259CB240D1250B9DE
:10535300222411F582E422901D5512624D901D59AD
:10536300126E4922E0F8A3E0C824121250B922E0D9
:10537300F8A3E0C812537E1250BC222410F582E435
:1053830022901D55126A5C126A2BE054042274F4B5
:10539300120E0E750A00750B00A2AFE433FFC2AF05
:1053A300125FD9600302544E12553D120FDDE944DA
:1053B30010F8901D4C800985080A85090B12546961
:1053C30012547E700302544E1245D3586870E87825
:1053D3000A12140EAC08AD097A4C7B1D12201E7400
:1053E30002121421901D55E508F0A3E50912549209
:1053F300125476405D901D53E014F0EFA2E092AF9B
:10540300901D55E0240EF8A3E03400F988088909BB
:105413008882F583126249901D5512548CF9123318
:10542300B0E9901D50F012549AE05480901D5560DD
:1054330026126A5824131250B9F9121AF0126A5537
:1054430024141250B9F9121AE48018EFA2E092AFB3
:105453008011901D5280A1125372A2E1B3E433F97B
:10546300121BE0023F16E50824FBF582E50934FF31
:10547300F5832224111250B9A2E722127484E5089D
:105483004509228518828519831242D5A3E022F0AB
:10549300901D55126A5C22A3E4F085088285098376
:1054A3002274F7120E0EEAFEEBFF1234E8EE24101C
:1054B3001255C5A2E3400C1255C2640170059082D7
:1054C300C880039082C9E0F9EEFCEFFD7A4C7B1DA6
:1054D300122024E96046EEFAEFFB901D5F1255405F
:1054E300120FDDEE240E1255C554047020A8A8C275
:1054F300AF901D53E00412623FFAE8A2E792AF12A5
:10550300552FA3E0540170211233F8801CEEFAEFFB
:10551300FB901D57125540120FDD800D8E828F8335
:10552300A374F112592F1233EC0259CB12553322C3
:10553300EE240EF582E43FF58322901D61126E493D
:1055430022C082C0831233F802571174F7120E0E71
:10555300EAFEEBFF7900901DB0E05402700CEE24DC
:10556300301255C55404600279E8901DB0E05460D0
:10557300700CEE24301255C55402600279E88E8215
:105583008F83A3A3A3A3E0F89082CEE0C398500235
:1055930079E8EE242E1255C5700CEE242B1255C556
:1055A300700479F5800BE970051233DAE9F9E960E3
:1055B30007EEFAEFFB1234BE0259CB34FFF509EEC6
:1055C300240DF582E43FF583E022C082C0838A8202
:1055D3008B83740DF0122984025711C082C0838A11
:1055E300828B83E4F0A3F0EA243012521254049025
:1055F30082C87012E0F8901D53E0C398401279F10D
:105603001234BE025711E0F8901D52E0C39850EED9
:10561300901DABE0F9121FF480E974F6120E0EE947
:10562300FE244CFAE43400FB121FE8EA4B6012EE4E
:105633008A828B83A3A3A3A3F0EA244C125F2A805C
:10564300047A007B00026D89C082C083901D677459
:1056530046F0A37434F0A37476F0A37434F0A37407
:105663004CF0A37434F0A37452F0A37434F0A37415
:1056730070F0A37434F0A37464F0A37434F0A374CF
:105683005EF0A37434F0A3747CF0A37434F0A374B9
:1056930082F0A37434F0A37488F0A37434F0A37479
:1056A30094F0A37434F0A37458F0A37434F0A37487
:1056B30040F0A37434F0A3743AF0A37434F0901D53
:1056C30083746AF0A37434F0A3748EF0A37434F07B
:1056D300A374A8F0A37435F0A3749AF0A37434F000
:1056E300A374A0F0A37434F0901DA7E4F0901DAA56
:1056F300F0901D931257087402F0901D9C125708E6
:105703007401024D9974B8F0A37434F0A322D083CA
:10571300D0820213EE74F5120E0E74F11215048585
:1057230018828519837402F0740112179BE9F060E3
:10573300047AFF7BFF740212179B12625975089F4C
:1057430075091D750A00780812140A7C0B7D007414
:105753000712179BAA82AB83121FCA740312142168
:10576300AA18AB19122984740F0273E474F7120E8A
:105773000E74FD121504851882851983740AF0745A
:105783000112179BE9F0740212179BEA1257A21237
:105793002984024915851882851983EAF0A3EBF061
:1057A300AA18AB192274F6120E0E74F7121504EA36
:1057B300FEEBFF1257F81240A57402125920AA18E3
:1057C300AB19122276EE242E12407324301268266F
:1057D30012140E74021214E679831A1AEFFB1235AF
:1057E300187402121421E9F5087007EEFAEFFB12A0
:1057F30033FE026D8212553374012274F0120E0EC1
:105803001272CD12172C7808790C120CA778081293
:1058130014067A967B1D0242F874F4120E0E74C6B7
:10582300121504900534E0640F6010851882851901
:1058330083742E1257A21234CA80277A8D7B1D12CD
:1058430035F0123F24120BCB88088909E4F50AF5D9
:105853000B78081214067A8D7B1D1235E47404123A
:105863001421743A023F1374F5120E0EEAFEEBFF95
:105873008E828F83A3E0F86003025909EE242D1270
:1058830055C564026007E06403600278E8EE2423F0
:10589300F582E43FF583123F1D400478E8806AE80F
:1058A3007064EE2423FAE43FFB79E1121AB4EE2488
:1058B3002EFAE43FFB7950121AB4EE242D1255C58B
:1058C3006402700E126A15126A4B900543125F341C
:1058D300801290054374FEF0A3041259207A3A7B98
:1058E30005122282EE2418124D3612140A7C0B7D07
:1058F300007A9F7B1D121FCA7403121421EEFAEF64
:10590300FB123434E9F8E86011E88E828F83A31226
:105913006C77741712592F1234CA0273E7F0EE240E
:1059230025FCE43FFD228E828F837429F0EEFAEF8B
:10593300FB2274F6120E0E74F7121504901DAAE0E2
:10594300703B7401F0F9121BAAAA18AB191234FAAE
:1059530075089F75091D780812140E7508017509DD
:1059630000780812140E90054912122574061214B9
:10597300E67A03790512351E7406121421026D842A
:1059830074F7120E0EEAFEEBFF7901121BB08E8242
:105993008F83E064207004A374EBF0901DAAE0A24F
:1059A300E25003C2E2F0E0A2E15008125BCD1234F0
:1059B3002E800C8E828F83742A12592F1234CA8040
:1059C30007EEFAEFFB1235667F0102115E74F412E3
:1059D3000E0E74FE121504EAFEEBFF7901121BB0E2
:1059E3007A8D7B1D1235F07A967B1D1235F0125D90
:1059F30017851882851983125D4BE0F50B700FAA8A
:105A030018AB197953121AB4127474121AB4124DD2
:105A13003312140A7C0B7D007A9F7B1D121FCA74FC
:105A230003121421851882851983126249A90B1266
:105A33003428901DAAE0A2E1500C7A008E828F8355
:105A4300A3E0F912342E901DAAE4F07402023F136E
:105A530074F7120E0EEAFEEBFF8E828F83A374EBB4
:105A6300F0901DAAE0A2E150077A0079EB12342EE0
:105A7300EEFAEFFB1234640259CB74F7120E0EEAFE
:105A8300FEEBFF7901121BB07A8D7B1D1235F07A84
:105A9300967B1D1235F0901DA7E4F0901DAAF07AB5
:105AA300FF7BFF8E828F83A3E0F91234280259CB48
:105AB30074F7120E0EEAFEEBFF12345E0259C47441
:105AC300F7120E0EEAFEEBFF7901121BB08E828FE6
:105AD30083A3A3A3A3E060047400800274EB125BAE
:105AE300145003C2E2F0E0A2E15008125C16123433
:105AF3002E8014A2E050108E828F83742AF0A37438
:105B0300EB12592F1234CAEEFAEFFB12341002597A
